:10000000385C0020551A0000511A0000511A0000F7
:1000100000000000000000000000000000000000E0
:100020000000000000000000000000004D01000082
:100030000000000000000000B9010000FD01000008
:10004000511A0000511A0000511A0000511A000004
:10005000511A0000511A0000511A0000511A0000F4
:10006000511A000039160000491600005916000008
:10007000691600007916000089160000511A000068
:10008000511A0000511A0000511A0000511A0000C4
:10009000511A00000000000000000000511A00008A
:1000A000511A0000511A0000511A0000511A0000A4
:1000B0000000000010B5064C2378002B07D1054B3B
:1000C000002B02D0044800E000BF0123237010BDC4
:1000D0000C00002000000000DC1C0000084B10B5E4
:1000E000002B03D00749084800E000BF0748036819
:1000F000002B00D110BD064B002BFBD09847F9E731
:100100000000000010000020DC1C0000DC1C0000CF
:1001100000000000064A13681868203080F3098840
:10012000022080F314883FBCAE4662B600BDC046D4
:10013000C83A002010B5031F802464041C60043BEF
:100140001960183B1A60403810BD0000084B196850
:1001500008681030F0C8A046A946B246BB4680F3F6
:1001600009882038F0C871460D2001430847C04671
:10017000C83A002080225205034B1A60BFF34F8F0C
:10018000BFF36F8F7047C04604ED00E072B6044ABB
:10019000136801331360BFF34F8FBFF36F8F704746
:1001A00000000020034A1368013B1360002B00D1BC
:1001B00062B6704700000020EFF309800E4B1A680A
:1001C00020381060F0C044464D4656465F46F0C0A9
:1001D00008B572B600F09EFE62B60CBC11680868E5
:1001E0001030F0C8A046A946B246BB4680F3098845
:1001F0002038F0C81847C046C83A002010B5802201
:100200005205034B1A6072B6024B984762B610BD96
:1002100004ED00E0750C00000022044B1A60044A53
:10022000044B1A600722044B1A60704718E000E084
:100230003F1F000014E000E010E000E010B50A4BA2
:100240001968FF2212040A431A601968FF22120675
:100250000A431A60054B98470022054B1A60054B6C
:100260009847002010BDC04620ED00E019020000B4
:10027000000000201501000070B50400430702D003
:1002800007239C430834114B9847114B1B68002BE4
:1002900010D0104B1B68E4180F4A944211D8A342A7
:1002A00011D20B4A1568ED180A4B1C600B4B98478E
:1002B000280070BD07220A4B08339343044A136099
:1002C000E7E70025F2E70025F0E7C046450C00000F
:1002D00028000020C43A00208F3A0000910D000051
:1002E0002C000020002801D072B6FEE77047030002
:1002F00008334360012252428260C36003610023DD
:100300000360704700230361704743685A684A607E
:1003100042688A605A689160596041600861036868
:1003200001330360704710B50C68631C14D00300E0
:100330000833C2681268944204D35B685A68126832
:100340009442FAD25A684A6091608B6059600861A1
:1003500003680133036010BD0369F3E743688268F3
:100360009A60836842685A6003695A68904206D06E
:10037000002202611A68013A1A60186870478268A0
:100380005A60F5E710B504001300026C002A0BD187
:100390000368002B04D14068134B98470023636027
:1003A000A36B0133A36310BD002B0DD180680F4BED
:1003B0009847A368226C94466344A36062689342A2
:1003C000EED32368A360EBE7C068084B9847236C23
:1003D0005B42E268D218E26021688A42E0D2626839
:1003E00094466344E360DBE71D120000351C000007
:1003F00010B582B001900A00C46C002C05D0A16B2E
:10040000E36B994203D372B6FEE772B6FEE7A16BC7
:1004100000208B4201D802B010BD01A92000064B7C
:100420009847636A0020002BF5D020002430034B4E
:100430009847431E9841EEE78503000055100000E1
:1004400070B50C00016800290BD0026CC3689B18C2
:10045000C3604568AB4200D3C160C1682000014B56
:10046000984770BD351C0000F8B50400254B98472F
:10047000A36C002B1EDD244D244E0DE0636A002B7F
:1004800018D020002430B047002810D1A36C013BC5
:10049000A364A36C002B0DDDE36C002BEED00021D8
:1004A0002000A8470128F1D1194B9847EEE7184BD7
:1004B0009847EBE701235B42A364164B9847114B27
:1004C0009847636C002B16DD2369002B13D02500A1
:1004D00010350E4F0E4E08E0636C013B6364636C95
:1004E000002B08DD2369002B05D02800B847002821
:1004F000F2D0B047F0E701235B426364054B9847B5
:10050000F8BDC0468D010000F10300005510000049
:1005100069110000A501000070B504000D0000285D
:1005200020D0174B98472268216CE36B4B43D018BF
:1005300060600020A063A2605B1AD318E36001230F
:100540005B426364A364002D11D12369002B05D0A5
:10055000200010300B4B9847012805D00A4B9847D4
:10056000012070BD72B6FEE7084B9847F6E7200001
:100570001030074DA84720002430A847EEE7C046BA
:100580008D01000055100000A5010000750100005C
:10059000EF02000070B505000E00002819D05020B1
:1005A0000D4B9847041E14D03000684301300A4BAD
:1005B00098472060002809D0E563266401212000C7
:1005C000064B98470023E364200070BD2000044BD5
:1005D000984772B6FEE7C046790200001905000090
:1005E000E5020000F0B5CE4600B584B004000F006F
:1005F00001920093002804D00025002903D0404E2A
:1006000040E072B6FEE7036C002B01D072B6FEE745
:100610000025F4E7009D2A0039002000394B984757
:10062000E36C002B0ED029002000374B984701289F
:1006300001D1364B9847364B9847012004B004BC93
:100640009146F0BD636A002BF5D020002430314B79
:1006500098470128EFD12D4B9847ECE72C4B984752
:100660000020EBE702A82C4B984715E000236364B9
:100670001BE00023A3641BE02000284B9847284B75
:1006800098470125B047A36BE26B9342C2D3019B0D
:10069000002BE3D0002DE5D01D4B9847214B984708
:1006A000174B9847636C0133E0D0A36C0133E0D063
:1006B000174B984701A902A81B4B9847002817D150
:1006C0000F4B9847A36B9946E56B114B9847A9458B
:1006D000D2D1200010300199144B984720000F4BC5
:1006E00098470F4B98470028CBD1084B9847C8E74D
:1006F00020000A4B98470A4B984700209EE7C046C7
:100700008D01000085030000F10300007501000069
:10071000A501000055100000D11000006904000080
:10072000910D0000450C0000F1100000BD0F00000D
:1007300070B5040015001E00002809D0002909D05A
:1007400072B6A36B0020E26B934208D362B670BD11
:1007500072B6FEE7036C002BF2D072B6FEE73200F1
:100760002000164B9847A36C01331ED1E36C002B7D
:100770000AD031002000124B984701281AD1002DD1
:10078000E4D001232B60E1E7636A0120002BDDD078
:10079000200024300B4B984703000120002BD5D0BC
:1007A000002D09D001232B60D0E7A36C0133A36493
:1007B0000120CBE70120C9E70120C7E7850300003E
:1007C000F103000055100000F0B5C64600B584B036
:1007D00004000E0001921F00002805D0002500290A
:1007E00004D04A4B984653E072B6FEE7036C002BE8
:1007F00001D072B6FEE70025F3E7E568310020007E
:10080000434B9847002F1AD1A36B013BA363236886
:10081000002B02D13F4B984760602369002B07D023
:10082000200010303C4B9847012801D13B4B9847A2
:100830003B4B9847012004B004BC9046F0BDE560F6
:10084000636A002BF4D020002430334B98470028F3
:10085000EED0324B9847EBE7314B98470020EAE760
:1008600002A8304B98471CE00023636422E0002379
:10087000A36422E0254B984760682B4B9847284B90
:1008800098472CE02000294B9847294B9847012591
:10089000C047A36B002BB0D1019B002BDCD0002DF7
:1008A000DED01F4B9847234B9847184B9847636CF3
:1008B0000133D9D0A36C0133D9D0194B984701A982
:1008C00002A81D4B9847002818D1104B9847A56BDC
:1008D000134B9847002DD5D12368002BCAD0200098
:1008E00024300199154B98472000104B9847104B26
:1008F00098470028CBD1094B9847C8E720000B4BFD
:1009000098470B4B9847002095E7C0468D010000A3
:100910004104000075110000551000007501000031
:10092000A5010000D1100000A11100006904000021
:10093000910D0000450C0000F1100000BD0F0000FB
:1009400070B504000D000E4B9847636C01330BD05B
:10095000A36C01330BD00B4B9847A36B002B09D032
:100960002000094B984770BD00236364F0E7002323
:10097000A364F0E7200024302900044B9847EFE7F8
:100980008D010000A50100006904000015100000A1
:1009900010B504000E4B1B6858600E4B1B68984244
:1009A0000DD30D4B18680A4B196804310B4B98474F
:1009B0000B4B1B689C4209D2094B1C6006E0094B9B
:1009C0001868034B19680431044B984710BDC046A2
:1009D000C83A0020C43B0020CC3A00202703000086
:1009E00004000020D03A0020F0B5D6464F4680B52E
:1009F00083B005000091160001930A9B99460C9F55
:100A0000002803D0042B03D972B6FEE772B6FEE7C6
:100A100040205A4B9847041E0CD0002F00D078E09D
:100A2000B000564B9847071E206300D072E02000AC
:100A3000534B9847012040425AE00B9B002B00D0BB
:100A40001C60504B9847504A1368013313604F4B5A
:100A50001B68002B51D14D4B1C601368012B1FD11B
:100A60004B4E30004B4DA84730001430A8473000A3
:100A70002830A84730003C30A84730005030A84705
:100A8000454F3800A847454E3000A8474448A8477E
:100A90004448A8474448A847444B1F60444B1E6045
:100AA000E36A444A1268934201D9424A13604249B8
:100AB0000A6801320A60414A1268934201D93F4AEA
:100AC00013609A00D3189B003148C01800993C4B22
:100AD00098473C4B98473C4B1B680120002B07D0A4
:100AE0002A4B1B68DB6A994502D9384B984701208D
:100AF00003B00CBC91469A46F0BD334B1B68002BEB
:100B0000CED1224B1B68DB6A9945C9D31F4B1C60B1
:100B1000C6E70763B200A52138002D4B98472D4B3F
:100B2000F3189B00226B944663440726B3439A460E
:100B30002000343008220099274B984700223B239D
:100B4000E2544B46E362E363231D00931800234FF6
:100B5000B84720001830B847246105234A469B1A3D
:100B6000A3616462019A290050461D4B984720609A
:100B7000304200D161E772B6FEE7C046790200005C
:100B8000E50200008D010000383B0020C83A00203B
:100B9000D43A0020EF020000543B0020683B0020C4
:100BA000843B0020B03B00209C3B0020CC3A00203E
:100BB000D03A0020503B0020443B00204C3B00201A
:100BC0000B030000A5010000983B00207501000008
:100BD000471C0000FFFFFF3F571C000005030000FB
:100BE0003501000010B584B00023039302930193F4
:100BF000009364220C490D480D4CA047012803D0F6
:100C000000280ED172B6FEE70A4B98470128F7D1AB
:100C100072B60122084B1A600022084B1A60084B7A
:100C2000984704B010BDC046801C0000850E00002F
:100C3000E909000015130000983B0020C43B002088
:100C40003D020000024A1368013313607047C0463A
:100C5000403B002010B5044B9847044B1C68044BE4
:100C60009847200010BDC0468D010000C43B002005
:100C7000A5010000F8B53B4B1B68002B6DD13A4B2A
:100C80001A6801321A601B68002B18D1374B1B6899
:100C90001B68002B01D072B6FEE7344B1968344A4A
:100CA00010681860116033490A6801320A601B68D5
:100CB0001B68002B1AD1012252422F4B1A602A4B7B
:100CC0001A682D4B1B689A424BD3284B1B681B6834
:100CD000002B13D0254B1B68DB68DC686368224A55
:100CE000126893420FD8254F254E25E01F4B1B68F5
:100CF000DB68DB685A68204B1A60E0E70122524249
:100D00001D4B1A602DE01C4A13602AE09800C018A1
:100D100080001C4B181829001B4B9847134B1B686D
:100D20001B68002BEAD0114B1B68DB68DC6863682A
:100D30000D4A12689342E6D8251D2800B847A36AD9
:100D4000002B03D0200018300C4B9847E36A326820
:100D50009342DBD90A4A1360D8E70C4A136801337F
:100D60001360F8BD403B0020C43B0020CC3A00207B
:100D7000D03A0020803B0020040000205D030000EA
:100D80004C3B0020D43A00200B0300003C3B0020E9
:100D9000F8B52E4B1B68002B01D172B6FEE72C4B29
:100DA00098472A4B1A68013A1A601B680024002BE6
:100DB00003D1284B1B68002B03D1274B98472000F9
:100DC000F8BD264D2B68002B21D0244BDB68DF6853
:100DD00038001830224B98473E1D3000204B984772
:100DE000FB6A204A1268934201D91E4A1360980098
:100DF000C01880001C4B181831001C4B98471C4B26
:100E00001B68FA6ADB6A9A42DCD30124DAE7194BE1
:100E10001B68002B13D0174B1B68002B08D0164DF6
:100E2000144CA8472368013B23602368002BF8D1AA
:100E30000022124B1A60124B98470124BDE7012C87
:100E4000F6D00E4B1B68012BB7D1F1E7403B0020D9
:100E50008D010000383B0020A5010000843B0020EC
:100E60005D0300004C3B0020D43A00200B0300003F
:100E7000C83A00203C3B0020750C00007C3B002061
:100E800075010000F8B5CE46474680B5164B98462A
:100E9000164F174E26E0174B1B68012B20D82B68E6
:100EA000002BF8D0C0473C68B047002CF7D0124B5D
:100EB00098470E4BDB68DC68201D104B9847104AA2
:100EC0001368013B13600F4A1368013B13600E4B1C
:100ED0009847206B0D4B994698472000C847DEE79E
:100EE0000B4B9847074DDAE7450C0000B03B00205C
:100EF000910D0000D43A00208D0100005D03000038
:100F0000383B0020483B0020A5010000E50200001E
:100F10007501000010B5244B1B68002B1ED1234B1C
:100F20001A6893009B189B00214A9B58002B19D1EB
:100F30001E4B1B68002B0FD01C4A1D4C1000136861
:100F4000013B136011688B005B189B001B59002B41
:100F500008D10368002BF2D172B6FEE70122154BCF
:100F60001A6010BD114B1A68114893009918890036
:100F700041184C6864684C609B189B000833C31888
:100F80009C4209D093009A189200094B9A18536812
:100F9000DA68094B1A60E4E7606893009B189B00CD
:100FA0000349CB185860EDE7403B00204C3B002044
:100FB000D43A00207C3B0020C83A002070B50C00D9
:100FC000002810D00C4D296818310C4B9847286820
:100FD00004300B4B9847631C07D00A4B1868201845
:100FE000094B984770BD72B6FEE7034B1968043190
:100FF0000648074B9847F5E7C83A0020270300004A
:101000005D030000C43B0020910900009C3B0020D0
:101010000B03000070B50D00002801D172B6FEE789
:10102000074C21681831074B984720680430064B5D
:101030009847064B18684019054B984770BDC04645
:10104000C83A00200B0300005D030000C43B0020F1
:101050009109000070B5C368DC68002C23D025001E
:1010600018352800134B9847134B1B68002B1CD1D5
:10107000251D28000F4B9847E36A104A12689342D7
:1010800001D90E4A13609800C01880000C4B181844
:1010900029000C4B98470C4B1B68E26ADB6A002066
:1010A0009A42404170BD72B6FEE729000748054BE1
:1010B0009847F0E75D030000403B00204C3B0020D8
:1010C000D43A00200B030000C83A0020843B0020E3
:1010D000002806D0044B1B680360044B1B68436068
:1010E000704772B6FEE7C046803B0020C43B00203C
:1010F00070B504000E0000281CD000291CD0154B30
:10110000984733685A1C22D0134A126821689142CA
:1011100005D0124A126801256168914206D90F4A2A
:1011200011686068091A01258B4207D80C4B984753
:10113000280070BD72B6FEE772B6FEE71268121A9A
:101140009B1A33602000074B98470025EEE70025E7
:10115000ECE7C0468D010000803B0020C43B00202E
:10116000A5010000D11000000122014B1A60704758
:101170007C3B0020014B18687047C046C83A0020ED
:10118000054B1B680020002B04D0044B1868431E3D
:10119000984101307047C046983B0020403B0020FA
:1011A00070B5041E17D0C26A174B1B68DB6A9A42DF
:1011B00011D2154B1B68D96A05235B1A8361930012
:1011C0009B189B00114AD31842699A4204D00E4BD7
:1011D0001B68DB6AC36270BD051D28000C4B984775
:1011E000094B1B68DB6AE3620A4A1268934201D921
:1011F000084A13609800C0188000044B1818290092
:10120000054B9847E7E7C046C83A0020D43A00208B
:101210005D0300004C3B00200B03000070B5041E72
:101220001AD0C36AC26B934216D0051D28000B4B1F
:101230009847E06BE06205231B1AA361084B1B680B
:10124000984201D9064B1860830018188000054B9E
:1012500018182900044B984770BDC0465D03000074
:101260004C3B0020D43A00200B03000010B5416035
:10127000006191420BD8D21A012483699A4211D29B
:10128000011D094B1868094B984700240AE09A424F
:1012900002D20124994205D2011D054B1868034B67
:1012A00098470024200010BDCC3B002027030000FD
:1012B000C83B002070B50E4B98470E4B1B68002BA7
:1012C00002D00D4B984770BD0C4D28000C4EB04716
:1012D0000C4C2000B0470C4B1D600C4B1C600022D6
:1012E0000C2102200A4B9847024B1860E9E7C046E0
:1012F0008D010000FC3B0020A5010000D03B002038
:10130000EF020000E43B0020C83B0020CC3B002063
:101310009505000010B584B00B4B98470B4B1B682C
:10132000002B0FD000230393029301930233009309
:101330000023502206490748074CA047002801D047
:1013400004B010BD72B6FEE7B5120000FC3B0020F1
:10135000881C0000C9140000E9090000F0B5C64669
:1013600000B580460D0017001E00002901D172B69D
:10137000FEE72820094B9847041E0BD0084B9847DE
:1013800043462360A561E7612662069B6362201DD8
:10139000044B9847200004BC9046F0BD7902000041
:1013A000B51200000503000030B585B01D00134BD9
:1013B0001C68002C20D0019102920390002D07D0D0
:1013C00000232A0001A920000D4CA04705B030BD24
:1013D0000C4B9847012807D0084B186800230022BF
:1013E00001A9094CA047F1E7044B18680023089AAB
:1013F00001A9054CA047E9E70020E7E7FC3B0020F6
:101400003107000081110000E5050000F0B5D64667
:101410004F464646C0B582B08146244B9847804629
:10142000234B1B68984217D300234A461360204B76
:1014300042461A60404602B01CBC90469946A246FD
:10144000F0BD00230093524600212000194CA04714
:10145000002803D172B6FEE7174E184F33681A689A
:10146000002A19D0DA6812689246DB68DC68251D0C
:101470002800B8472000636A9847E369012BEDD143
:10148000A36953449A45DCD2636024610A4B18680F
:1014900029000B4B9847E1E70A4A074910680860A2
:1014A000136001234A461360C1E7C046550C000093
:1014B000F83B0020A9130000C83B00205D0300009A
:1014C00027030000CC3B0020F0B587B04E4F4F4BB8
:1014D0001B681A68002A00D187E0DB681C684C4B47
:1014E000984703A84B4B98470500039B002B00D05F
:1014F00086E0A0420CD2611B474B1868474B9847C7
:10150000474B9847002801D1464B9847424E33E05D
:10151000434B98473D4B1B68DB68DE68301D3A4BF8
:101520009847F369012B13D1B369E11823002A000E
:1015300030003D4DA84701280AD100230093220026
:1015400000213000394CA047002801D172B6FEE7D7
:10155000736A30009847D9E70499A161002906D041
:1015600041180300020020002F4CA04704E072B68F
:10157000FEE720002E4B98472E4D0023002203A9A2
:101580003068A8470028A2D0059C6369002B01D0D1
:10159000201DB84702A81F4B9847039B022BDBD0A6
:1015A000032BE6D0002BE8D1049BA2699446634448
:1015B0001900049B020020001B4DA8470128DBD125
:1015C0002000636A9847E369012BD5D1049BA16988
:1015D0008C4663441A000023009300212000134C22
:1015E000A0470028C8D172B6FEE7094B984703A868
:1015F000084B984705000024039B002B00D17AE795
:10160000074B984782E7C0465D030000C83B0020B7
:10161000450C00000D140000FC3B002041090000B7
:10162000910D0000750100006D120000A91300006B
:10163000E5020000C907000010B5024B1B6800203E
:10164000984710BD003C002010B5024B5B6801209C
:10165000984710BD003C002010B5024B9B6802204B
:10166000984710BD003C002010B5024BDB680320FA
:10167000984710BD003C002010B5024B1B690420A8
:10168000984710BD003C002010B5024B5B69052057
:10169000984710BD003C0020704700000C4B1B68B1
:1016A000002B06D1EFF31083002B07D00022094B4B
:1016B0001A70074A136801331360704772B6BFF39C
:1016C0005F8F0022044B1A700132024B1A70F0E750
:1016D000183C00201C3C002008000020084B1A6821
:1016E000013A1A601B68002B09D1064B1B78002BAE
:1016F00005D00122044B1A70BFF35F8F62B67047AA
:10170000183C00201C3C00200800002070B50C494B
:101710000B6A0478857840780122104080014026C9
:10172000B34303432A40D20180208343134303225F
:10173000224012020348034013430B6270BDC046AF
:1017400000080040FFFCFFFF082803D88000254B5D
:101750001B589F46172044E0234A136A02210B437B
:10176000136200203DE0204A936902210B439361FC
:10177000002036E01C4A138A02210B43138200200A
:101780002FE0194A938A02210B439382002028E01C
:1017900016490B68022213430B60134B9A841900FD
:1017A0000E32CB681A42FCD0104A91680E4BD962B7
:1017B00052689A6200229A8419001032CB681A4249
:1017C000FCD00A4B1B689BB2074A9384002008E0B8
:1017D000054944228B5C022003438B54002000E027
:1017E00000207047901C000000080040203C0020B2
:1017F00030B585B0C222D2001A4B9A601A4A53689B
:101800001E218B43536001236A4613700024174D39
:10181000E0B26946A8470134252CF9D103A8002479
:101820004470012585700470114B98470620114BB8
:101830009847114B9847114B1C725C729C72DC727A
:1018400001956B465C7006236A46137014725472DD
:10185000694600200A4B984700200A4B984705B07C
:1018600030BDC0460008004000400041051A00009D
:101870000D170000491700008918000000040040FF
:10188000AD18000065190000064A936908210B4352
:1018900093610122044B1A7019000B781342FCD19A
:1018A0007047C04600040040000C004070B50600C0
:1018B00004000D782D0205434B78002B02D08023C5
:1018C000DB021D434B7A002B02D080231B031D43F8
:1018D0004868012810D9431E184234D1022830D953
:1018E0000223002201325B009842FBD812023243ED
:1018F000140080235B031D430B7A002B02D080234E
:101900009B031D43134A53785BB2002BFBDB124B46
:101910009847124B1E700F4A53785BB2002BFBDBCB
:101920000C4B9C601A0053785BB2002BFBDB094A1E
:101930005368802149020B401D435560084B98476E
:1019400070BD0022D2E70402344380239B021D4372
:10195000D2E7C046000C00409D160000080C004075
:10196000DD16000010B504000B4A53785BB2002B63
:10197000FBDB0A4B98470A4B1C70074A53785BB253
:10198000002BFBDB044A516880235B020B4353604E
:10199000044B984710BDC046000C00409D16000047
:1019A000040C0040DD16000010B504000F4B9847F2
:1019B0000F4B1C700F4A53881B05180F53880E4994
:1019C0000B40538053880D490B40538011008022F7
:1019D000D2014B881342FCD106494A8803020648CB
:1019E000024013434B80064B984710BD9D160000E4
:1019F000020C0040000C0040FFF0FFFFFFBFFFFFA4
:101A0000DD16000010B50C7824020443024B984701
:101A1000A4B2024B5C8010BDA9190000000C00406C
:101A20007047000010B5054B9847054B9847054B8C
:101A30009847054B9847054B984710BDF117000094
:101A400099160000211A0000211A0000211A000036
:101A5000FEE70000F8B52A4A2A4B9A4211D01A0034
:101A6000294B9A420DD2294A03339B1A9B08013312
:101A70009B000022234822498C58845004329A4209
:101A8000FAD1234A234B9A420AD2D34321495B1805
:101A900003218B4304339B18002102C29342FCD1E3
:101AA0001D4AFF211D4B8B439360FD3990235B0042
:101AB0001B4AD1501B4AD3780325AB43022423434E
:101AC000D370D3780C27BB4308263343D370164B0F
:101AD000987B30229043202210439873997BB9431E
:101AE000314399739A7BAA4322439A730F4A5368EE
:101AF00080210B4353600E4B98470E4B9847FEE7EF
:101B0000DC1C0000000000200C000020040000206D
:101B10000C000020383C002000ED00E00000000038
:101B20000070004100500041004800410040004169
:101B3000ED1B0000891B000080229202014BDA613C
:101B40007047C0460044004110B5002301218024A5
:101B5000A4020133202B09D00A009A402242F8D077
:101B6000074A981802788A430270F2E7054B8022F0
:101B700092029A6051215A5C022002435A5410BDCD
:101B8000404400410044004110B582B00E4B9847DC
:101B90000E4B98470E4B98470E4B009300230122A3
:101BA000FA2189000C480D4CA04704000C4B9847C3
:101BB000020000230093002120000A4CA0470A4B9A
:101BC0009847002002B010BD251A0000F117000050
:101BD000491B0000391B0000B41C00005D1300000D
:101BE000550C0000A9130000E50B000070B500269D
:101BF0000C4D0D4C641BA410A64209D1002600F028
:101C00005DF80A4D0A4C641BA410A64205D170BDB4
:101C1000B300EB5898470136EEE7B300EB5898470E
:101C20000136F2E7C81C0000C81C0000C81C0000F8
:101C3000CC1C0000002310B59A4200D110BDCC5C32
:101C4000C4540133F8E703008218934200D170476F
:101C500019700133F9E770B50400002A00D170BD96
:101C60000D78561E631C25700131002D05D1A41876
:101C70009C42F4D01D700133FAE71C003200ECE7FF
:101C800049444C4500000000546D722053766300B7
:101C9000741700005417000054170000E0170000EC
:101CA0006617000082170000581700009017000008
:101CB000D017000054696D6572000000F8B5C04689
:101CC000F8BC08BC9E467047DD000000F8B5C04671
:0C1CD000F8BC08BC9E467047B500000040
:0C1CDC00AAAAAAAAFFFFFFFF0100000057
:00000001FF
