:10000000805C0020CD240000C9240000C924000029
:1000100000000000000000000000000000000000E0
:1000200000000000000000000000000001070000C8
:1000300000000000000000006D070000B107000094
:10004000C9240000C9240000C9240000C9240000FC
:10005000C9240000C9240000C9240000C9240000EC
:10006000C9240000591E0000691E0000791E00000E
:10007000891E0000991E0000A91E0000C92400006E
:10008000C9240000C9240000C9240000C9240000BC
:10009000C92400000000000000000000C924000086
:1000A000C9240000C9240000C9240000C92400009C
:1000B0000000000010B5064C2378002B07D1054B3B
:1000C000002B02D0044800E000BF0123237010BDC4
:1000D0000C00002000000000A0420000084B10B5FA
:1000E000002B03D00749084800E000BF0748036819
:1000F000002B00D110BD064B002BFBD09847F9E731
:100100000000000010000020A0420000A0420000FB
:1001100000000000F0B5D6464F464646C0B58AB04E
:1001200006000F00140031600800A04B9847A04A59
:10013000116A851C0123AB400B43136209A9237B81
:100140000B701430C5B228009A4B984728009A4B80
:100150009847207B0021994B98473B681C209B07C0
:1001600005D50AB01CBC90469946A246F0BD3B6836
:100170001738DB07F5D430688C4B99469847050053
:100180008F49904B9847AD008F4BEE50002333764C
:10019000737600257383B3832522B55433621433F9
:1001A0003B60336898461800C8478146802308AAF8
:1001B0001370557001239370D570E069276A002889
:1001C00000D1AFE008AB1870022308AA5370000CEE
:1001D000C0B211007D4B9847002F00D1A7E008ABBB
:1001E0001F70022308AA53703F0CF8B21100774B1E
:1001F0009847A38AF380E38A3381237E8022002BF1
:1002000004D1734B9B789B07DB0FDA01A16823694C
:100210000B4313432422A25C002A02D08022D20581
:100220001343A26A13432C22A25C002A03D180222A
:100230009204914202D18022120513432D22A25C26
:10024000002A02D08022120413432E22A25C002A2C
:1002500002D08022D203134342461268134342461F
:10026000136080235B00536048461430C0B2594B82
:1002700098470790FA239B0022685A439146636887
:100280009A46554DA847009001914B465800A84703
:1002900002900391208EA847049005914F4F504A39
:1002A000504B00980199B84702000B00049805993B
:1002B000B8474D4E00224D4BB0470490059148463B
:1002C000A84702000B0004980599B84702000B00EC
:1002D000474D00980199A847029A039BB047002216
:1002E000444BA847029A039B434DA847434B98476A
:1002F000050080239B04A2689A421ED00300402080
:10030000FF2D00D92DE700240020FF251D402406E5
:1003100025430004FF231B04184005434346DD60CA
:1003200000201EE700214046354B98474AE701214F
:100330004046334B9847070051E7FA26B60053462C
:100340005E430098019902000B00274CA0470090E3
:1003500001913000204B984700222A4BB8470200F9
:100360000B0000980199244CA0470022214B204CFF
:10037000A047224B9847041E0CD031000798224B0F
:1003800098470238001B2B00FF2D0CD8FF28BCD942
:100390004020E6E67100481E079B9C4660441A4BCD
:1003A00098470138EFE74020DBE6C046B11D00006A
:1003B0000004004071230000E5220000ED1B000056
:1003C000DD040000ED1D00003C3C0020692400001D
:1003D000002000418D23000049400000B53400009A
:1003E00095D626E80B2E113E2D2800000000244053
:1003F000B53900000000F03F4D2E0000E13F000045
:10040000391C000000000840152700000168072281
:10041000CB691A42FCD1704770B504000668326897
:10042000458B838BED1AADB2838B013B9BB28383EB
:1004300013011DD5C37A002B03D0838B9BB2012BF4
:1004400010D0A38B9BB2002B02D1A37A002B1CD11E
:100450002000124B9847236A5D192823F35CDBB216
:100460002B7070BD72688023DB0213437360E8E772
:10047000C37A002BE5D0838B9BB2002BE1D172684D
:100480008023DB0213437360DBE72000034B9847B4
:100490007268C0239B0213437360D9E70D04000008
:1004A00070B5040005686B8B5B0703D51E222523FE
:1004B000C25470BD468B838BF61AB6B2838B013B58
:1004C0009BB28383044B9847236A9E193378DBB22F
:1004D0002822AB54EDE7C0460D04000070B5800043
:1004E000754BC45825682B681B01DA0F637E267E86
:1004F0001E40638B9BB2002B03D1A38B9BB2002BBE
:1005000023D1638B9BB2002B08D0A38B9BB2002B13
:1005100004D12533E35C052B00D16DE0638B9BB2E6
:10052000002B24D0A38B9BB2002B20D06B8B9B067F
:1005300000D581E0002A04D0A38B9BB2012B00D10F
:100540007AE041222523E25411E02B7EDB0707D518
:1005500001232B766B8B9B072ED541222523E2545A
:10056000A38B9BB263832523E35C052B38D0638B7D
:100570009BB2002B07D0A38B9BB2002B03D125335A
:10058000E35C052B64D02523E35C052B13D02523E6
:10059000E35C002B0FD003232B7500236383A3831D
:1005A0002533E35C412B03D0A37A002B00D075E008
:1005B000730700D57BE070BD6B8B5B07D0D518222D
:1005C0002523E2540023A383A37A002BC8D0200064
:1005D0003A4B98476A68C0239B0213436B60BFE79E
:1005E0001F33E35C002B03D02000354B9847BEE758
:1005F0002000344B9847BAE71F33E35C002B00D050
:100600008CE703332B750023638325330022E254E8
:10061000A37A002B07D101232B76F307A7D5E36834
:1006200020009847A3E72000244B98476A68C0231E
:100630009B0213436B60F0E72423E35C002B03D1A0
:100640002000204B984792E720001D4B98478EE7EB
:100650001F33E35C012B96D12B7E9B0701D5022330
:100660002B7603232B750023638325330022E2546A
:10067000B30703D52423E35C012B0BD0F30700D48D
:1006800081E72423E35C002B00D07CE7E3682000B3
:10069000984778E723692000984774E72000074BC4
:1006A00098476A68E023DB0213436B6080E7636965
:1006B000200098477FE7C0463C3C00200D04000026
:1006C00019040000A1040000064A136818682030CD
:1006D00080F30988022080F314883FBCAE4662B6DE
:1006E00000BDC046C83A002010B5031F8024640432
:1006F0001C60043B1960183B1A60403810BD0000B4
:10070000084B196808681030F0C8A046A946B246E0
:10071000BB4680F309882038F0C871460D2001439C
:100720000847C046C83A002080225205034B1A6091
:10073000BFF34F8FBFF36F8F7047C04604ED00E0EB
:1007400072B6044A136801331360BFF34F8FBFF3CF
:100750006F8F704700000020034A1368013B13604D
:10076000002B00D162B6704700000020EFF3098033
:100770000E4B1A6820381060F0C044464D4656466D
:100780005F46F0C008B572B600F09EFE62B60CBCC3
:10079000116808681030F0C8A046A946B246BB46AA
:1007A00080F309882038F0C81847C046C83A0020AE
:1007B00010B580225205034B1A6072B6024B98475F
:1007C00062B610BD04ED00E0291200000022044BC7
:1007D0001A60044A044B1A600722044B1A607047DF
:1007E00018E000E03F1F000014E000E010E000E02F
:1007F00010B50A4B1968FF2212040A431A601968DF
:10080000FF2212060A431A60054B98470022054B47
:100810001A60054B9847002010BDC04620ED00E04F
:10082000CD07000000000020C906000070B50400DC
:10083000430702D007239C430834114B9847114BC0
:100840001B68002B10D0104B1B68E4180F4A944211
:1008500011D8A34211D20B4A1568ED180A4B1C603F
:100860000B4B9847280070BD07220A4B083393436F
:10087000044A1360E7E70025F2E70025F0E7C046E9
:10088000F911000028000020C43A00208F3A00002F
:10089000451300002C000020002801D072B6FEE7AE
:1008A0007047030008334360012252428260C360F4
:1008B00003610023036070470023036170474368AE
:1008C0005A684A6042688A605A689160596041601B
:1008D0000861036801330360704710B50C68631C3E
:1008E00014D003000833C2681268944204D35B68D2
:1008F0005A6812689442FAD25A684A6091608B60D2
:100900005960086103680133036010BD0369F3E7B0
:10091000436882689A60836842685A6003695A68CB
:10092000904206D0002202611A68013A1A601868E3
:10093000704782685A60F5E710B504001300026C36
:10094000002A0BD10368002B04D14068134B984751
:1009500000236360A36B0133A36310BD002B0DD193
:1009600080680F4B9847A368226C94466344A36049
:1009700062689342EED32368A360EBE7C068084B3C
:100980009847236C5B42E268D218E26021688A4291
:10099000E0D2626894466344E360DBE7D11700006D
:1009A0003D41000010B582B001900A00C46C002CDB
:1009B00005D0A16BE36B994203D372B6FEE772B622
:1009C000FEE7A16B00208B4201D802B010BD01A947
:1009D0002000064B9847636A0020002BF5D02000CA
:1009E0002430034B9847431E9841EEE73909000035
:1009F0000916000070B50C00016800290BD0026CCC
:100A0000C3689B18C3604568AB4200D3C160C1682E
:100A10002000014B984770BD3D410000F8B504002F
:100A2000254B9847A36C002B1EDD244D244E0DE072
:100A3000636A002B18D020002430B047002810D162
:100A4000A36C013BA364A36C002B0DDDE36C002BB6
:100A5000EED000212000A8470128F1D1194B98477A
:100A6000EEE7184B9847EBE701235B42A364164B74
:100A70009847114B9847636C002B16DD2369002BB8
:100A800013D0250010350E4F0E4E08E0636C013B6D
:100A90006364636C002B08DD2369002B05D02800FC
:100AA000B8470028F2D0B047F0E701235B42636407
:100AB000054B9847F8BDC04641070000A509000056
:100AC000091600001D1700005907000070B504004A
:100AD0000D00002820D0174B98472268216CE36B4B
:100AE0004B43D01860600020A063A2605B1AD3184B
:100AF000E36001235B426364A364002D11D1236989
:100B0000002B05D0200010300B4B9847012805D052
:100B10000A4B9847012070BD72B6FEE7084B984714
:100B2000F6E720001030074DA84720002430A847E2
:100B3000EEE7C04641070000091600005907000013
:100B400029070000A308000070B505000E0000286A
:100B500019D050200D4B9847041E14D03000684324
:100B600001300A4B98472060002809D0E5632664CD
:100B700001212000064B98470023E364200070BD4C
:100B80002000044B984772B6FEE7C0462D080000CF
:100B9000CD0A000099080000F0B5CE4600B584B03B
:100BA00004000F0001920093002804D000250029C2
:100BB00003D0404E40E072B6FEE7036C002B01D03C
:100BC00072B6FEE70025F4E7009D2A0039002000F8
:100BD000394B9847E36C002B0ED029002000374B8F
:100BE0009847012801D1364B9847364B984701204A
:100BF00004B004BC9146F0BD636A002BF5D0200020
:100C00002430314B98470128EFD12D4B9847ECE722
:100C10002C4B98470020EBE702A82C4B984715E097
:100C2000002363641BE00023A3641BE02000284B27
:100C30009847284B98470125B047A36BE26B934236
:100C4000C2D3019B002BE3D0002DE5D01D4B98476C
:100C5000214B9847174B9847636C0133E0D0A36C46
:100C60000133E0D0174B984701A902A81B4B9847C6
:100C7000002817D10F4B9847A36B9946E56B114B92
:100C80009847A945D2D1200010300199144B9847BC
:100C900020000F4B98470F4B98470028CBD1084BAB
:100CA0009847C8E720000A4B98470A4B984700200E
:100CB0009EE7C0464107000039090000A509000071
:100CC00029070000590700000916000085160000DA
:100CD0001D0A000045130000F9110000A5160000D0
:100CE0007115000070B5040015001E00002809D021
:100CF000002909D072B6A36B0020E26B934208D39F
:100D000062B670BD72B6FEE7036C002BF2D072B60D
:100D1000FEE732002000164B9847A36C01331ED12A
:100D2000E36C002B0AD031002000124B98470128B9
:100D30001AD1002DE4D001232B60E1E7636A012082
:100D4000002BDDD0200024300B4B984703000120FE
:100D5000002BD5D0002D09D001232B60D0E7A36C48
:100D60000133A3640120CBE70120C9E70120C7E7D5
:100D700039090000A509000009160000F0B5C646B3
:100D800000B584B004000E0001921F00002805D0B9
:100D90000025002904D04A4B984653E072B6FEE77E
:100DA000036C002B01D072B6FEE70025F3E7E5687F
:100DB00031002000434B9847002F1AD1A36B013B11
:100DC000A3632368002B02D13F4B984760602369DF
:100DD000002B07D0200010303C4B9847012801D150
:100DE0003B4B98473B4B9847012004B004BC9046CE
:100DF000F0BDE560636A002BF4D020002430334B53
:100E000098470028EED0324B9847EBE7314B984794
:100E10000020EAE702A8304B98471CE000236364F7
:100E200022E00023A36422E0254B984760682B4B07
:100E30009847284B98472CE02000294B9847294B8E
:100E400098470125C047A36B002BB0D1019B002B15
:100E5000DCD0002DDED01F4B9847234B9847184B12
:100E60009847636C0133D9D0A36C0133D9D0194BA7
:100E7000984701A902A81D4B9847002818D1104B8C
:100E80009847A56B134B9847002DD5D12368002BAD
:100E9000CAD0200024300199154B98472000104BF0
:100EA0009847104B98470028CBD1094B9847C8E783
:100EB00020000B4B98470B4B9847002095E7C04606
:100EC00041070000F509000029170000091600007D
:100ED000290700005907000085160000551700007B
:100EE0001D0A000045130000F9110000A5160000BE
:100EF0007115000070B504000D000E4B9847636C2F
:100F000001330BD0A36C01330BD00B4B9847A36B71
:100F1000002B09D02000094B984770BD0023636463
:100F2000F0E70023A364F0E7200024302900044BFD
:100F30009847EFE741070000590700001D0A00002D
:100F4000C915000010B504000E4B1B6858600E4B0D
:100F50001B6898420DD30D4B18680A4B1968043171
:100F60000B4B98470B4B1B689C4209D2094B1C60EA
:100F700006E0094B1868034B19680431044B984785
:100F800010BDC046C83A0020C43B0020CC3A002027
:100F9000DB08000004000020D03A0020F0B5D6465F
:100FA0004F4680B583B005000091160001930A9B5F
:100FB00099460C9F002803D0042B03D972B6FEE794
:100FC00072B6FEE740205A4B9847041E0CD0002F03
:100FD00000D078E0B000564B9847071E206300D041
:100FE00072E02000534B9847012040425AE00B9B8F
:100FF000002B00D01C60504B9847504A13680133B7
:1010000013604F4B1B68002B51D14D4B1C60136874
:10101000012B1FD14B4E30004B4DA84730001430F0
:10102000A84730002830A84730003C30A84730009F
:101030005030A847454F3800A847454E3000A847D4
:101040004448A8474448A8474448A847444B1F6021
:10105000444B1E60E36A444A1268934201D9424AF3
:10106000136042490A6801320A60414A1268934299
:1010700001D93F4A13609A00D3189B003148C01829
:1010800000993C4B98473C4B98473C4B1B680120D0
:10109000002B07D02A4B1B68DB6A994502D9384BD5
:1010A0009847012003B00CBC91469A46F0BD334BE3
:1010B0001B68002BCED1224B1B68DB6A9945C9D334
:1010C0001F4B1C60C6E70763B200A52138002D4BFB
:1010D00098472D4BF3189B00226B944663440726D8
:1010E000B3439A462000343008220099274B984792
:1010F00000223B23E2544B46E362E363231D00934B
:101100001800234FB84720001830B8472461052342
:101110004A469B1AA3616462019A290050461D4BFE
:1011200098472060304200D161E772B6FEE7C046C2
:101130002D0800009908000041070000383B0020FE
:10114000C83A0020D43A0020A3080000543B0020F5
:10115000683B0020843B0020B03B00209C3B0020EB
:10116000CC3A0020D03A0020503B0020443B0020E5
:101170004C3B0020BF08000059070000983B0020AE
:10118000290700004F410000FFFFFF3F5F410000C3
:10119000B9080000E906000010B584B000230393ED
:1011A00002930193009364220C490D480D4CA04713
:1011B000012803D000280ED172B6FEE70A4B9847EB
:1011C0000128F7D172B60122084B1A600022084BA1
:1011D0001A60084B984704B010BDC0468841000013
:1011E000391400009D0F0000C9180000983B002032
:1011F000C43B0020F1070000024A1368013313606A
:101200007047C046403B002010B5044B9847044B44
:101210001C68044B9847200010BDC04641070000E1
:10122000C43B002059070000F8B53B4B1B68002B5E
:101230006DD13A4B1A6801321A601B68002B18D125
:10124000374B1B681B68002B01D072B6FEE7344B8E
:101250001968344A10681860116033490A6801320D
:101260000A601B681B68002B1AD1012252422F4BC7
:101270001A602A4B1A682D4B1B689A424BD3284B95
:101280001B681B68002B13D0254B1B68DB68DC68D0
:101290006368224A126893420FD8254F254E25E0F5
:1012A0001F4B1B68DB68DB685A68204B1A60E0E75D
:1012B000012252421D4B1A602DE01C4A13602AE0A5
:1012C0009800C01880001C4B181829001B4B984729
:1012D000134B1B681B68002BEAD0114B1B68DB68A3
:1012E000DC6863680D4A12689342E6D8251D280021
:1012F000B847A36A002B03D0200018300C4B984746
:10130000E36A32689342DBD90A4A1360D8E70C4A91
:10131000136801331360F8BD403B0020C43B00203C
:10132000CC3A0020D03A0020803B0020040000206E
:10133000110900004C3B0020D43A0020BF080000F7
:101340003C3B0020F8B52E4B1B68002B01D172B638
:10135000FEE72C4B98472A4B1A68013A1A601B6823
:101360000024002B03D1284B1B68002B03D1274BF3
:1013700098472000F8BD264D2B68002B21D0244B28
:10138000DB68DF6838001830224B98473E1D30007C
:10139000204B9847FB6A204A1268934201D91E4AA3
:1013A00013609800C01880001C4B181831001C4BAB
:1013B00098471C4B1B68FA6ADB6A9A42DCD301240B
:1013C000DAE7194B1B68002B13D0174B1B68002B57
:1013D00008D0164D144CA8472368013B23602368AE
:1013E000002BF8D10022124B1A60124B98470124AF
:1013F000BDE7012CF6D00E4B1B68012BB7D1F1E7EE
:10140000403B002041070000383B00205907000006
:10141000843B0020110900004C3B0020D43A0020FE
:10142000BF080000C83A00203C3B00202912000001
:101430007C3B002029070000F8B5CE46474680B522
:10144000164B9846164F174E26E0174B1B68012B7C
:1014500020D82B68002BF8D0C0473C68B047002C40
:10146000F7D0124B98470E4BDB68DC68201D104B01
:101470009847104A1368013B13600F4A1368013BF9
:1014800013600E4B9847206B0D4B994698472000F0
:10149000C847DEE70B4B9847074DDAE7F911000024
:1014A000B03B002045130000D43A00204107000063
:1014B00011090000383B0020483B0020590700007C
:1014C000990800002907000010B5244B1B68002B69
:1014D0001ED1234B1A6893009B189B00214A9B58EE
:1014E000002B19D11E4B1B68002B0FD01C4A1D4C22
:1014F00010001368013B136011688B005B189B00A0
:101500001B59002B08D10368002BF2D172B6FEE7FD
:101510000122154B1A6010BD114B1A681148930037
:101520009918890041184C6864684C609B189B00AE
:101530000833C3189C4209D093009A189200094BB3
:101540009A185368DA68094B1A60E4E760689300F8
:101550009B189B000349CB185860EDE7403B0020E7
:101560004C3B0020D43A00207C3B0020C83A0020AD
:1015700070B50C00002810D00C4D296818310C4BA8
:101580009847286804300B4B9847631C07D00A4BD8
:1015900018682018094B984770BD72B6FEE7034BD8
:1015A000196804310648074B9847F5E7C83A002008
:1015B000DB08000011090000C43B0020450F0000BB
:1015C0009C3B0020BF08000070B50D00002801D131
:1015D00072B6FEE7074C21681831074B9847206820
:1015E0000430064B9847064B18684019054B98473E
:1015F00070BDC046C83A0020BF08000011090000B5
:10160000C43B0020450F000070B5C368DC68002CA7
:1016100023D0250018352800134B9847134B1B681F
:10162000002B1CD1251D28000F4B9847E36A104A58
:101630001268934201D90E4A13609800C0188000C6
:101640000C4B181829000C4B98470C4B1B68E26A8E
:10165000DB6A00209A42404170BD72B6FEE7290065
:101660000748054B9847F0E711090000403B002070
:101670004C3B0020D43A0020BF080000C83A0020AC
:10168000843B0020002806D0044B1B680360044BF9
:101690001B684360704772B6FEE7C046803B00207F
:1016A000C43B002070B504000E0000281CD00029A7
:1016B0001CD0154B984733685A1C22D0134A126825
:1016C0002168914205D0124A126801256168914251
:1016D00006D90F4A11686068091A01258B4207D89C
:1016E0000C4B9847280070BD72B6FEE772B6FEE755
:1016F0001268121A9B1A33602000074B9847002586
:10170000EEE70025ECE7C04641070000803B0020E3
:10171000C43B002059070000851600000122014B40
:101720001A6070477C3B0020014B18687047C04628
:10173000C83A0020054B1B680020002B04D0044B46
:101740001868431E984101307047C046983B0020FE
:10175000403B002070B5041E17D0C26A174B1B68AF
:10176000DB6A9A4211D2154B1B68D96A05235B1AB2
:10177000836193009B189B00114AD31842699A42D7
:1017800004D00E4B1B68DB6AC36270BD051D2800C8
:101790000C4B9847094B1B68DB6AE3620A4A1268E4
:1017A000934201D9084A13609800C0188000044B86
:1017B00018182900054B9847E7E7C046C83A0020AB
:1017C000D43A0020110900004C3B0020BF08000063
:1017D00070B5041E1AD0C36AC26B934216D0051DA1
:1017E00028000B4B9847E06BE06205231B1AA361AE
:1017F000084B1B68984201D9064B186083001818E3
:101800008000054B18182900044B984770BDC0464E
:10181000110900004C3B0020D43A0020BF08000012
:1018200010B54160006191420BD8D21A012483693E
:101830009A4211D2011D094B1868094B98470024A0
:101840000AE09A4202D20124994205D2011D054BB9
:101850001868034B98470024200010BDCC3B0020A3
:10186000DB080000C83B002070B50E4B98470E4BBC
:101870001B68002B02D00D4B984770BD0C4D280003
:101880000C4EB0470C4C2000B0470C4B1D600C4B6D
:101890001C6000220C2102200A4B9847024B186062
:1018A000E9E7C04641070000FC3B00205907000063
:1018B000D03B0020A3080000E43B0020C83B0020F0
:1018C000CC3B0020490B000010B584B00B4B98476F
:1018D0000B4B1B68002B0FD0002303930293019343
:1018E000023300930023502206490748074CA047C3
:1018F000002801D004B010BD72B6FEE769180000E0
:10190000FC3B0020904100007D1A00009D0F00006C
:10191000F0B5C64600B580460D0017001E00002930
:1019200001D172B6FEE72820094B9847041E0BD060
:10193000084B984743462360A561E7612662069BF2
:101940006362201D044B9847200004BC9046F0BD04
:101950002D08000069180000B908000030B585B0F6
:101960001D00134B1C68002C20D0019102920390A3
:10197000002D07D000232A0001A920000D4CA0470C
:1019800005B030BD0C4B9847012807D0084B1868AC
:101990000023002201A9094CA047F1E7044B186875
:1019A0000023089A01A9054CA047E9E70020E7E7D2
:1019B000FC3B0020E50C000035170000990B0000EF
:1019C000F0B5D6464F464646C0B582B08146244B58
:1019D00098478046234B1B68984217D300234A46FA
:1019E0001360204B42461A60404602B01CBC904631
:1019F0009946A246F0BD00230093524600212000E4
:101A0000194CA047002803D172B6FEE7174E184FB5
:101A100033681A68002A19D0DA6812689246DB68BF
:101A2000DC68251D2800B8472000636A9847E369F1
:101A3000012BEDD1A36953449A45DCD26360246144
:101A40000A4B186829000B4B9847E1E70A4A0749F7
:101A500010680860136001234A461360C1E7C0465E
:101A600009120000F83B00205D190000C83B00206F
:101A700011090000DB080000CC3B0020F0B587B066
:101A80004E4F4F4B1B681A68002A00D187E0DB6875
:101A90001C684C4B984703A84B4B98470500039B89
:101AA000002B00D086E0A0420CD2611B474B186887
:101AB000474B9847474B9847002801D1464B9847DA
:101AC000424E33E0434B98473D4B1B68DB68DE6872
:101AD000301D3A4B9847F369012B13D1B369E118D4
:101AE00023002A0030003D4DA84701280AD10023D9
:101AF0000093220000213000394CA047002801D17A
:101B000072B6FEE7736A30009847D9E70499A1617D
:101B1000002906D041180300020020002F4CA047E6
:101B200004E072B6FEE720002E4B98472E4D0023AE
:101B3000002203A93068A8470028A2D0059C636949
:101B4000002B01D0201DB84702A81F4B9847039BCC
:101B5000022BDBD0032BE6D0002BE8D1049BA2693B
:101B6000944663441900049B020020001B4DA847C3
:101B70000128DBD12000636A9847E369012BD5D1A6
:101B8000049BA1698C4663441A0000230093002142
:101B90002000134CA0470028C8D172B6FEE7094BBD
:101BA000984703A8084B984705000024039B002B87
:101BB00000D17AE7074B984782E7C0461109000039
:101BC000C83B0020F9110000C1190000FC3B0020B7
:101BD000F50E000045130000290700002118000041
:101BE0005D190000990800007D0D000010B582B05D
:101BF00004000E4B1B78002B07D0002905D10B4B9E
:101C00005B78834210D01D200CE001A90C701320DA
:101C1000074B98471320074B9847044B5C700122F1
:101C20001A70002002B010BD0020FBE7003C00202D
:101C300071230000E5220000404B984231D00AD9C0
:101C40003F4B98424DD03F4B98425AD03E4B984222
:101C500037D0002070473D4B98420CD03C4B984207
:101C6000F7D1012917D000295DD0022915D0032909
:101C700015D00020EEE7012907D0002951D0022914
:101C800005D0032905D00020E4E73248E2E73248D6
:101C9000E0E73248DEE73248DCE73248DAE732484C
:101CA000D8E7012907D000293FD0022905D0032910
:101CB00005D00020CEE72D48CCE72D48CAE72D48B7
:101CC000C8E7012907D0002931D0022905D003290E
:101CD00005D00020BEE72848BCE72848BAE72848D6
:101CE000B8E7012907D0002923D0022905D003290C
:101CF00005D00020AEE72348ACE72348AAE72348F5
:101D0000A8E7012907D0002915D0022905D0032909
:101D100005D000209EE71E489CE71E489AE71E4813
:101D200098E71E4896E7032094E71D4892E71D4870
:101D300090E71D488EE71D488CE7C0460010004222
:101D400000180042001C004200140042000800423B
:101D5000000C00420300050003000600030007001A
:101D60000300010003001E0003001F000300090020
:101D700003000A0003000B0003001100030012001F
:101D80000300130003000D0003000E0003000F000A
:101D900003001700030018000300190003000400EB
:101DA000030008000300100003000C0003001600ED
:101DB00030B587B00B4B6A4632CB32C232CB32C21F
:101DC000009B83420BD001239A00694652588242FD
:101DD00006D00133062BF7D1002007B030BD002319
:101DE000D8B2FAE79841000070470000F0B50A4BFE
:101DF0001B78002B0CD1094F094E0A4D0024DE51EF
:101E00005A1914600433182BF9D10122024B1A70AD
:101E10008000024BC150F0BD023C0020043C002079
:101E2000E91D00003C3C002000B583B009236A4650
:101E3000137001335370013393700133D370013346
:101E4000137101335371034B98476B46185603B017
:101E500000BDC046B11D000010B5024B1B6800203C
:101E6000984710BD043C002010B5024B5B68012070
:101E7000984710BD043C002010B5024B9B6802201F
:101E8000984710BD043C002010B5024BDB680320CE
:101E9000984710BD043C002010B5024B1B6904207C
:101EA000984710BD043C002010B5024B5B6905202B
:101EB000984710BD043C0020704700000C4B1B6885
:101EC000002B06D1EFF31083002B07D00022094B23
:101ED0001A70074A136801331360704772B6BFF374
:101EE0005F8F0022044B1A700132024B1A70F0E728
:101EF0001C3C0020203C002008000020084B1A68F1
:101F0000013A1A601B68002B09D1064B1B78002B85
:101F100005D00122044B1A70BFF35F8F62B6704781
:101F20001C3C0020203C00200800002010B50828A0
:101F300003D880001B4B1B589F46002030E01A4BF3
:101F400018692DE0194B1B6A9B059B0F1848D84058
:101F500026E0154B586923E0134B1B6800209B07B4
:101F60001ED512491022CB681A42FCD00E4B1B68BA
:101F70005B0701D40F4813E000200F4B98470A4B32
:101F80009B681B041B0C58430AE05023074AD35C90
:101F900000205B0704D5044BD86801E080200002D4
:101FA00010BDC046B0410000243C002000080040A5
:101FB00000127A00006CDC028D23000070B50C4921
:101FC0000B6A047885784078012210408001402611
:101FD000B34303432A40D2018020834313430322A7
:101FE000224012020348034013430B6270BDC046F7
:101FF00000080040FFFCFFFF082803D88000254BA5
:102000001B589F46172044E0234A136A02210B43C2
:10201000136200203DE0204A936902210B43936143
:10202000002036E01C4A138A02210B431382002051
:102030002FE0194A938A02210B439382002028E063
:1020400016490B68022213430B60134B9A84190044
:102050000E32CB681A42FCD0104A91680E4BD962FE
:1020600052689A6200229A8419001032CB681A4290
:10207000FCD00A4B1B689BB2074A9384002008E0FF
:10208000054944228B5C022003438B54002000E06E
:1020900000207047D441000000080040243C00208C
:1020A00030B585B0C222D2001A4B9A601A4A5368E2
:1020B0001E218B43536001236A4613700024174D81
:1020C000E0B26946A8470134252CF9D103A80024C1
:1020D0004470012585700470114B98470620114B00
:1020E0009847114B9847114B1C725C729C72DC72C2
:1020F00001956B465C7006236A4613701472547225
:10210000694600200A4B984700200A4B984705B0C3
:1021100030BDC0460008004000400041712300006F
:10212000BD1F0000F91F000039210000000400401D
:102130005D21000015220000064A936908210B4327
:1021400093610122044B1A7019000B781342FCD1E1
:102150007047C04600040040000C004070B5060007
:1021600004000D782D0205434B78002B02D080230C
:10217000DB021D434B7A002B02D080231B031D433F
:102180004868012810D9431E184234D1022830D99A
:102190000223002201325B009842FBD81202324334
:1021A000140080235B031D430B7A002B02D0802395
:1021B0009B031D43134A53785BB2002BFBDB124B8E
:1021C0009847124B1E700F4A53785BB2002BFBDB13
:1021D0000C4B9C601A0053785BB2002BFBDB094A66
:1021E0005368802149020B401D435560084B9847B6
:1021F00070BD0022D2E70402344380239B021D43BA
:10220000D2E7C046000C0040BD1E0000080C004094
:10221000FD1E000010B504000B4A53785BB2002B82
:10222000FBDB0A4B98470A4B1C70074A53785BB29A
:10223000002BFBDB044A516880235B020B43536095
:10224000044B984710BDC046000C0040BD1E000066
:10225000040C0040FD1E000070B504001A4A5378BB
:102260005BB2002BFBDB194B9847194B1C70164ACD
:1022700053785BB2002BFBDB134E7068C004C00EBA
:10228000144B98470500124B1C707668F602F60F47
:10229000114B1C700C4A53785BB2002BFBDB0A4BD2
:1022A0009C682402240C0D4B9847002E07D1012C6A
:1022B00007D9210028000A4B9847050001E00134A6
:1022C000E540280070BDC046000C0040BD1E000067
:1022D000040C00402D1F0000080C0040FD1E0000F3
:1022E0001527000010B50400064B9847064B1C70DC
:1022F000064A53888021C9010B435380044B9847F9
:1023000010BDC046BD1E0000020C0040000C004085
:10231000FD1E000010B504000F4B98470F4B1C70BA
:102320000F4A53881B05180F53880E490B405380E2
:1023300053880D490B40538011008022D2014B88F5
:102340001342FCD106494A8803020648024013435F
:102350004B80064B984710BDBD1E0000020C00408C
:10236000000C0040FFF0FFFFFFBFFFFFFD1E00005D
:1023700010B50C7824020443024B9847A4B2024BD8
:102380005C8010BD15230000000C004010B5040057
:10239000064B9847064B1C70064B5C882405240F9F
:1023A000054B98472000054B984710BDBD1E000007
:1023B000020C0040000C0040FD1E000059220000ED
:1023C00030B5D378002B35D11378802B29D01B065C
:1023D00080246402234354780225AC4306D19478C8
:1023E000002C20D18024A402234341605478013C76
:1023F000012C1CD90D042D0CA024E4052C431C43F6
:1024000084620D0CD02424062C431C438462D478AF
:10241000002C22D15B031CD59378012B1ED0416187
:1024200017E00023D7E7C024E4022343DDE70D4C87
:102430002340DFE741600C04240CA023DB05234389
:1024400083620C0CD0231B0623438362D378002BBA
:1024500003D15378013B012B02D930BD8161F8E7EC
:102460008160FAE7FFFFFBFF10B50A00C1090023F6
:10247000002904D14309DB0105498C4663441F242C
:102480002040012181401800024B984710BDC046F2
:1024900000440041C12300007047000010B5054B07
:1024A0009847054B9847054B9847054B9847054B70
:1024B000984710BDA1200000B91E0000992400001B
:1024C0009924000099240000FEE70000F8B52A4A8C
:1024D0002A4B9A4211D01A00294B9A420DD2294A0E
:1024E00003339B1A9B0801339B0000222348224997
:1024F0008C58845004329A42FAD1234A234B9A4290
:102500000AD2D34321495B1803218B4304339B1820
:10251000002102C29342FCD11D4AFF211D4B8B4377
:102520009360FD3990235B001B4AD1501B4AD3783E
:102530000325AB4302242343D370D3780C27BB433A
:1025400008263343D370164B987B302290432022C9
:1025500010439873997BB943314399739A7BAA438B
:1025600022439A730F4A536880210B4353600E4BEA
:1025700098470E4B9847FEE7A0420000000000205D
:102580000C000020040000200C0000207C3C0020F7
:1025900000ED00E00000000000700041005000412C
:1025A0000048004100400041F5400000A92600001D
:1025B00030B58FB001AA64230193204B53600023F0
:1025C00093601373137680218903116101214942BD
:1025D0009182D3611362253153549362083153546D
:1025E0000131535401315354D7331386144BD382E2
:1025F000144C15492000154B984724680722E369BD
:102600001A42FCD123680222134323600D4D28682F
:102610000F4B98471F2318401E3B83400D4A136001
:10262000E88800231021628B0A4204D101338342DF
:10263000F9D3102363830FB030BDC046480D0000AE
:1026400010270000543C002000100042150100003B
:10265000291E000000E100E080229202014BDA61B5
:102660007047C0460044004110B50023012180247A
:10267000A4020133202B09D00A009A402242F8D04C
:10268000074A981802788A430270F2E7054B8022C5
:1026900092029A6051215A5C022002435A5410BDA2
:1026A000404400410044004110B582B00F4B9847B0
:1026B0000F4B98470F4B98470F4B98470F4B009382
:1026C00000230122FA2189000D480E4CA047040086
:1026D0000D4B9847020000230093002120000B4C73
:1026E000A0470B4B9847002002B010BD9D2400006E
:1026F000A120000069260000B12500005926000035
:10270000F841000011190000091200005D190000D5
:1027100099110000002243088B4274D303098B42B5
:102720005FD3030A8B4244D3030B8B4228D3030CA1
:102730008B420DD3FF22090212BA030C8B4202D343
:102740001212090265D0030B8B4219D300E0090A6B
:10275000C30B8B4201D3CB03C01A5241830B8B4274
:1027600001D38B03C01A5241430B8B4201D34B035D
:10277000C01A5241030B8B4201D30B03C01A5241C2
:10278000C30A8B4201D3CB02C01A5241830A8B4247
:1027900001D38B02C01A5241430A8B4201D34B0230
:1027A000C01A5241030A8B4201D30B02C01A524194
:1027B000CDD2C3098B4201D3CB01C01A5241830948
:1027C0008B4201D38B01C01A524143098B4201D382
:1027D0004B01C01A524103098B4201D30B01C01AAD
:1027E0005241C3088B4201D3CB00C01A5241830827
:1027F0008B4201D38B00C01A524143088B4201D354
:102800004B00C01A5241411A00D2014652411046B3
:102810007047FFE701B5002000F006F802BDC04692
:102820000029F7D076E770477047C046F8B54546AF
:10283000DE4657464E460C03E0B54E00C90F8846AB
:102840000D00610A440F0C43C70019035800DB0F49
:102850009B464B0A510F0B43760D400D1900D200D9
:10286000D84500D1AEE0351A002D00DCF6E0002896
:102870000FD1134300D1DBE06B1E002B00D037E1FA
:10288000BA1A9742BF41641A7F42E41B012617001F
:1028900024E0C64B9E424DD080231B041943382DA3
:1028A00000DD07E11F2D00DD38E12020431B9A46A3
:1028B0000B0050468340994613004846EB401843AE
:1028C000030050468240501E8241E9401A43BA1A22
:1028D000611A9742A441170064420C1B230262D57F
:1028E0006402650A002D00D1DFE0280001F0E4FB5E
:1028F0000300083B1F2B00DDD2E020223C00D21A4F
:102900009D40D4409F4025439E4200DDC4E09E1B75
:10291000731C1F2B00DDF1E0202238002900D21AA1
:10292000D840914097402C000143781E8741DC40FD
:1029300000260F437B0709D00F233B40042B05D013
:102940003B1DBB42BF417F42E4191F0023022CD52F
:10295000964B01369E4200D19AE04546944BFF08C3
:102960001C406007760564020743240B760D0021A6
:102970002403230B0C0D8F4A24051C4314403305FC
:1029800023435B00ED075B082B43380019003CBC78
:1029900090469946A246AB46F8BD6446044300D132
:1029A00011E2040067467B07C6D145466007FF0871
:1029B0000743E4087D4B9E4230D024037605240B68
:1029C000760DD4E7331A9A46002B78DD002831D0F3
:1029D00076488642AED08020000401435346382B0F
:1029E00000DCE9E00A43511E8A410021D219BA42B3
:1029F000BF4109197C4217000C192302D3D56B4B38
:102A000001369E4200D13AE10120694B1C407B080F
:102A100007401F43E007074364088BE723003B435D
:102A200000D1CBE18022120314432403240B9EE740
:102A30002E007FE70800104300D1B4E0581E0028A4
:102A400000D0DEE0BA18BA429B4164185B42E41839
:102A5000170001262302A6D50226D5E7002D6ED148
:102A6000701C4005400D012800DCF9E0B81A8446CE
:102A700087428041E51A40422D1A280200D489E09D
:102A8000D71BBA4292411C1B5242A51AD84629E7CD
:102A90004546002400276AE7454CF61A2C4049E7D2
:102AA0003D002838854000272EE7380001F004FB60
:102AB00020301DE70A43511E8A41002107E7002B01
:102AC00000D0F3E0701C43055B0D012B00DCADE092
:102AD000364B984200D1D1E0BA18BA42BF416418CF
:102AE0007F42E419E707520817436408060021E70C
:102AF0002E48854200D193E01D00D0E629001F3EFC
:102B0000F140202B00D18DE04022D31A9D402F436D
:102B10007D1EAF4100240F43002644E72B00080030
:102B2000203BD8400300202D00D17DE04020451BF4
:102B3000A9400A43511E8A4100211A43C7E6002ECC
:102B400050D01A4EB04257D080266B429946360478
:102B500034434B46382B00DDD6E01F2B00DD35E13A
:102B60002026F51A2600AE40B2463E00DE40AC46B6
:102B7000350056462E436546AF407D1EAF41DC40D2
:102B80003743D71BBA4292410C1B5242A41A06008B
:102B9000D846A3E6644667462C4300D0A2E600254B
:102BA0000026002706E71E00C4E6C046FF07000017
:102BB000FFFF7FFFFFFF0F801F2B63DC2020C31A66
:102BC000080098409C46834653461000D8400300B6
:102BD0005846184363469A40531E9A41534602434F
:102BE000D94003E726003E4306D0EB439946002B2D
:102BF000C7D0944EB042ACD10C0017000600D846A6
:102C000098E6904B9A450BD08246E7E6002800D024
:102C10009EE01800104300D1E9E01C001700D846E0
:102C2000884E87E6002572E7002182E723003B43B8
:102C3000002E00D0ABE0002B00D1E7E00B001343E7
:102C400000D177E6BA18BA42BF4164187F42E4194E
:102C5000230200D4F2E07C4B17001C40060069E61A
:102C600020003843002ED1D100285BD11C00144332
:102C700000D1A8E01C001700D8465BE6060000243F
:102C8000002797E650460B002038C340994653462C
:102C9000202B00D195E0402350461B1A99400A434F
:102CA000511E8A414B4600211A439FE6002E30D127
:102CB00026003E4367D0DB439A46002B1CD0614E72
:102CC000B04260D05346382B00DD96E01F2B00DD6C
:102CD0009FE02026F31A26009E409C46B3465346AA
:102CE0003E00DE4033005E461E4363469F407B1E2F
:102CF0009F415346DC403743BF18974292416418C6
:102D00005242A418060078E627437C1EA7410024FF
:102D100037E74C4EB04236D080265B4236049A46A6
:102D20003443CFE71800104300D103E6B81A8446B5
:102D30006745AD41E01A6D42401B050200D42CE608
:102D4000D71BBA4292411C1B5242A41AD846F1E545
:102D50001800104300D163E7F80867070743802095
:102D6000E4080003044208D0DD08054205D1D2087A
:102D7000590711430F002C00D8467B0FE4001C4379
:102D8000FF00304ED6E50C0017000600D2E5002B00
:102D900038D00B00134300D142E7F8086707074318
:102DA0008020E40800030442E7D0CB080342E4D1CA
:102DB000D208490711430F001C00DEE7002700245A
:102DC000D5E500216BE700250027F3E54E462500F9
:102DD000203EF5404B462E00202B2DD04025ED1AED
:102DE000AC4027437C1EA74100243743C9E680241A
:102DF00000252403134E0027DCE527437C1EA74152
:102E0000002479E70C0017000E4E93E50C00170024
:102E100090E556462300203EF34099465346202B2A
:102E20000ED0402356469B1B9C4027437C1EA74147
:102E30004B4600241F435FE70024D2E71700B2E5AA
:102E40000024F2E7FF070000FFFF7FFFF0B55746C1
:102E50004546DE464E46E0B54C000E0387B083463D
:102E600092461D008046360B640DCF0F002C4FD0CC
:102E70006F4B9C4235D08023420F1B04F600134356
:102E800033439946C30098466A4B00269C4600236C
:102E9000644403932B031B0B9B466B00ED0F5046C2
:102EA0005B0D01955ED0624A934253D05A46D100E1
:102EB0008022400F120402430A4393465246D10037
:102EC0005C4A94460022634438006840844602907D
:102ED000E41A16430F2E00D9B4E0574BB6009B59A5
:102EE0009F460300334399466CD100239846023332
:102EF00008260393CEE7CB464146039A0197022A60
:102F000065D1019B4A4C9C460023002298466BE009
:102F10000300334399464ED0002E00D1BCE130006F
:102F200001F0CAF803000B3B1C2B00DDACE11D22B5
:102F3000D31A5A460100DA4008398E401300334351
:102F400099465B468B40984600233C4C0026241A49
:102F500003939FE751465A46114329D100229346D5
:102F60000232B1E7594601431ED05B46002B00D127
:102F70009EE1584601F0A0F803000B3B1C2B00DD3E
:102F80008FE102005946083A91408B461D21CB1A29
:102F90005146D9400B0059460B4351469B46914040
:102FA000264B00221B1A8FE7002301229B468BE74A
:102FB0005146032288E70023984601330426002463
:102FC000039367E70323B14603930C2662E7032AC2
:102FD00000D15CE2019B012A00D0E4E113409C4651
:102FE000002300240022984600211203130B0A0D2F
:102FF00012051A432305124C4046224013436246F1
:103000005B00D2075B081343190007B03CBC904635
:103010009946A246AB46F0BD002380229C4612038F
:103020009846034CE0E70023014C00229846DBE77A
:10303000FF07000001FCFFFF004200000DFCFFFF46
:10304000FFFF0F80D94500D939E100D134E10023D9
:1030500046464D469A46013C5B460A0E1B021A4301
:103060000B02170C039313041B0C39002800904625
:103070000193FFF74FFB0200019B83465A43280050
:1030800039009146FFF7CCFB350C09040D43A945E7
:103090000DD95B464544013BA84500D93AE1A94515
:1030A00000D837E102235B429C464544E3444B464B
:1030B000EB1A390018000493FFF72CFB019B050065
:1030C0004343390004989946FFF7AAFB33040904E7
:1030D0001B0C0B43994509D943446A1E984500D9F6
:1030E0001AE1994500D817E1023D43444A469B1A2C
:1030F0005A4612042A4303999346100C0A0C91462F
:1031000009045A46090C4E460D001204120C4543A0
:10311000059151437243704352190E0CB2189542F7
:1031200003D980256D02AC466044150C09041204D5
:10313000090C28185218834200D2CEE000D1C8E012
:103140001D1A53469E1AB24592415242AB1A9A46F4
:10315000984500D117E139001800FFF7DBFA019B11
:1031600005004343390050460493FFF759FB049888
:103170000B04310C1943884209D941446B1E884520
:1031800000D907E1884200D804E1023D4144049B94
:10319000CB1A180039000493FFF7BCFA019B824652
:1031A0004343390004980193FFF73AFB01980B045D
:1031B0003104090C194388420DD953464144013B5F
:1031C000884500D9E8E0884200D8E5E002235B4268
:1031D0009C464144E244019B2D04CE1A51462943AA
:1031E000059D4F462A000B04080C1B0C5A4345430F
:1031F0007B4378435B19170CFB189D4203D980254C
:103200006D02AC4660441D0C12041B04120C2818FD
:103210009B18864200D293E000D18EE0012319432F
:10322000A04BE318002B00DC99E04A0700D09EE099
:103230005A46D20106D55A469B4B1A4080239346E4
:10324000DB00E318994A934268DD0123029A984C07
:103250001A400023944698460022C5E680224B4639
:10326000120313420AD05B46134206D11A431203DB
:10327000120BAC4688468E4CB6E64B461A431203F8
:10328000120BBC468A4CAFE603005A46283B9A40D4
:1032900000239146984657E6584600F00DFF20302F
:1032A00040E603005246283B9A400021934677E6C9
:1032B00000F002FF20305FE6884500D2C7E64B46AB
:1032C000DE075D0843465B081E434346DB079A461C
:1032D000C2E60025924500D333E7039E5946B44623
:1032E000E244B245AD416D424544EB180139984581
:1032F00007D2984200D97FE000D1BCE01D1A8B466E
:103300001FE79845FAD1039D5545F2D943468B46B0
:103310001D1A16E79B46CAE61500E7E65A46C90895
:1033200052070A435B0590465C0D5A4601230299F9
:1033300052021940120B8C4656E6002B00D16FE763
:1033400046444A1EB04529D91100864200D065E79F
:10335000039A934200D061E762E7012149420120CC
:10336000C21A382A21DD029B03409C4638E60F2210
:103370000A40042A00D15BE70A00111D91429241E4
:103380005242934454E7474BE318002BE5DD0122FA
:103390005242F2E71D00FAE69A461CE7B04239D8DD
:1033A0006ED011003AE702933AE71F2A3CDC202353
:1033B0009B1A0C005846994098404B1E99415B4619
:1033C000D440D340204308431A00430709D00F23B9
:1033D0000340042B05D00100081D88429B415B423D
:1033E000D21813023AD50123029A01241A4000236D
:1033F000944698460022F7E5022149428C46039DF7
:10340000E344AC46E244AA45AD416D424544ED1863
:103410002D1A96E68A1E03994D008D428941494234
:103420004144761803958FE71F204042C31A58463F
:10343000D8400300202A28D040205D46821A9540BB
:1034400029434A1E91411943072300220B4009D00A
:103450000F2300220B400800042BBDD101005307AD
:103460005202120BC908194301238846029900240D
:1034700019408C46B8E55245BED88B46002560E61B
:10348000039D9D42C6D3110062E70025D8E7802244
:103490005B4612031A43019B1203120B9C4688469B
:1034A000034CA1E5FF030000FFFFFFFEFE07000045
:1034B000FF070000F0B557464546DE464E46E0B5EC
:1034C0000C0398464E00230B87B0070092469B469C
:1034D000760DCD0F002E6BD06D4B9E4235D08024E3
:1034E0005B46420F2404DB0014431C43C30099468F
:1034F000684BA3469C46002300276644029343463C
:103500001C035A00DB0F5046240B520D984600D185
:1035100076E05F4B9A426DD08023410F1B040B4332
:103520005C49E4008C461C43C300002062444146D1
:10353000B6186940721C0191944607430F2F00D9B9
:10354000B0E0554ABF00D25997465B4603439946BF
:1035500000D087E000239B46023308270293CEE782
:1035600042460192022867D0032800D10EE20128CA
:1035700000D062E100230024002299460199014015
:10358000CDB2002112030B0D120B1B051343434A4E
:10359000240513401C436400ED0764082C4348468F
:1035A000210007B03CBC90469946A246AB46F0BD10
:1035B000034399464FD05B46002B00D189E1584622
:1035C00000F07AFD03000B3B1C2B00DD7AE11D228D
:1035D000D31A3A0001005C46DA4008398C401300E7
:1035E0008F4023439B46B94600232D4E0027361AB1
:1035F000029384E7534623432AD10024022096E70E
:103600005346234320D0002C00D157E1200000F086
:1036100053FD03000B3B1C2B00DD49E11D21CB1AA0
:1036200051460200D9405346083A944093400C4317
:103630001B4A121A00207AE70125019B144C1D40F9
:103640000023002299469CE70024002201206EE717
:10365000534603206BE700239B46013304270026D3
:1036600002934CE7032381460C27029347E780220D
:103670000023002512039946054C82E75C464B4621
:1036800002986FE75C464B46019502986AE7C04690
:10369000FF07000001FCFFFF40420000FFFF0F801A
:1036A0000DFCFFFF4A464946170C1A0C1B041B0C65
:1036B00008041900000C41431500884619007D4399
:1036C0007943039589462900150045434D440295E9
:1036D00045462D0CAA46029D5544A94506D98A4661
:1036E000802149028946CA4451460391290C04911C
:1036F000414609042D04090C88462900250C2404A0
:103700004144240C0591210041438846210079431E
:103710008A466843414650448146080C48446F43FA
:10372000824503D98021490289464F44010C8946CC
:1037300039004944029141460F0404993F0C8846E0
:103740000004C01980444146049159460F0C0904F5
:10375000090C884659438A463900514389464146F7
:103760004A435146090C8B467B43D2185A44934234
:1037700003D980235B029B46D94451460904090CB6
:103780008A46414661437C43130C12044B44524425
:10379000A1468A463C0041466C434D4351464D4448
:1037A0000F0C7D19A94503D980214902884644445C
:1037B000049F0399B84641448B468345804141426A
:1037C0008846514608042F04000C3F1858460299B9
:1037D00010188946904292414F44BA465242994647
:1037E0009346C244D144CB448F42BF41C245894134
:1037F00099459B41934592417F4249422D0C52424B
:103800000F435B4213437F19FF185B463C19DB0DE6
:10381000059A64021C43430213435D1EAB415A46A2
:10382000C00D034352021343E20156D501205A084A
:1038300003401343E207134364085A4860440028D6
:103840004DDD5A0709D00F221A40042A05D01A1D4F
:103850009A429B415B42E4181300E20104D58020A8
:10386000514AC00014406044504A904200DDE3E6F3
:103870000125DB0862071A436402019B9146220B73
:103880004405640D1D407CE6802259461203114216
:1038900008D0144206D122431203120B4546994622
:1038A000434C6EE65B461A431203120B404C68E62B
:1038B00003005446283B9C400023B9E600F0FCFB83
:1038C0002030A6E60300283B9F400023BB469946D4
:1038D0008AE600F0F1FB203074E6B446ADE701253E
:1038E0002A1A382A06DD019B00241D4000230022ED
:1038F000994646E61F2A21DC20252000AD1A1E002D
:10390000AB40A840D6405D1EAB4130431843D44085
:10391000430709D00F230340042B05D00300181DD3
:1039200098429B415B42E418230221D50125019B6B
:1039300001241D4000230022994622E61F25210074
:103940006D42281AC1400800202A1DD05F35AA1AEE
:10395000944023435C1EA341072503431D400022DE
:10396000002D09D00F2200241A401800042AD6D1B5
:10397000030065076402220BDB082B4301259946EF
:10398000019B00241D40FCE50024E2E78022012584
:103990001203224301991203120B0D409946044C65
:1039A000EFE5C046FF030000FFFFFFFEFE0700003B
:1039B000FF070000F0B54646D6464F460C03C0B59B
:1039C000CD0F4E00610A440F0C43C1005800400D5A
:1039D00084468A460F001903500F490A0143C6481E
:1039E000760DA846DB0FD200844500D1D8E0012037
:1039F0004340AB4200D1A6E06046351A002D00DC02
:103A000005E1002810D10B00134300D1D7E06B1E55
:103A1000002B00D04BE153469F1ABA458041641AEF
:103A20004042241A01261EE0B34B9E4248D0802318
:103A30001B041943382D00DD19E11F2D00DD4CE179
:103A400020230F005B1B10009A409F40E840531E4C
:103A50009A41E940074317435346DF1B611ABA45B1
:103A6000A44164420C1B230200D4C5E06402650A31
:103A7000002D00D1F6E0280000F01EFB0300083BFB
:103A80001F2B00DDE9E020223C00D21A9D40D440EB
:103A90009F4025439E4200DDDBE09E1B731C1F2BD5
:103AA00000DD0AE120223800D21A290097402C00BC
:103AB0009140D8407A1E9741DC40002601430F43D5
:103AC0007B0709D00F233B40042B05D03B1DBB4295
:103AD000BF417F42E4191F00230225D5864B0136E2
:103AE0009E4200D1AFE0854B01251C404346620752
:103AF000FF08640276051743240B760D1D40002154
:103B00002403230B0C0D7E4A24051C43144033056B
:103B100023435B00ED075B082B43380019001CBCF6
:103B200090469946A246F0BD012543466207FF082C
:103B30001743E4081D40704B9E4236D0240376059F
:103B4000240B760DDBE76346F31A002B00DC94E0D0
:103B50006046002835D068488642B1D080273F04AF
:103B60003943382B00DCFDE00A43170000217A1EA0
:103B70009741574457458041091944420C19230283
:103B80003AD55D4B01369E4200D14BE101225B4BA1
:103B90001C407B0817401F43E207174364088FE768
:103BA0000800104300D024E721E723003B4300D165
:103BB000B9E18022120314432403240B9FE72E0053
:103BC0007EE70800104300D1CAE0581E8446002852
:103BD00000D0E7E052445245804164184042241826
:103BE00017000126230207D50226CFE764462C439F
:103BF00000D1B3E12C0067467B0700D062E7630782
:103C0000FF081F4301254346E4081D4093E7002DAC
:103C100078D1751C6D056D0D012D00DCF2E050466C
:103C2000801A8245BF41651A7F42ED1B84462802F7
:103C300000D48CE05046171ABA4292410C1B5542F0
:103C4000651B984614E70125434600241D400027C4
:103C500055E72A4CF61A2C4032E73D0028388540BB
:103C6000002717E7380000F027FA203006E70A435C
:103C7000170000217A1E9741EEE6002B00D0E5E008
:103C8000731C9C465B055B0D012B00DC9FE01A4B0F
:103C90009C4500D1C5E052445245804164184042E1
:103CA0002418E707520817436408664608E71248D5
:103CB000854200D185E01D00BCE629001F3EF14091
:103CC000202B00D17FE04022D31A9D402F437D1E40
:103CD000AF4100240F4300268EE72B000F00203B4E
:103CE000DF40202D71D040235D1BA9400A43511EA7
:103CF0008A4100211743AFE6FF070000FFFF7FFF67
:103D0000FFFF0F80002E3ED0B34EB44545D0802635
:103D100036046D423443382D00DDA8E01F2D00DD50
:103D20001FE1202627005046761BB740E840074396
:103D30005046B040461EB041EC403843171ABA42D4
:103D400092410C1B5242A41A664698468BE6644682
:103D500067462C4300D08BE6002500260027EAE6C4
:103D60001E00ADE61F2B60DC2027F81A0F008446EA
:103D700087401000D840074360468240501E824171
:103D8000D9401743F5E626005046064305D0ED43DB
:103D9000002DD3D0904EB445BDD10C00170066461F
:103DA00098468DE68C4883420BD06346D9E6002DB9
:103DB00000D096E00800104300D1E2E00C001700AC
:103DC0009846854E7CE6002580E700218EE723009B
:103DD00050460343002E00D0A8E0002B00D1DEE0C7
:103DE0000B00134300D16BE65244524580416418E6
:103DF000404224181700230200D4FDE6774B6646A4
:103E00001C405DE6250050460543002ECFD1002D15
:103E10004FD10C00144300D1A0E00C0017009846CD
:103E20004EE666460024002785E61F000800203F76
:103E3000F8400700202B00D18EE04020C31A9940A3
:103E40000A43511E8A410021174392E6002E14D1E5
:103E500026005046064362D0DB43002B5CD1871816
:103E60009742924164185242A418664687E650462B
:103E70002043441EA041002460E7574EB4454ED075
:103E8000802636045B423443382B00DD7FE01F2B55
:103E900000DD8BE0202627005046F61AB740D840B8
:103EA00007435046B040461EB0410743DC40BF18B0
:103EB000D6E70D00154300D102E65046801A824530
:103EC000BF41651A7F42ED1B8446280200D48DE66F
:103ED0005046171ABA4292410C1B5242A41A9846F5
:103EE000EEE50D00154300D16BE750466707C008AB
:103EF00007438020E4080003044207D0CD080542B0
:103F000004D12C009846D70849070F437B0FE400E3
:103F10001C43FF00304ED3E52F4EB445B4D10C0006
:103F200017006646CCE500270024E8E5002B39D0D1
:103F30000B00134300D144E7C00867070743802004
:103F4000E40800030442E1D0CB080342DED1D708E5
:103F500049070F431C00D9E7002171E7002500271E
:103F6000E9E52E002700203EF740202D2FD04026E7
:103F7000751BAC4050462043441EA04100243843EA
:103F8000DCE6802400252403134E0027D3E55046A9
:103F900020430700781E87410024BF1860E70C000B
:103FA00017008DE50C0017000B4E89E51E00270059
:103FB000203EF740202B0CD04026F31A9C40504660
:103FC0002043441EA04107430024BF1848E70024B3
:103FD000D0E70024F3E7C046FF070000FFFF7FFFA4
:103FE00030B5134D0A034B00120B5B0DC90F0024B3
:103FF000AB4210DD0F4CA3420FDC80240E4D640356
:104000002243ED1A1F2D0BDD0C48C31ADA4054422F
:10401000002900D11400200030BD094BCC18FAE76C
:10402000084CE840A44663449A400243EFE7C04688
:10403000FE0300001D040000330400001304000010
:10404000FFFFFF7FEDFBFFFF10B5041E28D000F03F
:1040500033F8154B154A1B1AD21A1F2A15DD144ABC
:10406000D21A9440002224035B05240B5B0D00212F
:10407000100024030A0D240B120522430D4C1B05CE
:10408000224013435B00590810BD210091400A00F3
:104090000B21081AC4405B052403240B5B0DE6E7E3
:1040A000002300240022E2E71E0400003304000085
:1040B00013040000FFFF0F801C2101231B04984202
:1040C00001D3000C10391B0A984201D3000A0839A9
:1040D0001B09984201D30009043902A2105C401860
:1040E0007047C04604030202010101010000000004
:1040F0000000000070B500260C4D0D4C641BA41090
:10410000A64209D1002600F0BBF80A4D0A4C641BF8
:10411000A410A64205D170BDB300EB5898470136F4
:10412000EEE7B300EB5898470136F2E78C42000007
:104130008C4200008C42000090420000002310B529
:104140009A4200D110BDCC5CC4540133F8E703009F
:104150008218934200D1704719700133F9E770B5A6
:104160000400002A00D170BD0D78561E631C257016
:104170000131002D05D1A4189C42F4D01D700133EB
:10418000FAE71C003200ECE749444C45000000000F
:10419000546D72205376630000080042000C004208
:1041A000001000420014004200180042001C0042AF
:1041B0003E1F00003A1F00003A1F00009C1F000035
:1041C0009C1F0000521F0000441F0000581F0000E9
:1041D0008A1F0000242000000420000004200000AA
:1041E000902000001620000032200000082000006F
:1041F000402000008020000054696D6572000000BE
:104200004430000026300000E02F0000FE2E0000A9
:10421000E02F000018300000E02F0000FE2E00000C
:10422000263000002630000018300000FE2E00006E
:10423000F62E0000F62E0000F62E00005C32000084
:10424000A4360000643500006435000060350000CD
:104250007C3600007C3600006E36000060350000C1
:104260007C3600006E3600007C36000060350000B1
:104270008436000084360000843600008838000050
:10428000F8B5C046F8BC08BC9E467047DD0000008B
:10429000F8B5C046F8BC08BC9E467047B5000000A3
:0C42A000AAAAAAAAFFFFFFFF010000006D
:00000001FF
