S00E00006369636164612E73726563C1
S1130000682100203912000035120000351200006A
S113001000000000000000000000000000000000DC
S1130020000000000000000000000000C9060000FD
S11300300000000000000000F10600003507000089
S11300403512000035120000351200003512000090
S11300503512000035120000351200003512000080
S113006035120000C50B0000D50B0000E50B0000A5
S1130070F50B0000050C0000150C00003512000003
S11300803512000035120000351200003512000050
S113009035120000000000000000000035120000CE
S11300A03512000035120000351200003512000030
S11300B00000000010B5064C2378002B07D1054B37
S11300C0002B02D0044800E000BF0123237010BDC0
S11300D00C0000200000000054320000084B10B552
S11300E0002B03D00749084800E000BF0748036815
S11300F0002B00D110BD064B002BFBD09847F9E72D
S113010000000000100000205432000054320000AF
S113011000000000F0B5D6464F464646C0B58AB04A
S113012006000F00140031600800A04B9847A04A55
S1130130116A851C0123AB400B43136209A9237B7D
S11301400B701430C5B228009A4B984728009A4B7C
S11301509847207B0021994B98473B681C209B07BC
S113016005D50AB01CBC90469946A246F0BD3B6832
S11301701738DB07F5D430688C4B9946984705004F
S11301808F49904B9847AD008F4BEE500023337648
S1130190737600257383B3832522B55433621433F5
S11301A03B60336898461800C8478146802308AAF4
S11301B01370557001239370D570E069276A002885
S11301C000D1AFE008AB1870022308AA5370000CEA
S11301D0C0B211007D4B9847002F00D1A7E008ABB7
S11301E01F70022308AA53703F0CF8B21100774B1A
S11301F09847A38AF380E38A3381237E8022002BED
S113020004D1734B9B789B07DB0FDA01A168236948
S11302100B4313432422A25C002A02D08022D2057D
S11302201343A26A13432C22A25C002A03D1802226
S11302309204914202D18022120513432D22A25C22
S1130240002A02D08022120413432E22A25C002A28
S113025002D08022D203134342461268134342461B
S1130260136080235B00536048461430C0B2594B7E
S113027098470790FA239B0022685A439146636883
S11302809A46554DA847009001914B465800A847FF
S113029002900391208EA847049005914F4F504A35
S11302A0504B00980199B84702000B000498059937
S11302B0B8474D4E00224D4BB04704900591484637
S11302C0A84702000B0004980599B84702000B00E8
S11302D0474D00980199A847029A039BB047002212
S11302E0444BA847029A039B434DA847434B984766
S11302F0050080239B04A2689A421ED0030040207C
S1130300FF2D00D92DE700240020FF251D402406E1
S113031025430004FF231B04184005434346DD60C6
S113032000201EE700214046354B98474AE701214B
S11303304046334B9847070051E7FA26B600534628
S11303405E430098019902000B00274CA0470090DF
S113035001913000204B984700222A4BB8470200F5
S11303600B0000980199244CA0470022214B204CFB
S1130370A047224B9847041E0CD031000798224B0B
S113038098470238001B2B00FF2D0CD8FF28BCD93E
S11303904020E6E67100481E079B9C4660441A4BC9
S11303A098470138EFE74020DBE6C0461D0B00000C
S11303B000040040DD100000511000005909000045
S11303C0DD040000590B0000F0000020D5110000EE
S11303D000200041F910000051300000BD2400004D
S11303E095D626E80B2E113E351800000000244057
S11303F0BD2900000000F03F551E0000E92F000059
S1130400A5090000000008401D170000016807222C
S1130410CB691A42FCD1704770B504000668326893
S1130420458B838BED1AADB2838B013B9BB28383E7
S113043013011DD5C37A002B03D0838B9BB2012BF0
S113044010D0A38B9BB2002B02D1A37A002B1CD11A
S11304502000124B9847236A5D192823F35CDBB212
S11304602B7070BD72688023DB0213437360E8E76E
S1130470C37A002BE5D0838B9BB2002BE1D1726849
S11304808023DB0213437360DBE72000034B9847B0
S11304907268C0239B0213437360D9E70D04000004
S11304A070B5040005686B8B5B0703D51E222523FA
S11304B0C25470BD468B838BF61AB6B2838B013B54
S11304C09BB28383044B9847236A9E193378DBB22B
S11304D02822AB54EDE7C0460D04000070B580003F
S11304E0754BC45825682B681B01DA0F637E267E82
S11304F01E40638B9BB2002B03D1A38B9BB2002BBA
S113050023D1638B9BB2002B08D0A38B9BB2002B0F
S113051004D12533E35C052B00D16DE0638B9BB2E2
S1130520002B24D0A38B9BB2002B20D06B8B9B067B
S113053000D581E0002A04D0A38B9BB2012B00D10B
S11305407AE041222523E25411E02B7EDB0707D514
S113055001232B766B8B9B072ED541222523E25456
S1130560A38B9BB263832523E35C052B38D0638B79
S11305709BB2002B07D0A38B9BB2002B03D1253356
S1130580E35C052B64D02523E35C052B13D02523E2
S1130590E35C002B0FD003232B7500236383A38319
S11305A02533E35C412B03D0A37A002B00D075E004
S11305B0730700D57BE070BD6B8B5B07D0D5182229
S11305C02523E2540023A383A37A002BC8D0200060
S11305D03A4B98476A68C0239B0213436B60BFE79A
S11305E01F33E35C002B03D02000354B9847BEE754
S11305F02000344B9847BAE71F33E35C002B00D04C
S11306008CE703332B750023638325330022E254E4
S1130610A37A002B07D101232B76F307A7D5E36830
S113062020009847A3E72000244B98476A68C0231A
S11306309B0213436B60F0E72423E35C002B03D19C
S11306402000204B984792E720001D4B98478EE7E7
S11306501F33E35C012B96D12B7E9B0701D502232C
S11306602B7603232B750023638325330022E25466
S1130670B30703D52423E35C012B0BD0F30700D489
S113068081E72423E35C002B00D07CE7E3682000AF
S1130690984778E723692000984774E72000074BC0
S11306A098476A68E023DB0213436B6080E7636961
S11306B0200098477FE7C046F00000200D040000AA
S11306C019040000A1040000084B196808681030E0
S11306D0F0C8A046A946B246BB4680F30988203834
S11306E0F0C871460D2001430847C0462800002089
S11306F0EFF309800E4B1A6820381060F0C04446AE
S11307004D4656465F46F0C008B572B600F0D0F8C4
S113071062B60CBC116808681030F0C8A046A9463F
S1130720B246BB4680F309882038F0C81847C04653
S11307302800002010B580225205034B1A6072B6BF
S1130740024B984762B610BD04ED00E09507000027
S113075043685A684A6042688A605A68916059607E
S1130760416008610368013303607047436882682D
S11307709A60836842685A6003695A68904206D056
S1130780002202611A68013A1A6018687047826888
S11307905A60F5E7F8B53B4B1B68002B6DD13A4B1B
S11307A01A6801321A601B68002B18D1374B1B687A
S11307B01B68002B01D072B6FEE7344B1968344A2B
S11307C010681860116033490A6801320A601B68B6
S11307D01B68002B1AD1012252422F4B1A602A4B5C
S11307E01A682D4B1B689A424BD3284B1B681B6815
S11307F0002B13D0254B1B68DB68DC686368224A36
S1130800126893420FD8254F254E25E01F4B1B68D5
S1130810DB68DB685A68204B1A60E0E70122524229
S11308201D4B1A602DE01C4A13602AE09800C01882
S113083080001C4B181829001B4B9847134B1B684E
S11308401B68002BEAD0114B1B68DB68DC6863680B
S11308500D4A12689342E6D8251D2800B847A36ABA
S1130860002B03D0200018300C4B9847E36A326801
S11308709342DBD90A4A1360D8E70C4A1368013360
S11308801360F8BD9C000020AC0000202C00002068
S113089030000020A8000020000000206D070000A8
S11308A0A000002034000020510700009800002020
S11308B010B5244B1B68002B1ED1234B1A689300E0
S11308C09B189B00214A9B58002B19D11E4B1B6877
S11308D0002B0FD01C4A1D4C10001368013B136001
S11308E011688B005B189B001B59002B08D103680F
S11308F0002BF2D172B6FEE70122154B1A6010BD2F
S1130900114B1A68114893009918890041184C68D2
S113091064684C609B189B000833C3189C4209D040
S113092093009A189200094B9A185368DA68094B95
S11309301A60E4E7606893009B189B000349CB1896
S11309405860EDE79C000020A00000203400002047
S1130950A40000202800002010B582B004000E4B33
S11309601B78002B07D0002905D10B4B5B78834201
S113097010D01D200CE001A90C701320074B9847E0
S11309801320074B9847044B5C7001221A70002017
S113099002B010BD0020FBE7B0000020DD10000015
S11309A051100000404B984231D00AD93F4B984235
S11309B04DD03F4B98425AD03E4B984237D00020FE
S11309C070473D4B98420CD03C4B9842F7D10129DB
S11309D017D000295DD0022915D0032915D0002095
S11309E0EEE7012907D0002951D0022905D00329B7
S11309F005D00020E4E73248E2E73248E0E7324835
S1130A00DEE73248DCE73248DAE73248D8E7012942
S1130A1007D000293FD0022905D0032905D00020A2
S1130A20CEE72D48CCE72D48CAE72D48C8E7012971
S1130A3007D0002931D0022905D0032905D0002090
S1130A40BEE72848BCE72848BAE72848B8E70129A0
S1130A5007D0002923D0022905D0032905D000207E
S1130A60AEE72348ACE72348AAE72348A8E70129CF
S1130A7007D0002915D0022905D0032905D000206C
S1130A809EE71E489CE71E489AE71E4898E71E48C2
S1130A9096E7032094E71D4892E71D4890E71D4818
S1130AA08EE71D488CE7C046001000420018004243
S1130AB0001C00420014004200080042000C0042E6
S1130AC00300050003000600030007000300010003
S1130AD003001E0003001F000300090003000A00B6
S1130AE003000B00030011000300120003001300B5
S1130AF003000D0003000E0003000F0003001700A5
S1130B000300180003001900030004000300080098
S1130B100300100003000C000300160030B587B07A
S1130B200B4B6A4632CB32C232CB32C2009B834279
S1130B300BD001239A0069465258824206D00133F1
S1130B40062BF7D1002007B030BD0023D8B2FAE756
S1130B505431000070470000F0B50A4B1B78002B9D
S1130B600CD1094F094E0A4D0024DE515A19146064
S1130B700433182BF9D10122024B1A708000024B66
S1130B80C150F0BDB2000020B4000020550B00009D
S1130B90F000002000B583B009236A4613700133C6
S1130BA05370013393700133D370013313710133E4
S1130BB05371034B98476B46185603B000BDC046AB
S1130BC01D0B000010B5024B1B680020984710BD98
S1130BD0B400002010B5024B5B680120984710BD9B
S1130BE0B400002010B5024B9B680220984710BD4A
S1130BF0B400002010B5024BDB680320984710BDF9
S1130C00B400002010B5024B1B690420984710BDA6
S1130C10B400002010B5024B5B690520984710BD55
S1130C20B4000020704700000C4B1B68002B06D159
S1130C30EFF31083002B07D00022094B1A70074AE8
S1130C40136801331360704772B6BFF35F8F0022DD
S1130C50044B1A700132024B1A70F0E7CC000020EA
S1130C60D000002004000020084B1A68013A1A60E2
S1130C701B68002B09D1064B1B78002B05D00122E1
S1130C80044B1A70BFF35F8F62B67047CC0000202C
S1130C90D00000200400002010B5082803D88000EC
S1130CA01B4B1B589F46002030E01A4B18692DE05F
S1130CB0194B1B6A9B059B0F1848D84026E0154B1F
S1130CC0586923E0134B1B6800209B071ED512496B
S1130CD01022CB681A42FCD00E4B1B685B0701D470
S1130CE00F4813E000200F4B98470A4B9B681B04E6
S1130CF01B0C58430AE05023074AD35C00205B07CF
S1130D0004D5044BD86801E08020000210BDC04621
S1130D106C310000D40000200008004000127A006A
S1130D20006CDC02F910000070B50C490B6A047801
S1130D30857840780122104080014026B343034364
S1130D402A40D2018020834313430322224012020B
S1130D500348034013430B6270BDC04600080040C3
S1130D60FFFCFFFF082803D88000254B1B589F4633
S1130D70172044E0234A136A02210B431362002024
S1130D803DE0204A936902210B439361002036E041
S1130D901C4A138A02210B43138200202FE0194AB4
S1130DA0938A02210B439382002028E016490B68A2
S1130DB0022213430B60134B9A8419000E32CB6842
S1130DC01A42FCD0104A91680E4BD96252689A625A
S1130DD000229A8419001032CB681A42FCD00A4BC4
S1130DE01B689BB2074A9384002008E0054944220B
S1130DF08B5C022003438B54002000E000207047EA
S1130E009031000000080040D400002030B585B0C7
S1130E10C222D2001A4B9A601A4A53681E218B438D
S1130E20536001236A4613700024174DE0B26946EB
S1130E30A8470134252CF9D103A8002444700125C6
S1130E4085700470114B98470620114B9847114B3D
S1130E509847114B1C725C729C72DC7201956B4654
S1130E605C7006236A46137014725472694600203B
S1130E700A4B984700200A4B984705B030BDC0463E
S1130E800008004000400041DD100000290D000072
S1130E90650D0000A50E000000040040C90E00000E
S1130EA0810F0000064A936908210B4393610122D4
S1130EB0044B1A7019000B781342FCD17047C046DA
S1130EC000040040000C004070B5060004000D78DA
S1130ED02D0205434B78002B02D08023DB021D43F7
S1130EE04B7A002B02D080231B031D434868012842
S1130EF010D9431E184234D1022830D902230022CB
S1130F0001325B009842FBD8120232431400802362
S1130F105B031D430B7A002B02D080239B031D43EC
S1130F20134A53785BB2002BFBDB124B9847124BEE
S1130F301E700F4A53785BB2002BFBDB0C4B9C609A
S1130F401A0053785BB2002BFBDB094A53688021FB
S1130F5049020B401D435560084B984770BD002261
S1130F60D2E70402344380239B021D43D2E7C046E8
S1130F70000C0040290C0000080C0040690C000023
S1130F8010B504000B4A53785BB2002BFBDB0A4B11
S1130F9098470A4B1C70074A53785BB2002BFBDB63
S1130FA0044A516880235B020B435360044B984707
S1130FB010BDC046000C0040290C0000040C004089
S1130FC0690C000070B504001A4A53785BB2002B18
S1130FD0FBDB194B9847194B1C70164A53785BB2CC
S1130FE0002BFBDB134E7068C004C00E144B9847F3
S1130FF00500124B1C707668F602F60F114B1C703C
S11310000C4A53785BB2002BFBDB0A4B9C6824022E
S1131010240C0D4B9847002E07D1012C07D9210031
S113102028000A4B9847050001E00134E5402800F8
S113103070BDC046000C0040290C0000040C0040A8
S1131040990C0000080C0040690C00001D170000FA
S113105010B50400064B9847064B1C70064A53888B
S11310608021C9010B435380044B984710BDC046EF
S1131070290C0000020C0040000C0040690C000028
S113108010B504000F4B98470F4B1C700F4A538840
S11310901B05180F53880E490B40538053880D4984
S11310A00B40538011008022D2014B881342FCD1A3
S11310B006494A8803020648024013434B80064B04
S11310C0984710BD290C0000020C0040000C0040A1
S11310D0FFF0FFFFFFBFFFFF690C000010B50C78A5
S11310E024020443024B9847A4B2024B5C8010BD17
S11310F081100000000C004010B50400064B984716
S1131100064B1C70064B5C882405240F054B98473E
S11311102000054B984710BD290C0000020C00402C
S1131120000C0040690C0000C50F000030B5D378F6
S1131130002B35D11378802B29D01B068024640220
S1131140234354780225AC4306D19478002C20D153
S11311508024A402234341605478013C012C1CD90F
S11311600D042D0CA024E4052C431C4384620D0CB7
S1131170D02424062C431C438462D478002C22D12E
S11311805B031CD59378012B1ED0416117E000232B
S1131190D7E7C024E4022343DDE70D4C2340DFE717
S11311A041600C04240CA023DB05234383620C0C54
S11311B0D0231B0623438362D378002B03D15378B7
S11311C0013B012B02D930BD8161F8E78160FAE768
S11311D0FFFFFBFF10B50A00C1090023002904D159
S11311E04309DB0105498C4663441F242040012147
S11311F081401800024B984710BDC046004400418E
S11312002D1100007047000010B5054B9847054BA1
S11312109847054B9847054B9847054B984710BD91
S11312200D0E0000250C0000051200000512000040
S113123005120000FEE70000F8B52A4A2A4B9A423C
S113124011D01A00294B9A420DD2294A03339B1A12
S11312509B0801339B000022234822498C58845068
S113126004329A42FAD1234A234B9A420AD2D343F4
S113127021495B1803218B4304339B18002102C2CC
S11312809342FCD11D4AFF211D4B8B439360FD39D2
S113129090235B001B4AD1501B4AD3780325AB43F0
S11312A002242343D370D3780C27BB43082633434B
S11312B0D370164B987B30229043202210439873AE
S11312C0997BB943314399739A7BAA4322439A7316
S11312D00F4A536880210B4353600E4B98470E4BC3
S11312E09847FEE754320000000000200C00002064
S11312F0040000200C0000206801002000ED00E044
S1131300000000000070004100500041004800410E
S113131000400041FD300000E116000010B50C4B08
S113132019680A8803119B1AC0105200821A0224F9
S1131330085F5043C0125B431B1304240A5F5343EA
S11313409B13C0188861830018188030001210BDE8
S1131350EC00002070B5284B1C68A3695A10274B79
S11313609C46624493105B43D9121026A55F6943DF
S11313700E26A55F55436D006D18AD100A21665EFB
S113138059137143C9100826A35F5A435210891890
S1131390891480231B029C466144E3885943C91382
S11313A00C22A35E1B045B191B131818144B434334
S11313B0144A9B1818D40020002914D05800124B4A
S11313C09847C3085B435A0B1621635E53431B13B0
S11313D081081425625F4A4352139B181221625EEE
S11313E09B181B11181870BD00200029FBD0180091
S11313F0054B98474000E4E7EC0000200006FFFF9F
S1131400CBF3FFFF000050C31D17000070B582B07E
S113141005000C00062200216846144B9847144B23
S11314201B68002B1FD0587F5E6A06236A46F7218B
S1131430B0476B461B781B036A465278120113436C
S11314406A469278120913432B606B46DB781B03C0
S11314506A461279120113436A46527912091343F8
S1131460236002B070BD7F204042FAE7453100009E
S1131470EC00002070B582B005000E00002301933B
S113148000930B4B1B68002B0FD0694601A8094B36
S1131490984704000098084B984730600198074B20
S11314A098472860200002B070BD7F246442F9E7A9
S11314B0EC0000200D1400001D1300005513000063
S11314C010B586B0182200216846324B9847324B3B
S11314D01B68002B5BD0587F5C6A18236A468821FE
S11314E0A0472D4B1B686A465178090212780A43BB
S11314F01A806A4603215156090292780A435A8097
S11315006A4605215156090212790A439A806A46AD
S1131510D179090292790A43DA806A46092151563F
S11315200902127A0A431A816A460B2151560902AA
S1131530927A0A435A816A460D2151560902127B56
S11315400A439A816A460F2151560902927B0A4343
S1131550DA816A46112151560902127C0A431A8221
S11315606A46132151560902927C0A435A826A46FA
S1131570152151560902127D0A439A826A4617219F
S113158051560902927D0A43DA8206B010BD7F20CB
S11315904042FAE745310000EC000020F0B5C646B1
S11315A000B582B000226B46DA71194B186005242D
S11315B01F006B46DD1DB8463B68587F5E6A0123F9
S11315C02A00D021B0472B781A00563A022A14D99F
S11315D0013CE4B243461B689B6A01209847002CF7
S11315E0EAD10B4B1B686A46073212781A7701203E
S11315F0404202B004BC9046F0BD054A126813771D
S11316006042604140420028F3D1024B9847F0E722
S1131610EC000020C114000030B58FB001AA64238F
S11316200193204B5360002393601373137680213E
S113163089031161012149429182D36113622531E9
S11316405354936208315354013153540131535468
S1131650D7331386144BD382144C15492000154BF1
S1131660984724680722E3691A42FCD123680222BE
S1131670134323600D4D28680F4B98471F231840D0
S11316801E3B83400D4A1360E88800231021628BBF
S11316900A4204D101338342F9D3102363830FB088
S11316A030BDC046480D0000102700001401002082
S11316B0001C004215010000950B000000E100E051
S11316C0054B76221A80753A5A80044A5A600022E1
S11316D01A725A729A72704708010020080000209A
S11316E010B5084B9847084B9847084B9847084B48
S11316F098470020074B984700210020064B984745
S1131700002010BD091200000D0E0000C1160000DB
S1131710191600009D1500007514000000224308EE
S11317208B4274D303098B425FD3030A8B4244D3A5
S1131730030B8B4228D3030C8B420DD3FF220902E7
S113174012BA030C8B4202D31212090265D0030BA6
S11317508B4219D300E0090AC30B8B4201D3CB039C
S1131760C01A5241830B8B4201D38B03C01A5241DE
S1131770430B8B4201D34B03C01A5241030B8B42E0
S113178001D30B03C01A5241C30A8B4201D3CB02CB
S1131790C01A5241830A8B4201D38B02C01A5241B0
S11317A0430A8B4201D34B02C01A5241030A8B42B3
S11317B001D30B02C01A5241CDD2C3098B4201D3CB
S11317C0CB01C01A524183098B4201D38B01C01A49
S11317D0524143098B4201D34B01C01A52410309C0
S11317E08B4201D30B01C01A5241C3088B4201D36F
S11317F0CB00C01A524183088B4201D38B00C01A1C
S1131800524143088B4201D34B00C01A5241411A42
S113181000D20146524110467047FFE701B500204F
S113182000F006F802BDC0460029F7D076E77047FD
S11318307047C046F8B54546DE4657464E460C034B
S1131840E0B54E00C90F88460D00610A440F0C43F1
S1131850C70019035800DB0F9B464B0A510F0B437B
S1131860760D400D1900D200D84500D1AEE0351AEE
S1131870002D00DCF6E000280FD1134300D1DBE09B
S11318806B1E002B00D037E1BA1A9742BF41641A8D
S11318907F42E41B0126170024E0C64B9E424DD034
S11318A080231B041943382D00DD07E11F2D00DDC3
S11318B038E12020431B9A460B005046834099464A
S11318C013004846EB401843030050468240501E24
S11318D08241E9401A43BA1A611A9742A441170097
S11318E064420C1B230262D56402650A002D00D1F8
S11318F0DFE0280001F0E4FB0300083B1F2B00DDC0
S1131900D2E020223C00D21A9D40D4409F4025437F
S11319109E4200DDC4E09E1B731C1F2B00DDF1E022
S1131920202238002900D21AD840914097402C0038
S11319300143781E8741DC4000260F437B0709D012
S11319400F233B40042B05D03B1DBB42BF417F42CC
S1131950E4191F0023022CD5964B01369E4200D178
S11319609AE04546944BFF081C40600776056402E4
S11319700743240B760D00212403230B0C0D8F4AFF
S113198024051C431440330523435B00ED075B0827
S11319902B43380019003CBC90469946A246AB46FE
S11319A0F8BD6446044300D111E2040067467B0796
S11319B0C6D145466007FF080743E4087D4B9E42B5
S11319C030D024037605240B760DD4E7331A9A46D7
S11319D0002B78DD002831D076488642AED08020B6
S11319E0000401435346382B00DCE9E00A43511E4E
S11319F08A410021D219BA42BF4109197C42170019
S1131A000C192302D3D56B4B01369E4200D13AE127
S1131A100120694B1C407B0807401F43E007074334
S1131A2064088BE723003B4300D1CBE180221203FF
S1131A3014432403240B9EE72E007FE70800104381
S1131A4000D1B4E0581E002800D0DEE0BA18BA4233
S1131A509B4164185B42E418170001262302A6D5B3
S1131A600226D5E7002D6ED1701C4005400D0128DB
S1131A7000DCF9E0B81A844687428041E51A404206
S1131A802D1A280200D489E0D71BBA4292411C1BAC
S1131A905242A51AD84629E74546002400276AE79A
S1131AA0454CF61A2C4049E73D002838854000276C
S1131AB02EE7380001F004FB20301DE70A43511ED5
S1131AC08A41002107E7002B00D0F3E0701C430596
S1131AD05B0D012B00DCADE0364B984200D1D1E028
S1131AE0BA18BA42BF4164187F42E419E7075208A2
S1131AF017436408060021E72E48854200D193E08D
S1131B001D00D0E629001F3EF140202B00D18DE0BE
S1131B104022D31A9D402F437D1EAF4100240F4322
S1131B20002644E72B000800203BD8400300202D6A
S1131B3000D17DE04020451BA9400A43511E8A4143
S1131B4000211A43C7E6002E50D01A4EB04257D097
S1131B5080266B429946360434434B46382B00DDCD
S1131B60D6E01F2B00DD35E12026F51A2600AE4015
S1131B70B2463E00DE40AC46350056462E4365462E
S1131B80AF407D1EAF41DC403743D71BBA42924180
S1131B900C1B5242A41A0600D846A3E664466746C4
S1131BA02C4300D0A2E600250026002706E71E00ED
S1131BB0C4E6C046FF070000FFFF7FFFFFFF0F8062
S1131BC01F2B63DC2020C31A080098409C468346E0
S1131BD053461000D84003005846184363469A40C1
S1131BE0531E9A4153460243D94003E726003E431D
S1131BF006D0EB439946002BC7D0944EB042ACD1EB
S1131C000C0017000600D84698E6904B9A450BD076
S1131C108246E7E6002800D09EE01800104300D179
S1131C20E9E01C001700D846884E87E6002572E7D5
S1131C30002182E723003B43002E00D0ABE0002BC1
S1131C4000D1E7E00B00134300D177E6BA18BA429B
S1131C50BF4164187F42E419230200D4F2E07C4BB4
S1131C6017001C40060069E620003843002ED1D13D
S1131C7000285BD11C00144300D1A8E01C0017000D
S1131C80D8465BE606000024002797E650460B0082
S1131C902038C34099465346202B00D195E0402379
S1131CA050461B1A99400A43511E8A414B46002153
S1131CB01A439FE6002E30D126003E4367D0DB4313
S1131CC09A46002B1CD0614EB04260D05346382B4C
S1131CD000DD96E01F2B00DD9FE02026F31A26008E
S1131CE09E409C46B34653463E00DE4033005E466B
S1131CF01E4363469F407B1E9F415346DC4037434F
S1131D00BF189742924164185242A418060078E61C
S1131D1027437C1EA741002437E74C4EB04236D0FF
S1131D2080265B4236049A463443CFE718001043BA
S1131D3000D103E6B81A84466745AD41E01A6D4206
S1131D40401B050200D42CE6D71BBA4292411C1B4F
S1131D505242A41AD846F1E51800104300D163E7B3
S1131D60F808670707438020E4080003044208D00A
S1131D70DD08054205D1D208590711430F002C0094
S1131D80D8467B0FE4001C43FF00304ED6E50C0020
S1131D9017000600D2E5002B38D00B00134300D106
S1131DA042E7F808670707438020E4080003044279
S1131DB0E7D0CB080342E4D1D208490711430F000E
S1131DC01C00DEE700270024D5E500216BE7002591
S1131DD00027F3E54E462500203EF5404B462E00F5
S1131DE0202B2DD04025ED1AAC4027437C1EA74163
S1131DF000243743C9E6802400252403134E00271A
S1131E00DCE527437C1EA741002479E70C0017007A
S1131E100E4E93E50C00170090E556462300203E35
S1131E20F34099465346202B0ED0402356469B1B25
S1131E309C4027437C1EA7414B4600241F435FE779
S1131E400024D2E71700B2E50024F2E7FF07000000
S1131E50FFFF7FFFF0B557464546DE464E46E0B5E8
S1131E604C000E0387B0834692461D008046360B15
S1131E70640DCF0F002C4FD06F4B9C4235D0802384
S1131E80420F1B04F600134333439946C30098469C
S1131E906A4B00269C460023644403932B031B0BCC
S1131EA09B466B00ED0F50465B0D01955ED0624A78
S1131EB0934253D05A46D1008022400F1204024369
S1131EC00A4393465246D1005C4A94460022634436
S1131ED03800684084460290E41A16430F2E00D955
S1131EE0B4E0574BB6009B599F46030033439946D1
S1131EF06CD100239846023308260393CEE7CB46E1
S1131F004146039A0197022A65D1019B4A4C9C469B
S1131F100023002298466BE00300334399464ED0D9
S1131F20002E00D1BCE1300001F0CAF803000B3BE5
S1131F301C2B00DDACE11D22D31A5A460100DA4005
S1131F4008398E401300334399465B468B409846CC
S1131F5000233C4C0026241A03939FE751465A461B
S1131F60114329D1002293460232B1E75946014375
S1131F701ED05B46002B00D19EE1584601F0A0F82C
S1131F8003000B3B1C2B00DD8FE102005946083A8D
S1131F9091408B461D21CB1A5146D9400B0059461E
S1131FA00B4351469B469140264B00221B1A8FE758
S1131FB0002301229B468BE75146032288E7002336
S1131FC09846013304260024039367E70323B146AC
S1131FD003930C2662E7032A00D15CE2019B012AE9
S1131FE000D0E4E113409C460023002400229846DC
S1131FF000211203130B0A0D12051A432305124C78
S113200040462240134362465B00D2075B081343F9
S1132010190007B03CBC90469946A246AB46F0BDB9
S1132020002380229C4612039846034CE0E70023D9
S1132030014C00229846DBE7FF07000001FCFFFF8C
S1132040B43100000DFCFFFFFFFF0F80D94500D91C
S113205039E100D134E1002346464D469A46013C1D
S11320605B460A0E1B021A430B02170C039313045C
S11320701B0C3900280090460193FFF74FFB020028
S1132080019B83465A43280039009146FFF7CCFB55
S1132090350C09040D43A9450DD95B464544013B64
S11320A0A84500D93AE1A94500D837E102235B42AB
S11320B09C464544E3444B46EB1A3900180004930C
S11320C0FFF72CFB019B0500434339000498994614
S11320D0FFF7AAFB330409041B0C0B43994509D9E8
S11320E043446A1E984500D91AE1994500D817E17E
S11320F0023D43444A469B1A5A4612042A43039912
S11321009346100C0A0C914609045A46090C4E4693
S11321100D001204120C4543059151437243704360
S113212052190E0CB218954203D980256D02AC46A3
S11321306044150C09041204090C2818521883422F
S113214000D2CEE000D1C8E01D1A53469E1AB24513
S113215092415242AB1A9A46984500D117E1390090
S11321601800FFF7DBFA019B050043433900504692
S11321700493FFF759FB04980B04310C194388426C
S113218009D941446B1E884500D907E1884200D82B
S113219004E1023D4144049BCB1A18003900049326
S11321A0FFF7BCFA019B824643433900049801932C
S11321B0FFF73AFB01980B043104090C19438842D8
S11321C00DD953464144013B884500D9E8E0884293
S11321D000D8E5E002235B429C464144E244019B73
S11321E02D04CE1A51462943059D4F462A000B045F
S11321F0080C1B0C5A4345437B4378435B19170C6B
S1132200FB189D4203D980256D02AC4660441D0C29
S113221012041B04120C28189B18864200D293E067
S113222000D18EE001231943A04BE318002B00DCFE
S113223099E04A0700D09EE05A46D20106D55A4694
S11322409B4B1A4080239346DB00E318994A934240
S113225068DD0123029A984C1A400023944698465C
S11322600022C5E680224B46120313420AD05B4685
S1132270134206D11A431203120BAC4688468E4C05
S1132280B6E64B461A431203120BBC468A4CAFE621
S113229003005A46283B9A4000239146984657E645
S11322A0584600F00DFF203040E603005246283B1C
S11322B09A400021934677E600F002FF20305FE663
S11322C0884500D2C7E64B46DE075D0843465B08F7
S11322D01E434346DB079A46C2E60025924500D3D7
S11322E033E7039E5946B446E244B245AD416D42DC
S11322F04544EB180139984507D2984200D97FE04C
S113230000D1BCE01D1A8B461FE79845FAD1039D06
S11323105545F2D943468B461D1A16E79B46CAE635
S11323201500E7E65A46C90852070A435B0590467A
S11323305C0D5A460123029952021940120B8C4635
S113234056E6002B00D16FE746444A1EB04529D912
S11323501100864200D065E7039A934200D061E7FA
S113236062E7012149420120C21A382A21DD029B79
S113237003409C4638E60F220A40042A00D15BE75A
S11323800A00111D914292415242934454E7474B33
S1132390E318002BE5DD01225242F2E71D00FAE6C4
S11323A09A461CE7B04239D86ED011003AE702933E
S11323B03AE71F2A3CDC20239B1A0C00584699401C
S11323C098404B1E99415B46D440D3402043084378
S11323D01A00430709D00F230340042B05D0010042
S11323E0081D88429B415B42D21813023AD501234F
S11323F0029A01241A400023944698460022F7E5E5
S1132400022149428C46039DE344AC46E244AA457A
S1132410AD416D424544ED182D1A96E68A1E039986
S11324204D008D42894149424144761803958FE716
S11324301F204042C31A5846D8400300202A28D0FF
S113244040205D46821A954029434A1E9141194312
S1132450072300220B4009D00F2300220B40080061
S1132460042BBDD1010053075202120BC9081943B2
S1132470012388460299002419408C46B8E5524548
S1132480BED88B46002560E6039D9D42C6D311004D
S113249062E70025D8E780225B4612031A43019BBA
S11324A01203120B9C468846034CA1E5FF0300006F
S11324B0FFFFFFFEFE070000FF070000F0B55746D0
S11324C04546DE464E46E0B50C0398464E00230BC7
S11324D087B0070092469B46760DCD0F002E6BD039
S11324E06D4B9E4235D080245B46420F2404DB00B2
S11324F014431C43C3009946684BA3469C460023DF
S113250000276644029343461C035A00DB0F5046DF
S1132510240B520D984600D176E05F4B9A426DD061
S11325208023410F1B040B435C49E4008C461C438D
S1132530C300002062444146B6186940721C0191F0
S1132540944607430F2F00D9B0E0554ABF00D25933
S113255097465B460343994600D087E000239B4699
S1132560023308270293CEE742460192022867D03D
S1132570032800D10EE2012800D062E100230024E8
S11325800022994601990140CDB2002112030B0D9E
S1132590120B1B051343434A240513401C436400D8
S11325A0ED0764082C434846210007B03CBC904624
S11325B09946A246AB46F0BD034399464FD05B46CD
S11325C0002B00D189E1584600F07AFD03000B3B53
S11325D01C2B00DD7AE11D22D31A3A0001005C466F
S11325E0DA4008398C4013008F4023439B46B94698
S11325F000232D4E0027361A029384E753462343C3
S11326002AD10024022096E75346234320D0002CED
S113261000D157E1200000F053FD03000B3B1C2BBD
S113262000DD49E11D21CB1A51460200D940534631
S1132630083A944093400C431B4A121A00207AE74C
S11326400125019B144C1D400023002299469CE760
S11326500024002201206EE7534603206BE7002389
S11326609B4601330427002602934CE7032381464B
S11326700C27029347E78022002300251203994682
S1132680054C82E75C464B4602986FE75C464B4636
S1132690019502986AE7C046FF07000001FCFFFFAE
S11326A0F4310000FFFF0F800DFCFFFF4A4649464E
S11326B0170C1A0C1B041B0C08041900000C4143D2
S11326C01500884619007D437943039589462900FE
S11326D0150045434D44029545462D0CAA46029DDE
S11326E05544A94506D98A46802149028946CA44E7
S11326F051460391290C0491414609042D04090C07
S113270088462900250C24044144240C0591210009
S113271041438846210079438A46684341465044F0
S11327208146080C48446F43824503D980214902FD
S113273089464F44010C8946390049440291414677
S11327400F0404993F0C88460004C0198044414694
S1132750049159460F0C0904090C884659438A46CA
S113276039005143894641464A435146090C8B4638
S11327707B43D2185A44934203D980235B029B467D
S1132780D94451460904090C8A46414661437C43B5
S1132790130C12044B445244A1468A463C00414661
S11327A06C434D4351464D440F0C7D19A94503D943
S11327B08021490288464444049F0399B846414411
S11327C08B468345804141428846514608042F0484
S11327D0000C3F18584602991018894690429241BD
S11327E04F44BA46524299469346C244D144CB44DC
S11327F08F42BF41C245894199459B4193459241CE
S11328007F4249422D0C52420F435B4213437F19CE
S1132810FF185B463C19DB0D059A64021C43430216
S113282013435D1EAB415A46C00D0343520213438A
S1132830E20156D501205A0803401343E20713432B
S113284064085A48604400284DDD5A0709D00F2215
S11328501A40042A05D01A1D9A429B415B42E4188F
S11328601300E20104D58020514AC00014406044A2
S1132870504A904200DDE3E60125DB0862071A4373
S11328806402019B9146220B4405640D1D407CE6C5
S1132890802259461203114208D0144206D1224321
S11328A01203120B45469946434C6EE65B461A43A7
S11328B01203120B404C68E603005446283B9C402C
S11328C00023B9E600F0FCFB2030A6E60300283B19
S11328D09F400023BB4699468AE600F0F1FB203076
S11328E074E6B446ADE701252A1A382A06DD019BB1
S11328F000241D4000230022994646E61F2A21DCBD
S113290020252000AD1A1E00AB40A840D6405D1E15
S1132910AB4130431843D440430709D00F2303404D
S1132920042B05D00300181D98429B415B42E41818
S1132930230221D50125019B01241D4000230022EF
S1132940994622E61F2521006D42281AC14008003D
S1132950202A1DD05F35AA1A944023435C1EA3414C
S1132960072503431D400022002D09D00F22002417
S11329701A401800042AD6D1030065076402220B0A
S1132980DB082B4301259946019B00241D40FCE5EF
S11329900024E2E780220125120322430199120355
S11329A0120B0D409946044CEFE5C046FF030000AE
S11329B0FFFFFFFEFE070000FF070000F0B54646DC
S11329C0D6464F460C03C0B5CD0F4E00610A440FE6
S11329D00C43C1005800400D84468A460F00190379
S11329E0500F490A0143C648760DA846DB0FD200B2
S11329F0844500D1D8E001204340AB4200D1A6E099
S1132A006046351A002D00DC05E1002810D10B00CA
S1132A10134300D1D7E06B1E002B00D04BE153468B
S1132A209F1ABA458041641A4042241A01261EE0C6
S1132A30B34B9E4248D080231B041943382D00DD3C
S1132A4019E11F2D00DD4CE120230F005B1B10005A
S1132A509A409F40E840531E9A41E9400743174378
S1132A605346DF1B611ABA45A44164420C1B23027E
S1132A7000D4C5E06402650A002D00D1F6E0280008
S1132A8000F01EFB0300083B1F2B00DDE9E02022C1
S1132A903C00D21A9D40D4409F4025439E4200DD15
S1132AA0DBE09E1B731C1F2B00DD0AE12022380093
S1132AB0D21A290097402C009140D8407A1E9741A1
S1132AC0DC40002601430F437B0709D00F233B4022
S1132AD0042B05D03B1DBB42BF417F42E4191F00BC
S1132AE0230225D5864B01369E4200D1AFE0854BAB
S1132AF001251C4043466207FF086402760517431C
S1132B00240B760D1D4000212403230B0C0D7E4A5B
S1132B1024051C431440330523435B00ED075B0885
S1132B202B43380019001CBC90469946A246F0BDC0
S1132B30012543466207FF081743E4081D40704B14
S1132B409E4236D024037605240B760DDBE76346DC
S1132B50F31A002B00DC94E06046002835D0684866
S1132B608642B1D080273F043943382B00DCFDE096
S1132B700A43170000217A1E974157445745804164
S1132B80091944420C1923023AD55D4B01369E4281
S1132B9000D14BE101225B4B1C407B0817401F43D3
S1132BA0E207174364088FE70800104300D024E7C6
S1132BB021E723003B4300D1B9E1802212031443EF
S1132BC02403240B9FE72E007EE70800104300D166
S1132BD0CAE0581E8446002800D0E7E0524452451B
S1132BE0804164184042241817000126230207D5A7
S1132BF00226CFE764462C4300D1B3E12C0067469C
S1132C007B0700D062E76307FF081F4301254346A3
S1132C10E4081D4093E7002D78D1751C6D056D0DFA
S1132C20012D00DCF2E05046801A8245BF41651A4E
S1132C307F42ED1B8446280200D48CE05046171ACC
S1132C40BA4292410C1B5542651B984614E7012574
S1132C50434600241D40002755E72A4CF61A2C4011
S1132C6032E73D0028388540002717E7380000F098
S1132C7027FA203006E70A43170000217A1E9741FD
S1132C80EEE6002B00D0E5E0731C9C465B055B0D73
S1132C90012B00DC9FE01A4B9C4500D1C5E0524457
S1132CA052458041641840422418E70752081743EC
S1132CB06408664608E71248854200D185E01D0095
S1132CC0BCE629001F3EF140202B00D17FE04022CA
S1132CD0D31A9D402F437D1EAF4100240F4300268D
S1132CE08EE72B000F00203BDF40202D71D04023C6
S1132CF05D1BA9400A43511E8A4100211743AFE6D8
S1132D00FF070000FFFF7FFFFFFF0F80002E3ED074
S1132D10B34EB44545D0802636046D423443382D35
S1132D2000DDA8E01F2D00DD1FE12026270050460E
S1132D30761BB740E84007435046B040461EB041BA
S1132D40EC403843171ABA4292410C1B5242A41A5F
S1132D50664698468BE6644667462C4300D08BE66D
S1132D60002500260027EAE61E00ADE61F2B60DCE6
S1132D702027F81A0F00844687401000D8400743E4
S1132D8060468240501E8241D9401743F5E6260032
S1132D905046064305D0ED43002DD3D0904EB445A4
S1132DA0BDD10C001700664698468DE68C488342D8
S1132DB00BD06346D9E6002D00D096E008001043FE
S1132DC000D1E2E00C0017009846854E7CE6002511
S1132DD080E700218EE7230050460343002E00D0F5
S1132DE0A8E0002B00D1DEE00B00134300D16BE61A
S1132DF0524452458041641840422418170023026B
S1132E0000D4FDE6774B66461C405DE6250050463F
S1132E100543002ECFD1002D4FD10C00144300D117
S1132E20A0E00C00170098464EE6664600240027F2
S1132E3085E61F000800203FF8400700202B00D142
S1132E408EE04020C31A99400A43511E8A41002152
S1132E50174392E6002E14D126005046064362D052
S1132E60DB43002B5CD1871897429241641852428D
S1132E70A418664687E650462043441EA041002419
S1132E8060E7574EB4454ED0802636045B42344347
S1132E90382B00DD7FE01F2B00DD8BE02026270090
S1132EA05046F61AB740D84007435046B040461E35
S1132EB0B0410743DC40BF18D6E70D00154300D1ED
S1132EC002E65046801A8245BF41651A7F42ED1BD7
S1132ED08446280200D48DE65046171ABA4292411D
S1132EE00C1B5242A41A9846EEE50D00154300D17E
S1132EF06BE750466707C00807438020E4080003D7
S1132F00044207D0CD08054204D12C009846D708C6
S1132F1049070F437B0FE4001C43FF00304ED3E509
S1132F202F4EB445B4D10C0017006646CCE50027FB
S1132F300024E8E5002B39D00B00134300D144E70B
S1132F40C008670707438020E40800030442E1D077
S1132F50CB080342DED1D70849070F431C00D9E749
S1132F60002171E700250027E9E52E002700203E17
S1132F70F740202D2FD04026751BAC4050462043EF
S1132F80441EA04100243843DCE6802400252403A9
S1132F90134E0027D3E5504620430700781E87418F
S1132FA00024BF1860E70C0017008DE50C00170023
S1132FB00B4E89E51E002700203EF740202B0CD045
S1132FC04026F31A9C4050462043441EA041074328
S1132FD00024BF1848E70024D0E70024F3E7C046E4
S1132FE0FF070000FFFF7FFF30B5134D0A034B00BE
S1132FF0120B5B0DC90F0024AB4210DD0F4CA34232
S11330000FDC80240E4D64032243ED1A1F2D0BDDCB
S11330100C48C31ADA405442002900D1140020009D
S113302030BD094BCC18FAE7084CE840A446634489
S11330309A400243EFE7C046FE0300001D0400006F
S11330403304000013040000FFFFFF7FEDFBFFFFCC
S113305010B5041E28D000F033F8154B154A1B1A7E
S1133060D21A1F2A15DD144AD21A944000222403CE
S11330705B05240B5B0D0021100024030A0D240BB7
S1133080120522430D4C1B05224013435B005908D3
S113309010BD210091400A000B21081AC4405B05B1
S11330A02403240B5B0DE6E7002300240022E2E75F
S11330B01E0400003304000013040000FFFF0F800F
S11330C01C2101231B04984201D3000C10391B0A54
S11330D0984201D3000A08391B09984201D3000918
S11330E0043902A2105C40187047C046040302026F
S11330F001010101000000000000000070B500267D
S11331000C4D0D4C641BA410A64209D1002600F0FE
S113311091F80A4D0A4C641BA410A64205D170BD57
S1133120B300EB5898470136EEE7B300EB589847E5
S11331300136F2E740320000403200004032000025
S11331404432000003008218934200D17047197082
S11331500133F9E700080042000C0042001000426D
S11331600014004200180042001C0042AA0C000097
S1133170A60C0000A60C0000080D0000080D0000BD
S1133180BE0C0000B00C0000C40C0000F60C0000E3
S1133190900D0000700D0000700D0000FC0D00008B
S11331A0820D00009E0D0000740D0000AC0D0000A7
S11331B0EC0D00004C2000002E200000E81F000051
S11331C0061F0000E81F000020200000E81F000088
S11331D0061F00002E2000002E20000020200000EA
S11331E0061F0000FE1E0000FE1E0000FE1E000062
S11331F064220000AC2600006C2500006C25000051
S1133200682500008426000084260000762600003D
S1133210682500008426000076260000842600002D
S1133220682500008C2600008C2600008C260000F7
S113323090280000F8B5C046F8BC08BC9E4670470C
S1133240DD000000F8B5C046F8BC08BC9E467047D7
S1073250B5000000C1
S10F3254FFFFFFFF01000000D00000009D
S9030000FC
