:10000000A02600208523000081230000812300001A
:1000100000000000000000000000000000000000E0
:10002000000000000000000000000000751100004A
:1000300000000000000000009D110000E111000020
:100040008123000081230000812300008123000020
:100050008123000081230000812300008123000010
:1000600081230000E11F0000F11F000001200000BB
:100070001120000021200000312000008123000019
:1000800081230000812300008123000081230000E0
:100090008123000000000000000000008123000018
:1000A00081230000812300008123000081230000C0
:1000B0000000000010B5064C2378002B07D1054B3B
:1000C000002B02D0044800E000BF0123237010BDC4
:1000D00074000020000000008C600000084B10B588
:1000E000002B03D00749084800E000BF0748036819
:1000F000002B00D110BD064B002BFBD09847F9E731
:1001000000000000780000208C6000008C6000007F
:10011000000000000369C268934202D9013B981AAB
:10012000704780681B18013B981AF9E7F0B583B057
:10013000050001911600C7688368DC1B94420ED845
:100140004368D81922000199084FB847361B019B14
:10015000191932006868B847EE6003B0F0BD436813
:10016000D819024B9847BE19EE60F6E779470000B0
:10017000F0B5D6464F464646C0B50600884617003D
:10018000C56800239946174B9A4614E0B268944616
:100190006344013B5B1B13E073685819220041461E
:1001A000D047A144A0443F1B2D19B3689D4210D0F5
:1001B000F560002F0FD033699D42E7D2013B5B1BF6
:1001C000B268541BBC4200D93C009C42E4D91C00DC
:1001D000E2E70025ECE748461CBC90469946A2465B
:1001E000F0BDC0467947000010B5124C03232361CF
:1001F0006361114AA261114BE3618023DB0023623A
:100200000023A3626362E36222660D4A62661022E3
:10021000A2662367E3666367E01D0C3A09490A4B4F
:1002200098470A4B1A6822609B88A3802023A371F9
:1002300010BDC04670050020345E0000A000002004
:1002400090000020405E000079470000445E0000FE
:10025000F8B50E001500431C5C00E418E400174AD2
:10026000A41843001818C0001018C76A012F11D035
:10027000002F03D0022F1BD0002717E02000104BC7
:100280009847A84212D32A00310020000D4B98470E
:100290002F000BE020000A4B98472F00854200D921
:1002A00007003A0031002000064B98473800F8BD9F
:1002B0002A002000044B98470700F7E7700500204C
:1002C000150100002D01000071010000F8B50500C6
:1002D0000E001700094B1B78002B0CD0EFF3108495
:1002E000012181F310883A0031002800044B98471F
:1002F00084F31088F8BD034B9847EFE770050020A2
:1003000051020000E901000010B504008268531C8E
:100310004068834205D820688154A360E3680133B4
:10032000E360A26863689A4200D010BD216820692A
:10033000054B9847A368984203D001235B42E360D2
:10034000F3E70023A360F0E7CD020000F0B5DE463E
:1003500057464E464546E0B585B00600009115006B
:100360001F000E9B9846914239D308000124454B4B
:1003700099462900C84701348542FAD90297A74215
:1003800000D2029401230F9A1A40039229D14346C6
:10039000002B26D0202301930F9B9B0704D52023FD
:1003A000002F01D110330193029B984519D9364C87
:1003B000B946029F43460E93A8461D00013D019990
:1003C0003000A047F368002B55DB002D10D0AF4262
:1003D000F4D14F460E9545460E9B984604E0012405
:1003E000CCE7F368002B46DB0124264B99460BE053
:1003F0004F460E9545460E9B9846F5E7210000981E
:10040000C847854204D86C43012FF7D9013FFAE76A
:100410001C4B9B461D4B9A461D4B9946210000984C
:10042000D847070021000098D04700914B46D95D7E
:100430003000154B9847F368002B05DB290020009E
:10044000104B9847041EE9D1039B002B13D0434661
:10045000002B10D0029B43450DD20B4C029F45460A
:10046000013D20213000A047F368002B03DB002D65
:1004700001D0AF42F4D105B03CBC90469946A246AB
:10048000AB46F0BD79260000090300008527000077
:100490004C5E0000F0B5DE4657464E464546E0B598
:1004A0009DB005900D00914607AB1793402318931C
:1004B000002319931B901A93B64B9B46A7E0002686
:1004C0000427012402201D3906E0232B14D10E43FA
:1004D000013501E0264301352B782B2B09D0DAB208
:1004E0002B2AF2D92D2BF5D0302B05D1064301351F
:1004F000F2E73E430135EFE72B781A00303A092A3C
:1005000014D800241A000135A3001B195B009B18A6
:10051000303B1C002A781300303B092BF3D9130021
:1005200000272E2B04D02B7804211BE00024F7E7B2
:10053000691C6B781A00303A092A0ED81A0001316A
:10054000BB00DB195B009B18303B1F000A781300CF
:10055000303B092BF3D90D00E5E70D000027E2E75A
:1005600001352B781A008A43682AF9D0642B5AD0B7
:1005700013D9732B00D1DFE01AD9752B29D14B4643
:100580001B681A1D49460A601968019600943B00D1
:100590000A2217A8804CA04734E0582B1BD0632BAD
:1005A00027D0252B2ED1252117A87A4B984729E053
:1005B000702B27D14B461B681A1D49460A601968E3
:1005C0000023019308330093102217A8724CA04710
:1005D00018E0782B16D14B461B681A1D49460A6055
:1005E0001968019600943B00102217A86A4CA04796
:1005F00008E04B461B681A1D49460A60197817A87F
:10060000644B984701351A9B002B00DAA6E0297845
:100610000135002900D1A1E0252900D14FE717A815
:100620005C4B9847EFE74B461B681A1D49460A602A
:100630001B680493DA1798185040092837DD012306
:100640009846564B9A464346A0461C000A21D0477E
:1006500001340928FADC230044469846BA46474547
:1006600000D2C246002C05D0049B002B01DB73078F
:1006700000D5013CB30701D5002F03D0F30701D407
:10068000002C19D11A9B002BBCDB049B002B2EDB0A
:10069000730733D403233340022B37D001960094E1
:1006A0003B000A22049917A83B4CA047AAE7012364
:1006B0009846D3E75546A5E7A245E3D2354B984681
:1006C0002B0055469A46013C202117A8C0471A9B8B
:1006D0000393002BEEDB002C05D0A542F3D153464B
:1006E000AA461D00D1E75346AA461D00CDE75B424E
:1006F00004932D2117A8274B984703E02B2117A817
:10070000244B98471A9B002BC4DA7BE7002FC5D1F6
:10071000002CC3D0A245C1D21E4B9846013C3021CB
:1007200017A8C0471A9B0393002B00DA6AE7002C36
:10073000B4D0A245F2D1B1E74B461B681A1D494619
:100740000A601C6821780134002900D15AE717A8F3
:10075000D8471A9B0393002BF4DA53E71A9B002B1C
:100760000BDD199A002A10D11A9B0393199B04934D
:10077000039B049A944663441A931A981DB03CBC98
:1007800090469946A246AB46F0BD07A90598044B92
:100790009847E9E7090300004D0300008D2700009A
:1007A000CD0200000EB400B582B003AB02CB0193C2
:1007B00001AA034B984702B008BC03B01847C046D3
:1007C0009504000070B50020084B98470500084CC0
:1007D000FA218900A047074B186007492800A04765
:1007E000064B18600522064B1A6070BD41210000BF
:1007F000792600000000002040420F000400002085
:1008000010E000E030B5084B1C68084A0025802144
:100810004902013807D3002CFBD05460956013685F
:100820000B42FCD0F5E730BD0400002010E000E0F2
:1008300030B5084B1C68084A002580214902013860
:1008400007D3002CFBD05460956013680B42FCD09A
:10085000F5E730BD0000002010E000E0016807224D
:10086000CB691A42FCD17047F0B5D6464F46464692
:10087000C0B58AB006000F00140031600800A04B1C
:100880009847A04A116A851C0123AB400B431362B1
:1008900009A9237B0B701430C5B228009A4B9847E6
:1008A00028009A4B9847207B0021994B98473B683A
:1008B0001C209B0705D50AB01CBC90469946A24651
:1008C000F0BD3B681738DB07F5D430688C4B994690
:1008D000984705008F49904B9847AD008F4BEE50DD
:1008E00000233376737600257383B3832522B554B2
:1008F000336214333B60336898461800C84781461A
:10090000802308AA1370557001239370D570E06995
:10091000276A002800D1AFE008AB1870022308AAAC
:100920005370000CC0B211007D4B9847002F00D1CE
:10093000A7E008AB1F70022308AA53703F0CF8B25F
:100940001100774B9847A38AF380E38A3381237E93
:100950008022002B04D1734B9B789B07DB0FDA01BD
:10096000A16823690B4313432422A25C002A02D00E
:100970008022D2051343A26A13432C22A25C002AD0
:1009800003D180229204914202D1802212051343A6
:100990002D22A25C002A02D08022120413432E22B0
:1009A000A25C002A02D08022D2031343424612687E
:1009B00013434246136080235B0053604846143063
:1009C000C0B2594B98470790FA239B0022685A43BC
:1009D000914663689A46554DA847009001914B4651
:1009E0005800A84702900391208EA84704900591D3
:1009F0004F4F504A504B00980199B84702000B00E6
:100A000004980599B8474D4E00224D4BB0470490CD
:100A100005914846A84702000B0004980599B8477D
:100A200002000B00474D00980199A847029A039BCA
:100A3000B0470022444BA847029A039B434DA84766
:100A4000434B9847050080239B04A2689A421ED01E
:100A500003004020FF2D00D92DE700240020FF25B2
:100A60001D40240625430004FF231B0418400543B2
:100A70004346DD6000201EE700214046354B984785
:100A80004AE701214046334B9847070051E7FA26D1
:100A9000B60053465E430098019902000B00274CB4
:100AA000A047009001913000204B984700222A4B2C
:100AB000B84702000B0000980199244CA04700227F
:100AC000214B204CA047224B9847041E0CD03100EC
:100AD0000798224B98470238001B2B00FF2D0CD89B
:100AE000FF28BCD94020E6E67100481E079B9C46C3
:100AF00060441A4B98470138EFE74020DBE6C046D8
:100B0000391F00000004004059220000CD210000E0
:100B1000751D0000890F0000751F00008006002071
:100B20005123000000200041752200008144000094
:100B30006938000095D626E80B2E113EE129000009
:100B400000002440693D00000000F03F013000003B
:100B500095430000C11D00000000084079260000F8
:100B600003681A7E920707D502221A765B8B9B07D1
:100B70004120DB17184070475A8B520706D5596839
:100B8000C02292020A435A601820F4E70020F2E7DC
:100B900030B50268002301240225117E21420BD1C9
:100BA000117E294206D101339BB201899942F4D8C2
:100BB000122002E0002000E0002030BD10B50468E3
:100BC00062688023DB02134363606162024B9847D3
:100BD0000123237610BDC046910B0000F0B5DE4620
:100BE00057464E464546E0B583B00600894605683F
:100BF0004C882B681B01DB0F9A464B7A002B2BD1BC
:100C00006B68584A13406B604B461B7A002B27D108
:100C10004B461B885B004A46527A920313430122DB
:100C200013436B623000504B984701905346002BA2
:100C300003D04B465B88012B3BD06B68494A13407D
:100C40006B60019B002B3AD0019803B03CBC9046EE
:100C50009946A246AB46F0BD897A444B9847CFE708
:100C60004B461B885B004A46527A9203134380220C
:100C7000120213436B6230003B4B984701906B6844
:100C8000384A13406B600028DED13000384B98475B
:100C900001900028D8D14B461B881B0A78221343A9
:100CA0005B004A46527A920301210A4313436B6266
:100CB000B8E76A688023DB0213436B60C1E730004A
:100CC0002B4B984701900028BED1013CA4B280462E
:100CD000284B9B4615E0012C20D03000264B98472E
:100CE00043465F1CBFB22823EB5C4A46526841462C
:100CF000535430001C4B9847013CA4B2002815D136
:100D0000B8465C4514D06B8B9B0627D5F37A002B35
:100D1000E3D05346002BDED1002CDED16A6880235D
:100D2000DB0213436B60013CA4B2EAE7B8460190D2
:100D3000B37A002B09D130000F4B98472823EA5C87
:100D40004B465B6841465A547EE730000A4B984751
:100D50006A68C0239B0213436B60ECE74123019355
:100D600072E7C046FFFFFBFF910B0000BD0B0000C8
:100D7000610B0000FFFF00005D080000F0B5DE46DB
:100D800057464E464546E0B583B006000F0005685D
:100D90004C88324B98477B7A002B1DD16B68304AC8
:100DA00013406B603B7A002B1BD03B885B007A7A48
:100DB000920313438022120213436B623000294BCB
:100DC00098470190002813D0019803B03CBC90468E
:100DD0009946A246AB46F0BDB97A3000224B9847FF
:100DE000DCE73B885B007A7A920313436B62E5E7AA
:100DF00030001E4B9847031E0190E5D1A046002409
:100E000020339946154B9B46164B9A46444515D0C0
:100E10006B8B4A4613421DD07B681A5D2823EA5427
:100E20003000D8473000D047002806D16B8B013402
:100E30005B07EBD51E23019300E00190B37A002BF2
:100E4000C2D03000054B98476A68C0239B02134309
:100E50006B60B9E741230193B6E7C0465D08000027
:100E6000FFFFFBFF910B0000BD0B0000610B0000BA
:100E700010B5838B9BB20522002B01D0100010BD52
:100E800001338372C372024B98470200F6E7C046F3
:100E9000DD0B000010B5838B9BB20522002B01D027
:100EA000100010BD01338372C372024B98470200D9
:100EB000F6E7C0467D0D000001680722CB691A42A3
:100EC000FCD1704770B5040006683268458B838B8F
:100ED000ED1AADB2838B013B9BB2838313011DD509
:100EE000C37A002B03D0838B9BB2012B10D0A38B32
:100EF0009BB2002B02D1A37A002B1CD12000124BF5
:100F00009847236A5D192823F35CDBB22B7070BD10
:100F100072688023DB0213437360E8E7C37A002B17
:100F2000E5D0838B9BB2002BE1D172688023DB027A
:100F300013437360DBE72000034B98477268C023BC
:100F40009B0213437360D9E7B90E000070B504002B
:100F500005686B8B5B0703D51E222523C25470BD29
:100F6000468B838BF61AB6B2838B013B9BB283838D
:100F7000044B9847236A9E193378DBB22822AB547E
:100F8000EDE7C046B90E000070B58000754BC4583F
:100F900025682B681B01DA0F637E267E1E40638B5B
:100FA0009BB2002B03D1A38B9BB2002B23D1638B6D
:100FB0009BB2002B08D0A38B9BB2002B04D125330E
:100FC000E35C052B00D16DE0638B9BB2002B24D03A
:100FD000A38B9BB2002B20D06B8B9B0600D581E0AE
:100FE000002A04D0A38B9BB2012B00D17AE04122CE
:100FF0002523E25411E02B7EDB0707D501232B7656
:101000006B8B9B072ED541222523E254A38B9BB2E9
:1010100063832523E35C052B38D0638B9BB2002BC5
:1010200007D0A38B9BB2002B03D12533E35C052BA8
:1010300064D02523E35C052B13D02523E35C002B30
:101040000FD003232B7500236383A3832533E35C35
:10105000412B03D0A37A002B00D075E0730700D595
:101060007BE070BD6B8B5B07D0D518222523E25443
:101070000023A383A37A002BC8D020003A4B9847C3
:101080006A68C0239B0213436B60BFE71F33E35CB6
:10109000002B03D02000354B9847BEE72000344B8F
:1010A0009847BAE71F33E35C002B00D08CE703338B
:1010B0002B750023638325330022E254A37A002B8F
:1010C00007D101232B76F307A7D5E36820009847C3
:1010D000A3E72000244B98476A68C0239B02134370
:1010E0006B60F0E72423E35C002B03D12000204B4E
:1010F000984792E720001D4B98478EE71F33E35C2B
:10110000012B96D12B7E9B0701D502232B7603233F
:101110002B750023638325330022E254B30703D5E4
:101120002423E35C012B0BD0F30700D481E72423B5
:10113000E35C002B00D07CE7E3682000984778E769
:1011400023692000984774E72000074B98476A6896
:10115000E023DB0213436B6080E76369200098475C
:101160007FE7C04680060020B90E0000C50E0000D3
:101170004D0F0000084B196808681030F0C8A046F1
:10118000A946B246BB4680F309882038F0C87146AC
:101190000D2001430847C046A0040020EFF309805A
:1011A0000E4B1A6820381060F0C044464D46564633
:1011B0005F46F0C008B572B600F088FD62B60CBCA0
:1011C000116808681030F0C8A046A946B246BB4670
:1011D00080F309882038F0C81847C046A0040020D2
:1011E00010B580225205034B1A6072B6024B984725
:1011F00062B610BD04ED00E0B11B000000280AD06B
:101200004368002B0AD08368002B0AD0C368584279
:1012100058414042704701204042FBE701204042D4
:10122000F8E701204042F5E7F8B507000E00150089
:101230001C0018000E4B9847002812D1002E13D026
:10124000A378002B01D180331F43ABB26078646870
:1012500032003900A047002800D1F8BD04204042E8
:10126000FBE701204042F8E701204042F5E7C04695
:10127000FD110000F0B583B005000E001F00141C26
:10128000042A00D90424E4B23800234B98470028EC
:1012900035D1002D36D0002E37D0002C38D0337801
:1012A0006A461370BB78002B0BD12A00631EDBB299
:1012B0000133EB187F3011780140117001329A42EE
:1012C000F9D1012C16D969460122AB5C4B70B35C95
:1012D0008B7002310132D3B29C42F6D86400013CDB
:1012E000A3B229787878BC686A46A047002803D161
:1012F00003B0F0BDA3B2F4E704204042F8E70120B8
:101300004042F5E701204042F2E701204042EFE78A
:1013100003204042ECE7C046FD11000030B583B029
:101320000500E0226B46DA712A3A6B469A710A4B45
:101330009847041E02D0200003B030BD2B000122CC
:101340006946063168460730044CA0470400EB6844
:1013500002209847EFE7C046FD110000751200001B
:10136000F0B583B006000F00150001AB00221A7023
:101370005A702F4B1B886A46138028002D4B9847C4
:1013800000284FD1002F50D02B00022201A9F430A9
:10139000294CA047041E02D0200003B0F0BD280055
:1013A000264B9847041EF7D101A90A781F231A403B
:1013B0003878400102431C208446824378788000BC
:1013C0001C34204002430A704A781340BA78520114
:1013D000134362469343FA78920014402343012258
:1013E00093433879024013434B702B000222684626
:1013F000134CA047041ECFD128002C300522390001
:10140000104B9847002EC7D001A90B7803229343B5
:1014100016401E430E702B00023A6846084CA04747
:101420000400B9E701246442B6E701246442B3E74B
:101430005C5E0000FD110000291200001D13000079
:10144000751200007947000070B586B00400484B63
:101450009847002800D086E00525464E61E0182216
:1014600000216846444B98472000414B984700288C
:1014700067D123001822694688303E4EB0470028C5
:101480005FD16B465A7812021B78134323826B4656
:10149000DA7812029B78134363826B465A79120200
:1014A0001B791343A3826B46DA7912029B791343AB
:1014B000E3826B465A7A12021B7A134323836B46EC
:1014C000DA7A12029B7A134363836B465A7B1202C9
:1014D0001B7B1343A3836B46DA7B12029B7B134374
:1014E000E3836B465A7C12021B7C134323846B46B6
:1014F000DA7C12029B7C134363846B465A7D120292
:101500001B7D1343A3846B46DA7D12029B7D13433C
:10151000E38416E00A20E3689847013DEDB2002D10
:101520001FD0230001222100D020B0470028F1D194
:101530002378563B022BEDD82000104B984700280B
:101540008DD0002D11D000280DD100232F22A354BF
:10155000023AA354013AA3540232A3540232A354D0
:1015600001E00220404206B070BD02204042FAE78E
:10157000FD110000291200008B4700001D13000020
:1015800070B582B004000E0001AB00221A705A70D0
:101590000800174B9847002823D1002C24D0330093
:1015A000022201A9F430134DA847051E16D101A946
:1015B0000B785A0922709B100722134063704978F8
:1015C0004B09A3708B101A40E27001230B4023716A
:1015D00030002C3005222100074B9847280002B02C
:1015E00070BD01256D42F9E701256D42F6E7C04661
:1015F000FD110000291200007947000010B50A0013
:1016000001000020014B984710BDC0466113000047
:1016100070B505000C000800054B9847002800D065
:1016200070BD21002C3122002800024B9847F7E7BB
:10163000FD1100006113000030B583B004000D00FF
:10164000062200216846174B98472800164B9847FA
:10165000002821D1002C22D02B0006226946F73029
:10166000124DA8476B461B781B036A46527812013D
:1016700013436A4692781209134363606B46DB7822
:101680001B036A461279120113436A465279120902
:101690001343236003B030BD01204042FAE701202C
:1016A0004042F7E78B470000FD11000029120000BF
:1016B000F0B587B004000F000800334B98470028AE
:1016C0005FD1324E2000B04700900191388AB04778
:1016D00004000D002E4E00222E4B00980199B047B9
:1016E0000490059100222C4B0294039520002900C0
:1016F000B04702000B00294C04980599A0470490BC
:1017000005910022264B00980199B0470090019165
:101710000022244B02980399B04702000B00009866
:101720000199A047009001911223F85E1E4CA0473A
:1017300002000B0000980199B0470090019114231A
:10174000F85EA04704000D000498059902000B0004
:10175000B04702000B0020002900B04702000B0038
:1017600000980199114CA04704000D00104B9847B8
:10177000B86200220F4B200029000F4CA04707B091
:10178000F0BD00200021FAE7FD11000081440000B7
:10179000693800000000E03E0000203F693D000085
:1017A0000000103F0000503FFD430000E129000011
:1017B000954300000000B44001300000F0B5C6467B
:1017C00000B588B002900C0008006A4B98470028CA
:1017D00000D0C5E0684FA06AB847684D0022684B4A
:1017E000A8470022674B684EB047009001911A232A
:1017F000E05EB847009A019BA847009A019BA84762
:101800000022FB239B05A847049005911823E05E66
:10181000B847009A019BA84702000B005B4E049852
:101820000599B0470022FB239B05A8470022FC2313
:101830009B05A8470022564BB04706000F00E08AE0
:10184000544B984732003B00A84705000E00002289
:10185000002304950596504DA847002800D085E048
:101860002023E05E444B9846984706000F00434D06
:101870000098019902000B00A84702000B003000FD
:101880003900A8470022FC239B05A8470690079132
:101890001E23E05EC047009A019BA8473B4F020011
:1018A0000B00B847069A079BB84700223B4BA84756
:1018B000009001910298374B984702000B00324E7E
:1018C00000203749B047029003911C23E05EC047D7
:1018D0000022344BA847009A019BB8470022324BA4
:1018E000A84702000B0002980399B04700222F4B33
:1018F000A847049A059B2E4EB047009001912623DD
:10190000E05EC047009A019BA847009A019BA84748
:101910000022F8239B05A847029003912423E05E50
:10192000C047009A019BA8470022FC239B05A847BB
:1019300002000B0002980399B847029003912223FA
:10194000E05EC04702000B0002980399B8470022EE
:10195000184BA84702000B0000980199B84701E016
:101960000020002108B004BC9046F0BD00200021FA
:10197000F8E7C046FD110000FD4300006938000093
:101980000000E03F0040EF40693D0000E129000019
:101990000000F03F81440000852900000000D03F96
:1019A000000030410000F0400000303F006AB840C5
:1019B000013000000000B03F10B50400114B984703
:1019C000002300281BD12D33E25C013BE15C2B3B63
:1019D00018008840400893405B08C318FA20C000F4
:1019E00058430023002A01D0FA235B00064A94469C
:1019F0006044C018FA218900044B98470300D8B20C
:101A000010BDC046FD110000DC0500007926000075
:101A100010B5002803D10120024B984710BD024B9E
:101A20009847FBE7050800003108000010B5014C9D
:101A3000A04710BD71250000F0B583B005000092ED
:101A40001F006B46DC1DD97101232200044EB047F4
:101A500021783B00009A2800024CA04703B0F0BD5B
:101A6000712500004125000010B50748762343701A
:101A7000753B8370054B4360054B8360054BC3602A
:101A8000054B984710BDC04618060020391A0000C3
:101A90002D1A0000111A00004914000030B583B05F
:101AA0000E4C210068460E4DA84701236A46D370AC
:101AB00004335370032269460A708B702100684614
:101AC000084B984721006846A84721000320064B91
:101AD000984721006846A84703B030BD180600208B
:101AE00081150000FD15000011160000F0B5D64666
:101AF0004F4680B585B081468A46154C2000154B6F
:101B0000984701900500210002A8134B98470090C8
:101B100021000298114B984706000F0003982100FE
:101B20000F4B98475346186059604B461E605F60E4
:101B3000002D08D101200B4B9847009805B00CBC34
:101B400091469A46F0BD0198074B9847F5E7C04685
:101B500018060020B919000039160000B11600005F
:101B6000BD170000050800003108000043685A68EE
:101B70004A6042688A605A689160596041600861B1
:101B80000368013303607047436882689A60836822
:101B900042685A6003695A68904206D00022026186
:101BA0001A68013A1A601868704782685A60F5E747
:101BB000F8B53B4B1B68002B6DD13A4B1A680132CC
:101BC0001A601B68002B18D1374B1B681B68002B51
:101BD00001D072B6FEE7344B1968344A10681860B9
:101BE000116033490A6801320A601B681B68002BC8
:101BF0001AD1012252422F4B1A602A4B1A682D4BE0
:101C00001B689A424BD3284B1B681B68002B13D0D0
:101C1000254B1B68DB68DC686368224A12689342C4
:101C20000FD8254F254E25E01F4B1B68DB68DB686E
:101C30005A68204B1A60E0E7012252421D4B1A609D
:101C40002DE01C4A13602AE09800C01880001C4B4D
:101C5000181829001B4B9847134B1B681B68002B57
:101C6000EAD0114B1B68DB68DC6863680D4A1268B8
:101C70009342E6D8251D2800B847A36A002B03D05D
:101C8000200018300C4B9847E36A32689342DBD946
:101C90000A4A1360D8E70C4A136801331360F8BD91
:101CA0001405002024050020A4040020A80400201E
:101CB0002005002008000020891B000018050020D6
:101CC000AC0400206D1B00001005002010B5244B53
:101CD0001B68002B1ED1234B1A6893009B189B0096
:101CE000214A9B58002B19D11E4B1B68002B0FD08B
:101CF0001C4A1D4C10001368013B136011688B00D7
:101D00005B189B001B59002B08D10368002BF2D1F4
:101D100072B6FEE70122154B1A6010BD114B1A680E
:101D2000114893009918890041184C6864684C6008
:101D30009B189B000833C3189C4209D093009A1843
:101D40009200094B9A185368DA68094B1A60E4E765
:101D5000606893009B189B000349CB185860EDE71F
:101D60001405002018050020AC0400201C050020EC
:101D7000A004002010B582B004000E4B1B78002B8D
:101D800007D0002905D10B4B5B78834210D01D2072
:101D90000CE001A90C701320074B98471320074B48
:101DA0009847044B5C7001221A70002002B010BDED
:101DB0000020FBE72805002059220000CD2100006B
:101DC000404B984231D00AD93F4B98424DD03F4BBF
:101DD00098425AD03E4B984237D0002070473D4B36
:101DE00098420CD03C4B9842F7D1012917D00029DA
:101DF0005DD0022915D0032915D00020EEE7012976
:101E000007D0002951D0022905D0032905D0002090
:101E1000E4E73248E2E73248E0E73248DEE73248BA
:101E2000DCE73248DAE73248D8E7012907D0002951
:101E30003FD0022905D0032905D00020CEE72D4848
:101E4000CCE72D48CAE72D48C8E7012907D000296B
:101E500031D0022905D0032905D00020BEE728484B
:101E6000BCE72848BAE72848B8E7012907D0002985
:101E700023D0022905D0032905D00020AEE723484E
:101E8000ACE72348AAE72348A8E7012907D000299F
:101E900015D0022905D0032905D000209EE71E4851
:101EA0009CE71E489AE71E4898E71E4896E70320DD
:101EB00094E71D4892E71D4890E71D488EE71D48AE
:101EC0008CE7C0460010004200180042001C00428F
:101ED0000014004200080042000C0042030005000C
:101EE00003000600030007000300010003001E00BA
:101EF00003001F000300090003000A0003000B0099
:101F000003001100030012000300130003000D0082
:101F100003000E0003000F00030017000300180069
:101F20000300190003000400030008000300100070
:101F300003000C000300160030B587B00B4B6A4657
:101F400032CB32C232CB32C2009B83420BD0012350
:101F50009A0069465258824206D00133062BF7D1C7
:101F6000002007B030BD0023D8B2FAE7605E000061
:101F700070470000F0B50A4B1B78002B0CD1094FBD
:101F8000094E0A4D0024DE515A1914600433182BEF
:101F9000F9D10122024B1A708000024BC150F0BDF2
:101FA0002A0500202C050020711F0000800600205B
:101FB00000B583B009236A461370013353700133AF
:101FC00093700133D3700133137101335371034B99
:101FD00098476B46185603B000BDC046391F000035
:101FE00010B5024B1B680020984710BD2C0500203F
:101FF00010B5024B5B680120984710BD2C050020EE
:1020000010B5024B9B680220984710BD2C0500209C
:1020100010B5024BDB680320984710BD2C0500204B
:1020200010B5024B1B690420984710BD2C050020F9
:1020300010B5024B5B690520984710BD2C050020A8
:102040000C4B1B68002B06D1EFF31083002B07D03D
:102050000022094B1A70074A136801331360704756
:1020600072B6BFF35F8F0022044B1A700132024B2D
:102070001A70F0E744050020480500200C000020FD
:10208000084B1A68013A1A601B68002B09D1064BED
:102090001B78002B05D00122044B1A70BFF35F8F11
:1020A00062B6704744050020480500200C0000205F
:1020B00010B5082803D880001B4B1B589F460020F2
:1020C00030E01A4B18692DE0194B1B6A9B059B0FDA
:1020D0001848D84026E0154B586923E0134B1B687D
:1020E00000209B071ED512491022CB681A42FCD053
:1020F0000E4B1B685B0701D40F4813E000200F4B09
:1021000098470A4B9B681B041B0C58430AE050235A
:10211000074AD35C00205B0704D5044BD86801E074
:102120008020000210BDC046785E00004C050020F3
:102130000008004000127A00006CDC0275220000EA
:1021400070B504001A4A53785BB2002BFBDB194BC5
:102150009847194B1C70164A53785BB2002BFBDB77
:10216000134E7068C004C00E144B98470500124B04
:102170001C707668F602F60F114B1C700C4A5378EF
:102180005BB2002BFBDB0A4B9C682402240C0D4B3A
:102190009847002E07D1012C07D9210028000A4BAF
:1021A0009847050001E00134E540280070BDC046B5
:1021B000000C004041200000040C0040B120000051
:1021C000080C0040812000007926000010B50400B2
:1021D000064B9847064B1C70064A53888021C9015C
:1021E0000B435380044B984710BDC046412000006C
:1021F000020C0040000C00408120000010B50400DB
:102200000F4B98470F4B1C700F4A53881B05180F34
:1022100053880E490B40538053880D490B4053801F
:1022200011008022D2014B881342FCD106494A8812
:1022300003020648024013434B80064B984710BDEB
:1022400041200000020C0040000C0040FFF0FFFFA6
:10225000FFBFFFFF8120000010B50C78240204436B
:10226000024B9847A4B2024B5C8010BDFD210000D8
:10227000000C004010B50400064B9847064B1C703C
:10228000064B5C882405240F054B98472000054B1E
:10229000984710BD41200000020C0040000C004097
:1022A000812000004121000030B5D378002B35D1CA
:1022B0001378802B29D01B06802464022343547892
:1022C0000225AC4306D19478002C20D18024A402AE
:1022D000234341605478013C012C1CD90D042D0C82
:1022E000A024E4052C431C4384620D0CD024240656
:1022F0002C431C438462D478002C22D15B031CD570
:102300009378012B1ED0416117E00023D7E7C0244A
:10231000E4022343DDE70D4C2340DFE741600C047A
:10232000240CA023DB05234383620C0CD0231B0663
:1023300023438362D378002B03D15378013B012BD5
:1023400002D930BD8161F8E78160FAE7FFFFFBFF4A
:1023500010B50A00C1090023002904D14309DB019B
:1023600005498C4663441F24204001218140180008
:10237000024B984710BDC04600440041A92200000E
:10238000FEE70000F8B52A4A2A4B9A4211D01A00FB
:10239000294B9A420DD2294A03339B1A9B080133D9
:1023A0009B000022234822498C58845004329A42D0
:1023B000FAD1234A234B9A420AD2D34321495B18CC
:1023C00003218B4304339B18002102C29342FCD1AA
:1023D0001D4AFF211D4B8B439360FD3990235B0009
:1023E0001B4AD1501B4AD3780325AB430224234315
:1023F000D370D3780C27BB4308263343D370164BD6
:10240000987B30229043202210439873997BB943E4
:10241000314399739A7BAA4322439A730F4A5368B4
:1024200080210B4353600E4B98470E4B9847FEE7B5
:102430008C600000000000207400002004000020D8
:10244000740000209C06002000ED00E00000000069
:102450000070004100500041004800410040004130
:1024600031470000A12500000300064A1268002A37
:1024700004D0044A1068C318136070470249014A27
:102480001160F6E764050020A026002030B58FB06B
:1024900001AA64230193214B5360002393601373BB
:1024A00013768021890311610121494291822531EE
:1024B00053549362083153540131535401315354EE
:1024C000D7331386164BD382164BD361164B136248
:1024D000164C17492000174B984724680722E369D8
:1024E0001A42FCD123680222134323600F4D28684F
:1024F000114B98471F2318401E3B83400F4A13601F
:10250000E88800231021628B0A4204D10133834200
:10251000F9D3102363830FB030BDC046480D0000CF
:1025200010270000020016000200170058060020C5
:102530000014004269080000B11F000000E100E043
:1025400030B585B001A908804B80029200230B7240
:102550004B728B72044D054C01A92800A04700283E
:10256000FAD105B030BDC04658060020710E0000FB
:1025700030B585B001A908804B80029200230B7210
:102580004B728B72044D054C01A92800A04700280E
:10259000FAD105B030BDC04658060020950E0000A7
:1025A000F0B589B0002200230692079304920593A8
:1025B0001F4B98471F4B98471F4B9847002806D042
:1025C0001E4900201E4B9847002009B0F0BD1D4B4E
:1025D00098470028F4D104A906A81B4B98471B4F25
:1025E000C02212061A4B06980799B8470022194BC9
:1025F000194CA047194EB047194DA84702AB042209
:10260000184CA047E0221206174B04980599B847CA
:10261000B047A8476B460422A0476B4602AA13495D
:102620000020074CA0471248124B9847D3E7C046FA
:102630008D240000C5070000691A0000CC5E000070
:10264000A50700009D1A0000ED1A0000693800007F
:10265000CCCCFC3F00004040E12900009545000043
:10266000F1440000E54600004F5A333F9C5E0000F5
:102670008813000031080000002243088B4274D305
:1026800003098B425FD3030A8B4244D3030B8B4273
:1026900028D3030C8B420DD3FF22090212BA030C7C
:1026A0008B4202D31212090265D0030B8B4219D35D
:1026B00000E0090AC30B8B4201D3CB03C01A52417D
:1026C000830B8B4201D38B03C01A5241430B8B42C5
:1026D00001D34B03C01A5241030B8B4201D30B03AE
:1026E000C01A5241C30A8B4201D3CB02C01A5241D5
:1026F000830A8B4201D38B02C01A5241430A8B4298
:1027000001D34B02C01A5241030A8B4201D30B0280
:10271000C01A5241CDD2C3098B4201D3CB01C01A9A
:10272000524183098B4201D38B01C01A52414309A4
:102730008B4201D34B01C01A524103098B4201D392
:102740000B01C01A5241C3088B4201D3CB00C01AFF
:10275000524183088B4201D38B00C01A5241430877
:102760008B4201D34B00C01A5241411A00D201469C
:10277000524110467047FFE701B5002000F0F0F825
:1027800002BDC0460029F7D076E7704703460B43E9
:102790007FD4002243088B4274D303098B425FD35A
:1027A000030A8B4244D3030B8B4228D3030C8B4286
:1027B0000DD3FF22090212BA030C8B4202D312126C
:1027C000090265D0030B8B4219D300E0090AC30B41
:1027D0008B4201D3CB03C01A5241830B8B4201D3EE
:1027E0008B03C01A5241430B8B4201D34B03C01AD7
:1027F0005241030B8B4201D30B03C01A5241C30A4F
:102800008B4201D3CB02C01A5241830A8B4201D3BF
:102810008B02C01A5241430A8B4201D34B02C01AA9
:102820005241030A8B4201D30B02C01A5241CDD24E
:10283000C3098B4201D3CB01C01A524183098B4299
:1028400001D38B01C01A524143098B4201D34B0182
:10285000C01A524103098B4201D30B01C01A5241E5
:10286000C3088B4201D3CB00C01A524183088B426C
:1028700001D38B00C01A524143088B4201D34B0055
:10288000C01A5241411A00D20146524110467047C7
:102890005DE0CA0F00D04942031000D340425340CC
:1028A00000229C4603098B422DD3030A8B4212D38C
:1028B000FC22890112BA030A8B420CD389019211BE
:1028C0008B4208D3890192118B4204D389013AD0FB
:1028D000921100E08909C3098B4201D3CB01C01AD0
:1028E000524183098B4201D38B01C01A52414309E3
:1028F0008B4201D34B01C01A524103098B4201D3D1
:102900000B01C01A5241C3088B4201D3CB00C01A3D
:10291000524183088B4201D38B00C01A5241D9D255
:1029200043088B4201D34B00C01A5241411A00D2D6
:102930000146634652415B10104601D34042002BD2
:1029400000D54942704763465B1000D3404201B551
:10295000002000F005F802BD0029F8D016E7704706
:102960007047C0468446101C62468C46191C63465C
:1029700000E0C0461FB500F015FF002801D400217B
:10298000C8421FBD10B500F06FFE4042013010BDBF
:1029900010B500F007FF002801DB002010BD01206A
:1029A00010BDC04610B500F0FDFE002801DD00207E
:1029B00010BD012010BDC04610B500F08FFE0028EC
:1029C00001DC002010BD012010BDC04610B500F094
:1029D00085FE002801DA002010BD012010BDC04690
:1029E000F8B54546DE4657464E460C03E0B54E0068
:1029F000C90F88460D00610A440F0C43C700190334
:102A00005800DB0F9B464B0A510F0B43760D400DD0
:102A10001900D200D84500D1AEE0351A002D00DCF7
:102A2000F6E000280FD1134300D1DBE06B1E002B32
:102A300000D037E1BA1A9742BF41641A7F42E41BC3
:102A40000126170024E0C64B9E424DD080231B0474
:102A50001943382D00DD07E11F2D00DD38E120206E
:102A6000431B9A460B005046834099461300484644
:102A7000EB401843030050468240501E8241E9401B
:102A80001A43BA1A611A9742A441170064420C1BF8
:102A9000230262D56402650A002D00D1DFE0280020
:102AA00001F002FE0300083B1F2B00DDD2E02022D4
:102AB0003C00D21A9D40D4409F4025439E4200DDF9
:102AC000C4E09E1B731C1F2B00DDF1E020223800A8
:102AD0002900D21AD840914097402C000143781E1B
:102AE0008741DC4000260F437B0709D00F233B4082
:102AF000042B05D03B1DBB42BF417F42E4191F00A0
:102B000023022CD5964B01369E4200D19AE04546D1
:102B1000944BFF081C406007760564020743240BB2
:102B2000760D00212403230B0C0D8F4A24051C4332
:102B30001440330523435B00ED075B082B4338004B
:102B400019003CBC90469946A246AB46F8BD644687
:102B5000044300D111E2040067467B07C6D1454615
:102B60006007FF080743E4087D4B9E4230D02403F2
:102B70007605240B760DD4E7331A9A46002B78DDC0
:102B8000002831D076488642AED080200004014330
:102B90005346382B00DCE9E00A43511E8A410021EC
:102BA000D219BA42BF4109197C4217000C192302FD
:102BB000D3D56B4B01369E4200D13AE10120694BDF
:102BC0001C407B0807401F43E007074364088BE76E
:102BD00023003B4300D1CBE18022120314432403A2
:102BE000240B9EE72E007FE70800104300D1B4E0DD
:102BF000581E002800D0DEE0BA18BA429B41641883
:102C00005B42E418170001262302A6D50226D5E769
:102C1000002D6ED1701C4005400D012800DCF9E04C
:102C2000B81A844687428041E51A40422D1A28028C
:102C300000D489E0D71BBA4292411C1B5242A51A0C
:102C4000D84629E74546002400276AE7454CF61A8E
:102C50002C4049E73D002838854000272EE7380002
:102C600001F022FD20301DE70A43511E8A41002158
:102C700007E7002B00D0F3E0701C43055B0D012B30
:102C800000DCADE0364B984200D1D1E0BA18BA4230
:102C9000BF4164187F42E419E707520817436408EC
:102CA000060021E72E48854200D193E01D00D0E6C2
:102CB00029001F3EF140202B00D18DE04022D31A85
:102CC0009D402F437D1EAF4100240F43002644E763
:102CD0002B000800203BD8400300202D00D17DE0D0
:102CE0004020451BA9400A43511E8A4100211A4336
:102CF000C7E6002E50D01A4EB04257D080266B4205
:102D00009946360434434B46382B00DDD6E01F2B62
:102D100000DD35E12026F51A2600AE40B2463E0021
:102D2000DE40AC46350056462E436546AF407D1E1C
:102D3000AF41DC403743D71BBA4292410C1B524291
:102D4000A41A0600D846A3E6644667462C4300D082
:102D5000A2E600250026002706E71E00C4E6C046BE
:102D6000FF070000FFFF7FFFFFFF0F801F2B63DCCB
:102D70002020C31A080098409C4683465346100002
:102D8000D84003005846184363469A40531E9A4160
:102D900053460243D94003E726003E4306D0EB43A7
:102DA0009946002BC7D0944EB042ACD10C0017000E
:102DB0000600D84698E6904B9A450BD08246E7E647
:102DC000002800D09EE01800104300D1E9E01C006C
:102DD0001700D846884E87E6002572E7002182E773
:102DE00023003B43002E00D0ABE0002B00D1E7E0F6
:102DF0000B00134300D177E6BA18BA42BF416418FA
:102E00007F42E419230200D4F2E07C4B17001C40FF
:102E1000060069E620003843002ED1D100285BD19E
:102E20001C00144300D1A8E01C001700D8465BE644
:102E300006000024002797E650460B002038C340C8
:102E400099465346202B00D195E0402350461B1A4B
:102E500099400A43511E8A414B4600211A439FE67E
:102E6000002E30D126003E4367D0DB439A46002B2C
:102E70001CD0614EB04260D05346382B00DD96E046
:102E80001F2B00DD9FE02026F31A26009E409C4663
:102E9000B34653463E00DE4033005E461E43634663
:102EA0009F407B1E9F415346DC403743BF189742EB
:102EB000924164185242A418060078E627437C1E0B
:102EC000A741002437E74C4EB04236D080265B4203
:102ED00036049A463443CFE71800104300D103E686
:102EE000B81A84466745AD41E01A6D42401B0502A1
:102EF00000D42CE6D71BBA4292411C1B5242A41AA2
:102F0000D846F1E51800104300D163E7F8086707D9
:102F100007438020E4080003044208D0DD0805428E
:102F200005D1D208590711430F002C00D8467B0F5A
:102F3000E4001C43FF00304ED6E50C0017000600ED
:102F4000D2E5002B38D00B00134300D142E7F8083C
:102F5000670707438020E40800030442E7D0CB085A
:102F60000342E4D1D208490711430F001C00DEE7F9
:102F700000270024D5E500216BE700250027F3E5B5
:102F80004E462500203EF5404B462E00202B2DD0EE
:102F90004025ED1AAC4027437C1EA741002437434F
:102FA000C9E6802400252403134E0027DCE52743CF
:102FB0007C1EA741002479E70C0017000E4E93E514
:102FC0000C00170090E556462300203EF34099463A
:102FD0005346202B0ED0402356469B1B9C40274334
:102FE0007C1EA7414B4600241F435FE70024D2E725
:102FF0001700B2E50024F2E7FF070000FFFF7FFFA4
:10300000F0B557464546DE464E46E0B54C000E0349
:1030100087B0834692461D008046360B640DCF0F65
:10302000002C4FD06F4B9C4235D08023420F1B04A5
:10303000F600134333439946C30098466A4B002673
:103040009C460023644403932B031B0B9B466B009D
:10305000ED0F50465B0D01955ED0624A934253D00E
:103060005A46D1008022400F120402430A4393467D
:103070005246D1005C4A94460022634438006840BE
:1030800084460290E41A16430F2E00D9B4E0574B41
:10309000B6009B599F460300334399466CD10023E9
:1030A0009846023308260393CEE7CB464146039A5F
:1030B0000197022A65D1019B4A4C9C4600230022BD
:1030C00098466BE00300334399464ED0002E00D162
:1030D000BCE1300001F0E8FA03000B3B1C2B00DDE3
:1030E000ACE11D22D31A5A460100DA4008398E405D
:1030F0001300334399465B468B40984600233C4C73
:103100000026241A03939FE751465A46114329D1BA
:10311000002293460232B1E7594601431ED05B4676
:10312000002B00D19EE1584601F0BEFA03000B3B94
:103130001C2B00DD8FE102005946083A91408B4676
:103140001D21CB1A5146D9400B0059460B4351461D
:103150009B469140264B00221B1A8FE70023012239
:103160009B468BE75146032288E7002398460133AC
:1031700004260024039367E70323B14603930C2638
:1031800062E7032A00D15CE2019B012A00D0E4E15E
:1031900013409C460023002400229846002112037D
:1031A000130B0A0D12051A432305124C4046224008
:1031B000134362465B00D2075B081343190007B054
:1031C0003CBC90469946A246AB46F0BD0023802207
:1031D0009C4612039846034CE0E70023014C002272
:1031E0009846DBE7FF07000001FCFFFFE05E000000
:1031F0000DFCFFFFFFFF0F80D94500D939E100D159
:1032000034E1002346464D469A46013C5B460A0E91
:103210001B021A430B02170C039313041B0C3900F7
:10322000280090460193FFF727FA0200019B83468E
:103230005A43280039009146FFF7A4FA350C0904D7
:103240000D43A9450DD95B464544013BA84500D92E
:103250003AE1A94500D837E102235B429C46454448
:10326000E3444B46EB1A390018000493FFF704FAC5
:10327000019B05004343390004989946FFF782FA01
:10328000330409041B0C0B43994509D943446A1EB6
:10329000984500D91AE1994500D817E1023D434409
:1032A0004A469B1A5A4612042A4303999346100C25
:1032B0000A0C914609045A46090C4E460D001204A8
:1032C000120C4543059151437243704352190E0C41
:1032D000B218954203D980256D02AC466044150CA6
:1032E00009041204090C28185218834200D2CEE0B7
:1032F00000D1C8E01D1A53469E1AB245924152426F
:10330000AB1A9A46984500D117E139001800FFF72B
:10331000B3F9019B05004343390050460493FFF77E
:1033200031FA04980B04310C1943884209D94144FD
:103330006B1E884500D907E1884200D804E1023DB0
:103340004144049BCB1A180039000493FFF794F909
:10335000019B82464343390004980193FFF712FA18
:1033600001980B043104090C194388420DD95346C6
:103370004144013B884500D9E8E0884200D8E5E0B7
:1033800002235B429C464144E244019B2D04CE1A39
:1033900051462943059D4F462A000B04080C1B0C7F
:1033A0005A4345437B4378435B19170CFB189D42F6
:1033B00003D980256D02AC4660441D0C12041B0429
:1033C000120C28189B18864200D293E000D18EE0A0
:1033D00001231943A04BE318002B00DC99E04A07B6
:1033E00000D09EE05A46D20106D55A469B4B1A4061
:1033F00080239346DB00E318994A934268DD01235A
:10340000029A984C1A400023944698460022C5E63A
:1034100080224B46120313420AD05B46134206D168
:103420001A431203120BAC4688468E4CB6E64B4646
:103430001A431203120BBC468A4CAFE603005A46ED
:10344000283B9A4000239146984657E6584601F09B
:103450002BF9203040E603005246283B9A400021D9
:10346000934677E601F020F920305FE6884500D2E8
:10347000C7E64B46DE075D0843465B081E434346EE
:10348000DB079A46C2E60025924500D333E7039E48
:103490005946B446E244B245AD416D424544EB184D
:1034A0000139984507D2984200D97FE000D1BCE0AD
:1034B0001D1A8B461FE79845FAD1039D5545F2D951
:1034C00043468B461D1A16E79B46CAE61500E7E6FB
:1034D0005A46C90852070A435B0590465C0D5A4696
:1034E0000123029952021940120B8C4656E6002B1A
:1034F00000D16FE746444A1EB04529D911008642E3
:1035000000D065E7039A934200D061E762E70121AA
:1035100049420120C21A382A21DD029B03409C4601
:1035200038E60F220A40042A00D15BE70A00111D89
:10353000914292415242934454E7474BE318002B87
:10354000E5DD01225242F2E71D00FAE69A461CE749
:10355000B04239D86ED011003AE702933AE71F2AF9
:103560003CDC20239B1A0C005846994098404B1E87
:1035700099415B46D440D340204308431A00430797
:1035800009D00F230340042B05D00100081D8842F9
:103590009B415B42D21813023AD50123029A0124BF
:1035A0001A400023944698460022F7E5022149423A
:1035B0008C46039DE344AC46E244AA45AD416D42CE
:1035C0004544ED182D1A96E68A1E03994D008D424A
:1035D000894149424144761803958FE71F204042B4
:1035E000C31A5846D8400300202A28D040205D4600
:1035F000821A954029434A1E91411943072300220C
:103600000B4009D00F2300220B400800042BBDD132
:10361000010053075202120BC908194301238846BF
:103620000299002419408C46B8E55245BED88B4615
:10363000002560E6039D9D42C6D3110062E7002588
:10364000D8E780225B4612031A43019B1203120B38
:103650009C468846034CA1E5FF030000FFFFFFFEE8
:10366000FE070000FF070000F0B54F464646D6466D
:103670005C00C0B51F03DB0F9A46174B0E034D00CD
:1036800084468046360B6D0DC90F91463F0B640D85
:1036900001209D4208D09C4201D0A5420BD01CBC09
:1036A00090469946A246F0BD63463343F7D1AC42FB
:1036B000F5D13A43F3D10120BE42F0D1C845EED155
:1036C000514507D0002DEAD163461E433000461E07
:1036D000B041E4E70020E2E7FF070000F0B545460F
:1036E000DE4657464E46E0B51F033D0B2C4F0E03FA
:1036F0004C00AB465D008446360B640DC90F904606
:103700006D0DDB0FBC422AD0254FBD422DD0002CC1
:103710000FD130430700814678427841C0B2002D76
:1037200017D15F463A4314D14B460020002B0AD0F4
:1037300006E0002D02D15846024301D0994218D02C
:103740004842012108433CBC90469946A246AB46FC
:10375000F0BD0028F2D00120013B1843F3E7370009
:103760000743D1D002204042EDE75F461743CED059
:10377000F8E7AC42E4DC03DA481E01210843E2E743
:103780005E45DDD806D000205E45DCD20123481E10
:103790001843D8E7C445D3D80020C445F6D3D2E7B0
:1037A000FF070000F0B54E464546DE4657465C0032
:1037B000E0B51F03DB0F99462A4B0E034D00C90FDE
:1037C0008446360B6D0D8B4690463F0B640D9D4233
:1037D00020D0244B9C4222D0002D12D130434342B2
:1037E0004341DBB2002C1FD0002B0CD04B460120F4
:1037F000013B034318003CBC90469946A246AB46A9
:10380000F0BD002C16D0CB4517D05B4659420123A2
:103810000B43EFE7310002230143EBD1D9E7390035
:1038200002231143E6D1D7E73A43DDD10023002834
:10383000E0D0EAE73A43E6D1E7E7A542E5DC05DB7D
:10384000BE42E2D807D00023BE42D3D2594601235C
:1038500001390B43CEE7C445D7D80023C445F5D37F
:10386000C8E7C046FF070000F0B557464546DE46AC
:103870004E46E0B50C0398464E00230B87B0070078
:1038800092469B46760DCD0F002E6BD06D4B9E421F
:1038900035D080245B46420F2404DB0014431C43D4
:1038A000C3009946684BA3469C4600230027664404
:1038B000029343461C035A00DB0F5046240B520D63
:1038C000984600D176E05F4B9A426DD08023410F3D
:1038D0001B040B435C49E4008C461C43C3000020DE
:1038E00062444146B6186940721C019194460743F0
:1038F0000F2F00D9B0E0554ABF00D25997465B461A
:103900000343994600D087E000239B4602330827F3
:103910000293CEE742460192022867D0032800D1E5
:103920000EE2012800D062E1002300240022994623
:1039300001990140CDB2002112030B0D120B1B05A2
:103940001343434A240513401C436400ED076408F5
:103950002C434846210007B03CBC90469946A246FD
:10396000AB46F0BD034399464FD05B46002B00D1D8
:1039700089E1584600F098FE03000B3B1C2B00DD4C
:103980007AE11D22D31A3A0001005C46DA40083978
:103990008C4013008F4023439B46B94600232D4E95
:1039A0000027361A029384E7534623432AD1002482
:1039B000022096E75346234320D0002C00D157E144
:1039C000200000F071FE03000B3B1C2B00DD49E1E1
:1039D0001D21CB1A51460200D9405346083A944063
:1039E00093400C431B4A121A00207AE70125019BE1
:1039F000144C1D400023002299469CE7002400221D
:103A000001206EE7534603206BE700239B460133FA
:103A10000427002602934CE7032381460C270293D8
:103A200047E780220023002512039946054C82E7D0
:103A30005C464B4602986FE75C464B460195029800
:103A40006AE7C046FF07000001FCFFFF205F00009F
:103A5000FFFF0F800DFCFFFF4A464946170C1A0C6A
:103A60001B041B0C08041900000C41431500884678
:103A700019007D4379430395894629001500454384
:103A80004D44029545462D0CAA46029D5544A94534
:103A900006D98A46802149028946CA445146039183
:103AA000290C0491414609042D04090C884629007B
:103AB000250C24044144240C0591210041438846EF
:103AC000210079438A466843414650448146080CA8
:103AD00048446F43824503D98021490289464F44B7
:103AE000010C894639004944029141460F0404996A
:103AF0003F0C88460004C019804441460491594651
:103B00000F0C0904090C884659438A463900514371
:103B1000894641464A435146090C8B467B43D2189D
:103B20005A44934203D980235B029B46D9445146B1
:103B30000904090C8A46414661437C43130C120474
:103B40004B445244A1468A463C0041466C434D4397
:103B500051464D440F0C7D19A94503D980214902D6
:103B600088464444049F0399B84641448B468345A4
:103B7000804141428846514608042F04000C3F18FA
:103B80005846029910188946904292414F44BA46CD
:103B9000524299469346C244D144CB448F42BF41DE
:103BA000C245894199459B41934592417F42494293
:103BB0002D0C52420F435B4213437F19FF185B46A3
:103BC0003C19DB0D059A64021C43430213435D1E3E
:103BD000AB415A46C00D034352021343E20156D58E
:103BE00001205A0803401343E207134364085A486C
:103BF000604400284DDD5A0709D00F221A40042ADC
:103C000005D01A1D9A429B415B42E4181300E20161
:103C100004D58020514AC00014406044504A90426C
:103C200000DDE3E60125DB0862071A436402019B1D
:103C30009146220B4405640D1D407CE680225946C6
:103C40001203114208D0144206D122431203120B70
:103C500045469946434C6EE65B461A431203120BE7
:103C6000404C68E603005446283B9C400023B9E6DC
:103C700000F01AFD2030A6E60300283B9F400023F9
:103C8000BB4699468AE600F00FFD203074E6B44644
:103C9000ADE701252A1A382A06DD019B00241D40C4
:103CA00000230022994646E61F2A21DC2025200019
:103CB000AD1A1E00AB40A840D6405D1EAB4130435C
:103CC0001843D440430709D00F230340042B05D0E9
:103CD0000300181D98429B415B42E418230221D542
:103CE0000125019B01241D4000230022994622E664
:103CF0001F2521006D42281AC1400800202A1DD02E
:103D00005F35AA1A944023435C1EA3410725034351
:103D10001D400022002D09D00F2200241A40180057
:103D2000042AD6D1030065076402220BDB082B436B
:103D300001259946019B00241D40FCE50024E2E793
:103D4000802201251203224301991203120B0D4018
:103D50009946044CEFE5C046FF030000FFFFFFFE5D
:103D6000FE070000FF070000F0B54646D6464F4666
:103D70000C03C0B5CD0F4E00610A440F0C43C100C7
:103D80005800400D84468A460F001903500F490A17
:103D90000143C648760DA846DB0FD200844500D10A
:103DA000D8E001204340AB4200D1A6E06046351A7E
:103DB000002D00DC05E1002810D10B00134300D1D9
:103DC000D7E06B1E002B00D04BE153469F1ABA453B
:103DD0008041641A4042241A01261EE0B34B9E42E1
:103DE00048D080231B041943382D00DD19E11F2D15
:103DF00000DD4CE120230F005B1B10009A409F4028
:103E0000E840531E9A41E940074317435346DF1BDE
:103E1000611ABA45A44164420C1B230200D4C5E0D8
:103E20006402650A002D00D1F6E0280000F03CFC99
:103E30000300083B1F2B00DDE9E020223C00D21AE2
:103E40009D40D4409F4025439E4200DDDBE09E1B09
:103E5000731C1F2B00DD0AE120223800D21A290032
:103E600097402C009140D8407A1E9741DC400026B4
:103E700001430F437B0709D00F233B40042B05D0A0
:103E80003B1DBB42BF417F42E4191F00230225D5E1
:103E9000864B01369E4200D1AFE0854B01251C4088
:103EA00043466207FF08640276051743240B760D2C
:103EB0001D4000212403230B0C0D7E4A24051C43C6
:103EC0001440330523435B00ED075B082B433800A8
:103ED00019001CBC90469946A246F0BD01254346F8
:103EE0006207FF081743E4081D40704B9E4236D01E
:103EF00024037605240B760DDBE76346F31A002BCB
:103F000000DC94E06046002835D068488642B1D095
:103F100080273F043943382B00DCFDE00A431700BB
:103F200000217A1E97415744574580410919444260
:103F30000C1923023AD55D4B01369E4200D14BE16C
:103F400001225B4B1C407B0817401F43E2071743CD
:103F500064088FE70800104300D024E721E723001E
:103F60003B4300D1B9E18022120314432403240B04
:103F70009FE72E007EE70800104300D1CAE0581EDC
:103F80008446002800D0E7E052445245804164183E
:103F90004042241817000126230207D50226CFE746
:103FA00064462C4300D1B3E12C0067467B0700D068
:103FB00062E76307FF081F4301254346E4081D40ED
:103FC00093E7002D78D1751C6D056D0D012D00DC7A
:103FD000F2E05046801A8245BF41651A7F42ED1BD0
:103FE0008446280200D48CE05046171ABA42924107
:103FF0000C1B5542651B984614E7012543460024D7
:104000001D40002755E72A4CF61A2C4032E73D00A8
:1040100028388540002717E7380000F045FB20309E
:1040200006E70A43170000217A1E9741EEE6002BAF
:1040300000D0E5E0731C9C465B055B0D012B00DCAA
:104040009FE01A4B9C4500D1C5E052445245804147
:10405000641840422418E70752081743640866466C
:1040600008E71248854200D185E01D00BCE6290022
:104070001F3EF140202B00D17FE04022D31A9D400B
:104080002F437D1EAF4100240F4300268EE72B00F7
:104090000F00203BDF40202D71D040235D1BA94045
:1040A0000A43511E8A4100211743AFE6FF07000073
:1040B000FFFF7FFFFFFF0F80002E3ED0B34EB445C1
:1040C00045D0802636046D423443382D00DDA8E00B
:1040D0001F2D00DD1FE1202627005046761BB7402C
:1040E000E84007435046B040461EB041EC403843DC
:1040F000171ABA4292410C1B5242A41A66469846BD
:104100008BE6644667462C4300D08BE600250026EC
:104110000027EAE61E00ADE61F2B60DC2027F81A18
:104120000F00844687401000D84007436046824015
:10413000501E8241D9401743F5E6260050460643FB
:1041400005D0ED43002DD3D0904EB445BDD10C0029
:104150001700664698468DE68C4883420BD063462E
:10416000D9E6002D00D096E00800104300D1E2E02F
:104170000C0017009846854E7CE6002580E700215C
:104180008EE7230050460343002E00D0A8E0002B0A
:1041900000D1DEE00B00134300D16BE652445245E0
:1041A00080416418404224181700230200D4FDE621
:1041B000774B66461C405DE6250050460543002EC1
:1041C000CFD1002D4FD10C00144300D1A0E00C0042
:1041D000170098464EE666460024002785E61F0035
:1041E0000800203FF8400700202B00D18EE040203F
:1041F000C31A99400A43511E8A410021174392E68F
:10420000002E14D126005046064362D0DB43002B1B
:104210005CD187189742924164185242A4186646AE
:1042200087E650462043441EA041002460E7574ED5
:10423000B4454ED0802636045B423443382B00DD33
:104240007FE01F2B00DD8BE0202627005046F61A6A
:10425000B740D84007435046B040461EB0410743E0
:10426000DC40BF18D6E70D00154300D102E65046EA
:10427000801A8245BF41651A7F42ED1B84462802A1
:1042800000D48DE65046171ABA4292410C1B524296
:10429000A41A9846EEE50D00154300D16BE7504691
:1042A0006707C00807438020E4080003044207D0E2
:1042B000CD08054204D12C009846D70849070F4382
:1042C0007B0FE4001C43FF00304ED3E52F4EB44576
:1042D000B4D10C0017006646CCE500270024E8E5C1
:1042E000002B39D00B00134300D144E7C008670707
:1042F00007438020E40800030442E1D0CB080342D6
:10430000DED1D70849070F431C00D9E7002171E728
:1043100000250027E9E52E002700203EF740202D4C
:104320002FD04026751BAC4050462043441EA04170
:1043300000243843DCE6802400252403134E0027A4
:10434000D3E5504620430700781E87410024BF185C
:1043500060E70C0017008DE50C0017000B4E89E597
:104360001E002700203EF740202B0CD04026F31AD9
:104370009C4050462043441EA04107430024BF18E0
:1043800048E70024D0E70024F3E7C046FF07000019
:10439000FFFF7FFF30B5134D0A034B00120B5B0D7F
:1043A000C90F0024AB4210DD0F4CA3420FDC802468
:1043B0000E4D64032243ED1A1F2D0BDD0C48C31A6A
:1043C000DA405442002900D11400200030BD094BCE
:1043D000CC18FAE7084CE840A44663449A400243EC
:1043E000EFE7C046FE0300001D0400003304000098
:1043F00013040000FFFFFF7FEDFBFFFF70B50028F7
:1044000030D0C317C4185C40C50F200000F04CF931
:10441000174B184A1B1AD21A1F2A18DD164AD21A2D
:104420009440002224035B05240B5B0D0021100047
:1044300024030A0D240B12052243104C1B052240B5
:1044400013435B00ED075B082B43190070BD21008F
:1044500091400A000B21081AC4405B052403240B79
:104460005B0DE3E70025002300240022DEE7C046C1
:104470001E0400003304000013040000FFFF0F803F
:1044800010B5041E28D000F00FF9154B154A1B1A61
:10449000D21A1F2A15DD144AD21A9440002224038E
:1044A0005B05240B5B0D0021100024030A0D240B77
:1044B000120522430D4C1B05224013435B00590893
:1044C00010BD210091400A000B21081AC4405B0571
:1044D0002403240B5B0DE6E7002300240022E2E71F
:1044E0001E0400003304000013040000FFFF0F80CF
:1044F0004100090E4B1C70B5DBB24602750AC40FB1
:10450000012B14DDE0239B006D07360BCB18002137
:104510000A0D280012051C4D32435B052A405B083A
:1045200013435B00E4075B082343190070BD0029B7
:1045300014D1002D1ED0280000F0B6F80A281CDC8B
:104540000B232A001B1ADA40030015339D400F4B42
:1045500012031B1A5B05160B5B0DD8E7002D06D066
:10456000320B802636036D071643094BCFE7084B05
:104570000026CCE700230026C9E703002A000B3BF6
:104580009A400025E3E7C046FFFF0F808903000043
:10459000FF070000F0B54C00640D0B03621C450FD3
:1045A0005B0A52052B43C90FC500520D012A28DDB5
:1045B0003A4AA618FE2E1BDC002E3EDD80010200CA
:1045C000501E82416D0F2A43DB0013435A0704D06B
:1045D0000F221A40042A00D004338022D2041A4049
:1045E0005AD00136FF2E03D09B015B0AF4B201E0E2
:1045F000FF2400235802E405400AC907204308436A
:10460000F0BD002C07D01D43F2D08020DB008004D9
:104610000343FF26DAE72B4303D00523DB08FF2CF7
:1046200003D05B025B0AE4B2E4E7002B32D08020C7
:10463000C00303435B025B0ADCE73200173214DB82
:1046400080221E2712041343BF1B1F2F0FDC144AA6
:10465000944664442A00A5402E00A340751EAE4136
:10466000FA40334313430026B0E70024D5E7022283
:104670005242961B1A00F240202F09D00948844666
:104680006444A3402B435D1EAB41002613439DE7CA
:104690000023F7E70023ADE73400BFE780FCFFFF0E
:1046A00082FCFFFFA2FCFFFF1C2101231B04984298
:1046B00001D3000C10391B0A984201D3000A0839B3
:1046C0001B09984201D30009043902A2105C40186A
:1046D0007047C0460403020201010101000000000E
:1046E00000000000F0B51C0085B00023150000227A
:1046F00006000F00FEF74CF92300002803D02D23FD
:10470000013D2370631C0022084903926732029224
:10471000019300953B003200086800F0B9F8431E91
:10472000984140420440200005B0F0BD1000002038
:1047300070B500260C4D0D4C641BA410A64209D187
:10474000002601F093FC0A4D0A4C641BA410A642FB
:1047500005D170BDB300EB5898470136EEE7B300C2
:10476000EB5898470136F2E7786000007860000067
:10477000786000007C600000002310B59A4200D1F0
:1047800010BDCC5CC4540133F8E703008218934297
:1047900000D1704719700133F9E70000F0B58BB014
:1047A0000E0010A910C90D7808A9049107A903915A
:1047B00009A90291611C01910221009100F03CFDC8
:1047C000099F324B9F4205D10100300000F0A8FC48
:1047D0000BB0F0BD0378129A411C3370224309D10B
:1047E0001400731C08781A00002807D1672D0CD11B
:1047F000652514E02E22B31C7270F3E7002CF5DD62
:1048000018700131013C0133ECE7472D39D021000C
:104810003020002931DCE343DB171C4012191570EE
:104820007B1E951C09932C00002B2CDA2D23537032
:104830002C3BDF1B0997099E632E0CDD64213000A1
:10484000FDF7A4FF030030332B7064235B42584311
:10485000801909906C1C099D0A212800FDF796FF1C
:10486000030002000A20404258430023401930321E
:10487000303022706070A370AAE7187001390133DC
:10488000C7E74525CBE72B235370D4E70F2700005C
:10489000F0B515001C008DB014AB1B780600079313
:1048A0000022002328002100139FFEF771F8002842
:1048B00002D080231B06E4180022002328002100D8
:1048C000FEF760F8002806D030233B7000237B7091
:1048D00038000DB0F0BD514A514B28002100FEF7C1
:1048E00061F800280DD0159B2A000293079B390020
:1048F0000193129B3000013B00932300FFF74EFF12
:10490000E6E7129800F074FB02000B00280021007B
:10491000FEF75CF80028E6D10022424B2800210077
:10492000FEF736F80AAB039309AB0293129B0BAA6E
:10493000019304920323002800D1022300932A004C
:104940002300300000F078FC374B099A9A4213D0CC
:104950003A00129B04789B1A1100FB18099D002C49
:1049600015D101218C46ED1AEE181100002E3BDC0A
:10497000002C0ED009960CE00100380000F0D0FBAE
:10498000A6E7013D1470013009950132E1E7002DE1
:10499000F7DC159C002C02D10478002C21D0974222
:1049A00002D13022791C3A702E2230250A7001265D
:1049B0004A1C0021099C002C1EDB002900D0099410
:1049C00004781100002C01D0002B1DDC1598002864
:1049D00007D01800302400281BDCDA43D21713401C
:1049E000C91800230B7073E7002BC1DD3021013B98
:1049F000117064460132B7E7002BDEDD157001341B
:104A0000013B01323100D6E714700130013B013225
:104A1000D6E7147001380132DDE7C0462D431CEBA8
:104A2000E2361A3F0000F03F0F27000070B5466ADB
:104A300004000D00002E07D1102001F0E5F960629E
:104A4000466086600660C660666AF368002B13D015
:104A5000636AAA00DB689B181868002818D1012136
:104A60000E00AE40721D9200200000F0DBFA00281C
:104A70000CD0456086600DE021220421200000F06A
:104A8000D1FA636AF060DB68002BE1D1002070BDD1
:104A900002681A6000230361C360F8E770B5446AD6
:104AA00006000D00002C07D1102001F0ADF9706256
:104AB000446084600460C460002D07D0736A6A6833
:104AC000DB6892009B181A682A601D6070BDF7B5FC
:104AD0001E0014239C4607000C0000200D698C4426
:104AE000634619881B6851431B0C534389190E0CEC
:104AF0009B1989B21E0C1B045B186146013008C16A
:104B00008C468542ECDC002E1BD0A3689D4212DB54
:104B100063683800591CFFF789FF21002369019061
:104B20009A1C92000C310C30FFF726FE2100380051
:104B3000FFF7B4FF019C2B1D9B00E31801355E605D
:104B400025612000FEBD0300020C0020824201D13D
:104B50001B0410301A0E01D108301B021A0F01D1AC
:104B600004301B019A0F01D102309B00002B03DBA4
:104B700001305B0000D4202070470722036810B585
:104B800001001A400DD001240020234205D102303B
:104B9000034203D0E34020000B6010BD9B080B6074
:104BA000FBE79CB21000002C01D110201B0CDAB2E4
:104BB000002A01D108301B0A1A0701D104301B0951
:104BC0009A0701D102309B08DA07E8D45B0801D0CC
:104BD0000130E4E72020E0E710B50C000121FFF7E9
:104BE00025FF01234461036110BDF0B50B69150079
:104BF000126989B00C00934201DA2C000D0027697C
:104C00002E69A268BB1961680193934200DD0131EE
:104C1000FFF70CFF030014330093009ABB1994466E
:104C20009B009C4413000022049063451CD32A007F
:104C30001434BF00E3191432B6000593931902949B
:104C40000693069B9A4211D3019B002B06DD042399
:104C50005B429C4463461B68002B51D0049B019A25
:104C600018001A6109B0F0BD04C3DEE71488002CF7
:104C70001ED00026009D029F01CF079508CD03930B
:104C800083B2634319006B46000C9B896043CB18C9
:104C900003999B19090C4118180C09180E0C9BB2AA
:104CA00009040B4307990B60059BBB42E4D82E60B7
:104CB00013681B0C03931ED00026009B029C1B68EC
:104CC000009807002188039D9BB2694320C82D0CE2
:104CD00049198E1931040B433B6008CC03991B0C16
:104CE0004B437968360C89B25B1805999B191E0CE9
:104CF000A142E6D80360009B043204330093A0E78E
:104D0000019B013B01939FE70323F7B51340050087
:104D10000E001400002B08D02249013B9A00525883
:104D200000233100FFF7D3FE0600A310019336D015
:104D30006C6A002C07D1102001F066F868624460AC
:104D400084600460C4606F6ABC68002C07D1164997
:104D50002800FFF741FF00230400B8600360012230
:104D6000019B13420AD0310022002800FFF73DFFCB
:104D7000070031002800FFF791FE3E00019B5B1009
:104D800001930CD02068002807D1220021002800C0
:104D9000FFF72BFF0023206003600400DFE73000F3
:104DA000FEBDC0465060000071020000F0B50D006D
:104DB00017002B69541185B0E31802930133019356
:104DC0004968AB680390019A934234DB0398FFF77C
:104DD0002DFE00230200060019001432A3422DDB31
:104DE000E343DB171C402B001F21A40014192A6980
:104DF000143392009A180F4024D00131C91B8C46FD
:104E000000211868B84001436046216002CB043499
:104E1000C1409A42F5D82160002902D0029B02339A
:104E20000193019B0398013B33612900FFF736FE94
:104E3000300005B0F0BD01315B00C4E798001150AF
:104E40000133CBE702CB02C49A42FBD8E9E70A69F7
:104E5000036930B59B1A0ED19200143014318418B6
:104E60008918043C043922680D68AA4205D0AA4278
:104E7000924101231343180030BDA042F1D3FAE759
:104E8000F0B50D0085B00700110028001400FFF7F1
:104E9000DEFF061E08D101003800FFF7C7FD012321
:104EA0004661036105B0F0BD01230193002804DBD6
:104EB00023002C001D000023019361683800FFF7D8
:104EC000B5FD2F000022019B2669C3601434B30096
:104ED000E31802932B6914379B00FB18039303001C
:104EE0009446143320CC04CF0192AAB294446A466B
:104EF000614692882D0C8A1A0199090C691A1514B9
:104F000049190D1492B209040A431A60039AAC4677
:104F10000433BA42E6D802991A008C4205D3043A07
:104F20001368002B0ED00661BCE704CC91B261443B
:104F30000D14120C5219151489B212040A43AC460E
:104F400004C3E8E7013EEAE7F7B51D000121089F29
:104F50001400FFF76BFD2B036D0006001B0B6D0D9E
:104F600024D10193002C27D068460094FFF705FE5A
:104F7000009C00281ED0019B20211A00091A8A409B
:104F8000C340224372610193019CB461631E9C4142
:104F900001343461002D18D0124BED1835232D1833
:104FA0003D60181A099B18603000FEBD8022520334
:104FB0001343D6E77461E7E701A8FFF7DEFD01249C
:104FC000019B346173612030E4E7074BC018074B45
:104FD0003860E3189B00F3185869FFF7B4FD6401CB
:104FE000201ADFE7CDFBFFFFCEFBFFFFFFFFFF3FF8
:104FF00010B50400172805DC074BC4001C192068F5
:10500000616810BD002005490022054B013CFEF7F8
:105010002BFC002CF8D1F4E7885F00000000F03F83
:10502000000024404A4370B51100140000F008F855
:10503000051E03D022000021FFF7A7FB280070BD4A
:10504000032370B5CD1C9D43083506000C2D1ED2E0
:105050000C25A9421DD8300000F0E0FE254A146856
:105060002100002919D1244C2368002B03D13000E2
:1050700000F044F820602900300000F03FF8431CA5
:105080002CD10C233000336000F0C9FE03E0002D6A
:10509000DFDA0C233360002070BD0B685B1B1AD471
:1050A0000B2B03D90B60CC18256003E08C420ED18A
:1050B00063681360300000F0B2FE200007220B305E
:1050C000231D9043C31AE7D05A42E250E4E74B68ED
:1050D00063600C00EEE70C004968C2E70323C41CC0
:1050E0009C43A042E0D0211A300000F007F8431C96
:1050F000DAD1C6E7680500206C050020002370B5F2
:10510000064C050008002360FDF7AEF9431C03D1EF
:105110002368002B00D02B6070BDC046980600208D
:10512000031C0A7801311A700133002AF9D1704743
:10513000F0B503690C6989B00700059100269C420F
:105140006DDC0B00013C1433A50003935B19049341
:105150000300143302935D19049B28681B68591CD3
:105160000193FDF789FA0190B0422DD0039B02987C
:105170009C460696624608CA9446019A99B25143E3
:105180001B0C534389190A0C9B18079302881E0CA9
:10519000069B89B2D2180368521A190C6B469B8B76
:1051A000CB1A11145B18191492B21B041A43049BF6
:1051B000069104C06345DDD22B68002B04D1029B0D
:1051C000043DAB422ED33C6105993800FFF73FFE0A
:1051D000002823DB0025019B0298013303990193EA
:1051E00008C9028855199AB2AA1A05681B0C2D0C19
:1051F000EB1A15145B191D1492B21B04134308C05B
:10520000049B8B42ECD2029AA300D3181A68002A9E
:1052100004D1029A043B9A4209D33C61019E3000BA
:1052200009B0F0BD2B68002BCDD1013CC7E71A684F
:10523000002AF2D1013CECE7F0B516001F00446AE9
:105240009DB00490259D06960797002C08D110204C
:1052500000F0DAFD049B5862446084600460C4601E
:10526000049B5B6A196800290BD05A68012393409C
:105270004A608B600498FFF711FC0022049B5B6A74
:105280001A60079B002B1FDA01232B607B005B0851
:105290000793079CB74B220019931A409A4216D1E4
:1052A000B54B249A1360069B002B03D1240301D134
:1052B00000F091FDB14B269A0A93B14B002A01D020
:1052C00000F08FFD00F08FFD00232B60E1E7069ECC
:1052D000079F0022002330003900FDF753FB051E15
:1052E0000ED00123249A1360A64B269A0A93002A13
:1052F00001D100F078FDA44A26990A6000F073FD00
:105300001AAB01931BAB009332003B000498FFF7EC
:105310001BFE630005905B0D00D17FE03A039B4CC0
:10532000120B144321009A4A300018959E1800224F
:10533000984BFEF719FD984A984BFEF795FA984A54
:10534000984BFDF74DFB040030000D00FFF756F8B9
:10535000954A964BFEF788FA02000B0020002900C0
:10536000FDF73EFB04000D00FFF714F80022039048
:10537000002320002900FDF70BFB00280ED0039826
:10538000FFF73CF80B00020029002000FDF7FAFAB5
:10539000030058425841039B1B1A039301231693A1
:1053A000039B162B0FD88249DB00C918086849688F
:1053B000069A079BFDF700FB00284BD0039B013B9F
:1053C0000393002316931A9B9E1B00230B93330019
:1053D000013B0C9304D501239B1B0B9300230C93DF
:1053E000039B002B38DB039A0C9B944663440C937D
:1053F00000230F920893229B0125092B00D991E0ED
:10540000052B02DD0025043B2293229B981E0328D6
:1054100000D991E000F004FD828429761A9B1B9A42
:105420009E18644BF218202A0FDD634B0698F31880
:10543000D84040239B1A9C402043FFF721F80123CA
:105440005E4C013E0919189371E7202306989B1AB8
:105450009840F2E71690B6E70B9B039A9B1A0B93C2
:105460005342089300230F93C5E701230E93239B18
:10547000002B65DD1F000D93049A546A00226260C0
:1054800004321100143199425FD961680498FFF722
:10549000CDFA049B20605B6A1B680A930E2F00D92B
:1054A00005E1002D00D102E1069B079C14931594A1
:1054B000039B002B00DC85E01A000F213C4B0A40C7
:1054C000D2009B185C681B6810931194039B022404
:1054D0001D11EB060AD53A4B0D401A6A5B6A149807
:1054E0001599FDF78DFD069007910134344E002D7E
:1054F00030D1109A119B06980799FDF781FD06900F
:1055000007917AE00123239A0E939446039B634408
:105510005F1C0D933B1EAFDC0123ADE70023A5E725
:105520000023F0E700230E952293013B00220D9308
:105530001F00133323929FE701230E93023BF5E7ED
:1055400001230D931F001A00F4E761685200013136
:10555000616096E701231D4208D010981199E41864
:1055600032687368FEF780F9109011916D1008365B
:10557000BDE7C0460000F07F0F2700006560000017
:1055800068600000696000006A6000000000F03F91
:1055900001FCFFFF0000F83F61436F63A787D23F24
:1055A000B3C8608B288AC63FFB799F501344D33F12
:1055B000885F00003204000012040000000010FEAA
:1055C000605F0000039B0224002B16D014981599ED
:1055D0005D420F23CA4A2B40DB00D3181A685B6870
:1055E000FEF742F9002306900791C64E2D11002DBB
:1055F00000D08CE0002B00D081E7169B002B00D15F
:1056000091E0069A079B109211931098119900222D
:10561000BD4BFDF7BDF9002800D184E0002F00D17B
:1056200081E00D9B002B3EDD10981199039B002219
:105630005E1EB64BFEF718F9069007910D9D0134DA
:105640002000FEF7DBFE069A079BFEF70DF900220D
:10565000AF4BFDF7C5F912901391129B139CAD4A05
:1056600010931194139B9C181194002D5ED10698F1
:1056700007990022A84BFEF777FB109A23000690AB
:105680000791FDF799F9002800D001E3A348139989
:10569000844661440B0006980799109AFDF778F943
:1056A000002800D0E8E2149B159C069307941B9BEE
:1056B000002B00DA57E1039A0E2A00DD53E1904BEC
:1056C000D2009B185C681B6808930994239B002BED
:1056D00000DBCEE0002F00DDCBE000D0CFE2089869
:1056E000099900228C4BFEF7BFF8069A079BFDF73D
:1056F0006DF93E000897002800D0A4E20A9B0A9AA0
:105700005D1C31231370039B013303939FE201223D
:10571000154205D0A41832687368FEF7A5F8012376
:105720006D10083663E7039E3D0089E70A9A691EFB
:10573000521917920E9A724BC900002A4AD05B1870
:105740001A685B6800207649FDF75AFC109A119B95
:10575000FEF70AFB0A9B1090119112930698079985
:10576000FEF718FE0400FEF749FE02000B00069843
:105770000799FEF7F9FA129B30345D1C1C70109AE1
:10578000119B06900791FDF703F9002865D1069A51
:10579000079B00205C49FEF7E7FA109A119BFDF782
:1057A000F7F8002800D0BEE0179B9D4200D17AE7B1
:1057B000109811990022554BFEF756F800221090D0
:1057C000119106980799514BFEF74EF812950690E5
:1057D0000791C3E7591808684968109A119BFEF7AA
:1057E00043F8109011910A9C179D06980799FEF7AF
:1057F000D1FD1290FEF702FE02000B0006980799F9
:10580000FEF7B2FA129B0690079130332370179B74
:1058100001340022A34224D1414B10981199FDF785
:10582000DFF802000B0006980799FDF7C5F800287D
:1058300000D078E0109A119B00203949FEF794FAC5
:1058400002000B0006980799FDF7A2F8002800D186
:1058500029E76B1E1A78302A01D003963FE01D001D
:10586000F7E706980799294BFDF7FEFF0690079189
:10587000BBE70A9E089A099B06980799FDF7C0FBAB
:10588000FEF788FD0400FEF7B9FD089A099BFDF7B5
:10589000EBFF0B00020006980799FEF765FA23005C
:1058A000303333700A9B751CEB1A9F424CD10200B7
:1058B0000B00FDF795F806000F0002000B0008989A
:1058C0000999FDF765F800282CD10898099932004C
:1058D0003B00FDF757F8002801D0E30722D40599D3
:1058E0000498FFF7DBF800232B70039B249A013305
:1058F0001360269B002B00D175E21D6073E2C04649
:10590000885F0000605F00000000F03F000024405E
:1059100000001C400000C0FC000014400000C07CDF
:105920000000E03F039E6B1E1A78392A06D10A9ABE
:105930009A4207D130231370130001361A780132CE
:105940001A708AE71D00EEE70022CF4BFDF78CFFAF
:1059500000220023069007912E00FDF713F800287F
:1059600000D187E7BBE70E9A002A00D187E0229A90
:10597000012A6EDC189A002A67D0C44A9B18089D39
:105980000B9C0B9A0121D2180B920C9A0498D318F5
:105990000C93FFF721F90600002C0EDD0C9B002B69
:1059A0000BDD0C9A2300944200DD13000B9AE41ADD
:1059B000D21A0B920C9AD31A0C93089B002B1ED070
:1059C0000E9B002B5FD0002D11DD31002A000498C2
:1059D000FFF79AF9059A010006000498FFF705F908
:1059E000059910900498FFF759F8109B0593089BB0
:1059F0005A1B04D005990498FFF786F905900121F8
:105A00000498FFF7E9F80F9B0890002B3DDD1A0082
:105A100001000498FFF778F9229B08900025012BDC
:105A20003BDC0025069BAB4233D1079B1B03AB42FB
:105A30002FD1199B079A13422BD00B9B01350133B1
:105A40000B930C9B01330C9323E036231A9A9B1A79
:105A500095E7089B7D1EAB4206DB5D1B002F0BDA32
:105A60000B9BDC1B00238CE7089B0895EA1A0F9B15
:105A700000259B180F93F1E70B9C3B0081E7089DE5
:105A80000B9C0E9E88E7089AB4E7229B0025012B09
:105A9000C7DD0F9B0120002B0BD0089B089A1B69C8
:105AA0000F9303339B00D3185868FFF74CF820235B
:105AB000181A0C9BC0181F23184000D1ABE001330B
:105AC0001B1A042B00DC9BE01C23181A0B9B2418C8
:105AD0001B180B930C9B1B180C930B9B002B05DDC9
